:100000000C946C000C9489000C9489000C94890069
:100010000C9489000C9489000C9489000C94600F56
:100020000C9489000C9489000C9489000C9489002C
:100030000C9489000C9489000C9489000C9489001C
:100040000C9489000C9489000C9489000C9489000C
:100050000C9489000C9489000C9489002D102D10AB
:10006000381038104410491049104B104B104B10E9
:1000700057101D101D102910791079108910891042
:100080009910AD10AD109D109D109D10AF1069100E
:1000900069106510EC10EC10FC10FC100C11201114
:1000A00020111011101110112211DC10DC10D810C9
:1000B00007634236B79BD8A71A39685618AEBAAB51
:1000C000558C1D3CB7CC5763BD6DEDFD753EF617E5
:1000D0007231BF000000803F11241FBECFEFD0E17E
:1000E000DEBFCDBF11E0A0E0B1E0E6ECFCE202C073
:1000F00005900D92AC35B107D9F722E0ACE5B1E03F
:1001000001C01D92AD35B207E1F70E9477110C9442
:1001100061160C940000082E000C990B9C01220F14
:10012000331F820F931F6AE070E00E9493126158A0
:1001300081E00C94C40F882361F02DEF6202C001AE
:1001400011246AE070E00E949312615880E00C94E0
:10015000C40F862F0C948B00EF92FF920F931F9386
:10016000CF93DF93009701F18C01E12CF12CC0E0DB
:10017000D0E00AC08FE99FE00197F1F700C00000CE
:1001800021960C171D0741F00E940B10813091F74A
:10019000EE24E394F12CEECFC701DF91CF911F91B4
:1001A0000F91FF90EF90089580E090E0F6CFFB0173
:1001B00038963291229133832283E617F707C9F7E5
:1001C000918380830895FC019C01265F3F4F60E08E
:1001D00070E081919191680F791F2E173F07C9F741
:1001E000072E000C880B990B0E940D1420E030E0C4
:1001F00040EA50E40E942913089569E2869F612D28
:10020000112462956F7070E080E090E00E940D1400
:10021000089520E030E048EC52E40E9436150E9438
:10022000DC13862F08954F925F926F927F928F9288
:100230009F92AF92BF92CF92DF92EF92FF920F9375
:100240001F93CF93DF93CDB7DEB728970FB6F894FF
:10025000DEBF0FBECDBF082F10E0061B1109E4EC76
:10026000F1E0E680F780F186E086C480D580D78211
:10027000C6828281938195838483208131813383F7
:10028000228311830083200F311F820F931FC80E1A
:10029000D91EB801012E000C880B990B0E940D1479
:1002A0002DEC3CEC4CE45EE30E9436152B013C0146
:1002B0006091C2017091C301600F711F072E000C85
:1002C000880B990B0E940D142DEC3CEC4CE45DE383
:1002D0000E9436154B015C01B6016E0D7F1D072E85
:1002E000000C880B990B0E940D1420E030E040EACE
:1002F00050E40E9429132DEC3CEC4CEC5DE30E9491
:1003000036156B017C011093C3010093C20120E0FC
:1003100030E044E352E4C301B2010E94BD12A501E2
:1003200094010E94BD12A70196010E94BD120E9475
:10033000D51309E2609F612D112462956F7070E002
:1003400080E090E00E940D14162FAB01BC014983A0
:100350005A836B837C83A301920160E070E084E3A5
:1003600092E40E94BC12A50194010E94BC12A70154
:1003700096010E94BC120E94D513609F612D11242A
:1003800062956F7070E080E090E00E940D14E62F9F
:10039000462F572FBC014D835E836F837887212FB3
:1003A0003A814B815C816E2F7E818F819885289662
:1003B0000FB6F894DEBF0FBECDBFDF91CF911F9176
:1003C0000F91FF90EF90DF90CF90BF90AF909F90F4
:1003D0008F907F906F905F904F900895CF93DF93B1
:1003E0000E94FD15C0E7D1E0BC01990F880B990B65
:1003F0000E940D1420E03EEF4FEF56E40E942913B7
:10040000688379838A839B830E94FD15BC01990FC1
:10041000880B990B0E940D1420E03EEF4FEF56E43D
:100420000E9429136C837D838E839F830E94FD1518
:10043000BC01990F880B990B0E940D1420E03EEF30
:100440004FEF56E40E9429136C877D878E879F8724
:100450000E94FD15BC01990F880B990B0E940D1489
:1004600020E03EEF4FEF56E40E942913688B798B12
:100470008A8B9B8B0E94FD15BC01990F880B990BF1
:100480000E940D1420E03EEF4FEF56E40E94291326
:100490006C8B7D8B8E8B9F8B0E94FD15BC01990F01
:1004A000880B990B0E940D1420E03EEF4FEF56E4AD
:1004B0000E9429136C8F7D8F8E8F9F8F0E94FD1558
:1004C000BC01990F880B990B0E940D1420E03EEFA0
:1004D0004FEF56E40E94291368A379A38AA39BA334
:1004E0000E94FD15BC01990F880B990B0E940D14F9
:1004F00020E03EEF4FEF56E40E9429136CA37DA34A
:100500008EA39FA30E94FD15BC01990F880B990B28
:100510000E940D1420E03EEF4FEF56E40E94291395
:100520006CA77DA78EA79FA70E94FD15BC01990F00
:10053000880B990B0E940D1420E03EEF4FEF56E41C
:100540000E94291368AB79AB8AAB9BAB0E94FD1567
:10055000BC01990F880B990B0E940D1420E03EEF0F
:100560004FEF56E40E9429136CAB7DAB8EAB9FAB73
:100570000E94FD15BC01990F880B990B0E940D1468
:1005800020E03EEF4FEF56E40E94291368AF79AFA9
:100590008AAF9BAF0E94FD15BC01990F880B990B88
:1005A0000E940D1420E03EEF4FEF56E40E94291305
:1005B0006CAF7DAF8EAF9FAF0E94FD15BC01990F50
:1005C000880B990B0E940D1420E03EEF4FEF56E48C
:1005D0000E9429136093B0017093B1018093B2011E
:1005E0009093B3010E94FD15BC01990F880B990BE4
:1005F0000E940D1420E03EEF4FEF56E40E942913B5
:100600006093B4017093B5018093B6019093B701E4
:100610000E94FD15BC01990F880B990B0E940D14C7
:1006200020E03EEF4FEF56E40E9429136093B8019B
:100630007093B9018093BA019093BB010E94FD159C
:10064000BC01990F880B990B0E940D1420E03EEF1E
:100650004FEF56E40E9429136093BC017093BD01D3
:100660008093BE019093BF01DF91CF9108950F93C6
:100670001F93CF93DF931092C1011092C00180E0CD
:100680000E940D0BD82F81E00E940D0BC82FE09126
:10069000C001F091C101EE0FFF1FE153FE4FD08367
:1006A000C1830E94F40E60E080E00E94540D84E05B
:1006B00091E00E94450E8091C0019091C1010E947D
:1006C0006A0E8BE291E00E94450E61E080E00E949C
:1006D000540D8AE091E00E94450E8D2F90E00E941B
:1006E0006A0E61E084E00E94540D8CE091E00E946B
:1006F000450E8C2F90E00E946A0EC1E0D0E000E031
:1007000010E00E940B10813079F08FE99FE0019793
:10071000F1F700C00000CC3291E0D90799F02196A2
:100720000E940B10813089F78FE99FE00197F1F764
:1007300000C00000CC3291E0D907E1F001E010E008
:100740002196EECF012BB1F48091C0019091C101AF
:1007500001969093C1018093C001C2970CF48FCF92
:100760000E94F40E60E080E00E94540D8EE091E063
:100770000E94450E8091C0019091C101DF91CF91FF
:100780001F910F9108952F923F924F925F926F9217
:100790007F928F929F92AF92BF92CF92DF92EF9211
:1007A000FF920F931F93CF93DF93CDB7DEB72C97B4
:1007B0000FB6F894DEBF0FBECDBFFE0131968AE0C2
:1007C000DF011D928A95E9F7C12CD12C8AE0282EF1
:1007D000312CB3C00E940D0B082F81E00E940D0B3D
:1007E00010E0081B1109AF80B884BA86A986ED8095
:1007F000FE80F886EF828B819C819E838D83298188
:100800003A813C832B831A830983200F311F820F87
:10081000931F4C018E0C9F1CB801012E000C880BFD
:10082000990B0E940D142DEC3CEC4CE45EE30E940D
:1008300036152B013C01B601600F711F072E000C0D
:10084000880B990B0E940D142DEC3CEC4CE45DE3FD
:100850000E9436156B017C01B501680D791D072ECC
:10086000000C880B990B0E940D1420E030E040EA48
:1008700050E40E9429132DEC3CEC4CEC5DE30E940B
:1008800036154B015C0120E030E044E352E4C30143
:10089000B2010E94BD12A70196010E94BD12A501DE
:1008A00094010E94BD120E94D5136B877C87A3011F
:1008B000920160E070E084E392E40E94BC12A70120
:1008C00096010E94BC12A50194010E94BC120E94D4
:1008D000D513D62EC72E8B850E948B00BD2D2DEFF4
:1008E000B202C0011124B1010E949312615880E04C
:1008F0000E94C40F0E94F40E60E080E00E94540D3C
:1009000087E191E00E94450E8B859C850E946A0ECE
:100910008BE291E00E94450E61E080E00E94540D60
:100920008BE191E00E94450E8D2D9C2D0E946A0E58
:100930008BE291E00E94450E68010E940B10882313
:1009400009F448CF2C960FB6F894DEBF0FBECDBF8A
:10095000DF91CF911F910F91FF90EF90DF90CF909B
:10096000BF90AF909F908F907F906F905F904F90CF
:100970003F902F900895009769F020E030E0EFE974
:10098000FFE03197F1F700C000002F5F3F4F821763
:100990009307A9F70895EF92FF920F931F93CF93B8
:1009A000DF930E94F40E60E080E00E94540D8FE11E
:1009B00091E00E94450EE12CF12C0E94050D8F3133
:1009C00008F067C00E94050D893C08F059C00E94DC
:1009D000010D893C08F04BC00E94010D8531D8F50E
:1009E000F7FC42C061E080E00E94540DC7010E9404
:1009F0006A0E88E291E00E94450EC1E0D0E000E07E
:100A000010E00E940B10813071F08FE99FE0019798
:100A1000F1F700C00000C233D10591F021960E9489
:100A20000B10813091F78FE99FE00197F1F700C03B
:100A30000000C233D10539F001E010E02196EFCF7C
:100A4000012B09F4BACFC701DF91CF911F910F910C
:100A5000FF90EF9008950E94010D863408F69AE009
:100A6000E90EF11CF7FEBECFE12CF12CBBCF0E94AA
:100A7000010D863E08F0B0CF8AE0E81AF108ACCF4D
:100A80000E94050D8A3F08F0A2CF9FEFE91AF90AEC
:100A90009ECF0E94050D863408F094CF81E0E81ABD
:100AA000F10890CF2F923F924F925F926F927F9278
:100AB0008F929F92AF92BF92CF92DF92EF92FF926E
:100AC0000F931F93CF93DF93CDB7DEB7CC54D109EB
:100AD0000FB6F894DEBF0FBECDBF29833A834B8398
:100AE0005C836D837E838F839887A986BA86CB8645
:100AF000DC86ED86FE860F87188B140149845A84A4
:100B00006B847C84CD84DE84EF84F88829813A81EB
:100B10004B815C81C301B2010E94BC124B015C019C
:100B2000A301920160E070E080E89FE30E94BC12A4
:100B3000A30192010E9436159B01AC01C501B401CD
:100B40000E943615698B7A8B8B8B9C8B00E711E0AA
:100B5000D801D0968D919D910D90BC91A02D8DA71F
:100B60009EA7AFA7B8AB2D813E814F815885C701A5
:100B7000B6010E94BC122B013C01A701960160E066
:100B800070E080E89FE30E94BC12A70196010E94DA
:100B900036159B01AC01C301B2010E9436152B0131
:100BA0003C01A0EBB1E08D919D910D90BC91A02DE9
:100BB00089AB9AABABABBCAB80916C0190916D01F2
:100BC000A0916E01B0916F01898F9A8FAB8FBC8F0E
:100BD0002DA53EA54FA558A969897A898B899C893D
:100BE0000E9436156B017C0129A93AA94BA95CA981
:100BF000C301B2010E9436159B01AC01C701B601C9
:100C00000E94BD126B017C01298D3A8D4B8D5C8D4C
:100C100060E070E080E89FE30E94BC12298D3A8D6D
:100C20004B8D5C8D0E9436159B01AC01C701B6014E
:100C30000E94361569A77AA78BA79CA7B101330C30
:100C4000880B990B0E940D146D8F7E8F8F8F98A348
:100C5000A3966EAD7FADA397072E000C880B990B62
:100C60000E940D146D8B7E8B8F8B988F9B01AC0136
:100C700069A57AA58BA59CA50E94361521EE3AE7B9
:100C800044E15EE30E9436159B01AC01D801149645
:100C90006D917D918D919C9117970E94BC126DABC7
:100CA0007EAB8FAB98AF21EE3AE744E15EE369A5F6
:100CB0007AA58BA59CA50E943615F801248535855B
:100CC000468557850E94BD1269AF7AAF8BAF9CAF46
:100CD000C0906801D0906901E0906A01F0906B01CA
:100CE000D801D4962D913D914D915C91D79769890A
:100CF0007A898B899C890E9436154B015C0184EBB3
:100D0000282E81E0382EF1012081318142815381EA
:100D1000C301B2010E9436159B01AC01C501B401AB
:100D20000E94BD124B015C01A701960160E070E0DA
:100D300080E89FE30E94BC12A70196010E9436152D
:100D40009B01AC01C501B4010E9436156B017C0109
:100D50009B01AC016D8D7E8D8F8D98A10E94361503
:100D600021EE3AE744E15EE30E9436159B01AC01B7
:100D7000D80150966D917D918D919C9153970E94D1
:100D8000BC1221966CAF7DAF8EAF9FAF2197A701AC
:100D900096016D897E898F89988D0E94361521EE86
:100DA0003AE744E15EE30E9436159B01AC01F8018D
:100DB00064897589868997890E94BC1225966CAFD3
:100DC0007DAF8EAF9FAF259721EE3AE744E15EE31A
:100DD000C701B6010E943615D8015C962D913D9150
:100DE0004D915C915F970E94BD1229966CAF7DAFCB
:100DF0008EAF9FAF2997D801D8968D919D910D9078
:100E0000BC91A02D89A39AA3ABA3BCA38091B801E8
:100E10009091B901A091BA01B091BB018DA39EA39D
:100E2000AFA3B8A78090640190906501A09066017F
:100E3000B090670129A13AA14BA15CA169897A8987
:100E40008B899C890E9436156B017C012DA13EA1E6
:100E50004FA158A5C301B2010E9436159B01AC01F8
:100E6000C701B6010E94BD126B017C01A50194016E
:100E700060E070E080E89FE30E94BC12A50194014D
:100E80000E9436159B01AC01C701B6010E943615C0
:100E90006B017C019B01AC016D8D7E8D8F8D98A1C6
:100EA0000E94361521EE3AE744E15EE30E943615D2
:100EB0009B01AC01D80190966D917D918D919C9193
:100EC00093970E94BC122D966CAF7DAF8EAF9FAFF3
:100ED0002D97A70196016D897E898F89988D0E9433
:100EE000361521EE3AE744E15EE30E9436159B0198
:100EF000AC01F80164A175A186A197A10E94BC1262
:100F00006D8B7E8B8F8B988F21EE3AE744E15EE309
:100F1000C701B6010E943615D8019C962D913D91CE
:100F20004D915C919F970E94BD126B017C012D8DAC
:100F30003E8D4F8D58A169A57AA58BA59CA50E94D1
:100F4000361521EE3AE744E15EE30E9436159B0137
:100F5000AC01F80160817181828193810E94BC1291
:100F6000D8016D937D938D939C9313978DA99EA922
:100F7000AFA9B8ADF80184839583A683B78389AD03
:100F80009AADABADBCAD84879587A687B787219610
:100F90008CAD9DADAEADBFAD2197808B918BA28BFB
:100FA000B38B25968CAD9DADAEADBFAD2597848B33
:100FB000958BA68BB78B29968CAD9DADAEADBFAD95
:100FC0002997848F958FA68FB78F2D968CAD9DAD69
:100FD000AEADBFAD2D9780A391A3A2A3B3A38D897E
:100FE0009E89AF89B88D84A395A3A6A3B7A3C4A6F1
:100FF000D5A6E6A6F7A6298D3A8D4B8D5C8D69891D
:101000007A898B899C890E94361521EE3AE744E162
:101010005EE30E9436159B01AC016DA57EA58FA5F0
:1010200098A90E94BC12F80160AB71AB82AB93AB84
:10103000A501940169897A898B899C890E9436155A
:1010400021EE3AE744E15EE30E9436159B01AC01D4
:1010500069A17AA18BA19CA10E94BC12D801D4964F
:101060006D937D938D939C93D79721EE3AE744E15E
:101070005EE369897A898B899C890E94361529A14A
:101080003AA14BA15CA10E94BD12F80164AF75AFFB
:1010900086AF97AF298D3A8D4B8D5C8DC301B20120
:1010A0000E94361521EE3AE744E15EE30E943615D0
:1010B0009B01AC0169A97AA98BA99CA90E94BC12C9
:1010C000A0EBB1E06D937D938D939C931397A50155
:1010D0009401C301B2010E94361521EE3AE744E1C2
:1010E0005EE30E9436159B01AC016DA17EA18FA12C
:1010F00098A50E94BC12F10160837183828393835F
:1011000021EE3AE744E15EE3C301B2010E943615E5
:101110002DA13EA14FA158A50E94BD126093BC0114
:101120007093BD018093BE019093BF01C45BDF4FFC
:101130000FB6F894DEBF0FBECDBFDF91CF911F91E8
:101140000F91FF90EF90DF90CF90BF90AF909F9066
:101150008F907F906F905F904F903F902F90089569
:101160004F925F926F927F928F929F92AF92BF92B7
:10117000CF92DF92EF92FF920F931F93CF93DF9363
:10118000CDB7DEB760970FB6F894DEBF0FBECDBF08
:10119000162F682F70E080E090E00E940D144B0144
:1011A0005C01612F70E080E090E00E940D146B0103
:1011B0007C0100E711E0F8012089318942895389D7
:1011C000C501B4010E9436152B013C01F8012489A8
:1011D000358946895789C701B6010E9436159B019A
:1011E000AC01C301B2010E94BD12F801248D358DFE
:1011F000468D578D0E94BC1269877A878B879C87A2
:10120000F80120A131A142A153A1C501B4010E945E
:1012100036152B013C01F80124A135A146A157A1A7
:10122000C701B6010E9436159B01AC01C301B20192
:101230000E94BD12F80124A535A546A557A50E9418
:10124000BC126D877E878F87988BF8012081318152
:1012500042815381C501B4010E9436154B015C01E6
:10126000F8012481358146815781C701B6010E946A
:1012700036159B01AC01C501B4010E94BD12F801F5
:1012800024853585468557850E94BC1290580E945A
:10129000A31320E030E040E85FE30E94BD129B0111
:1012A000AC0160E070E080E89FE30E9429132B010D
:1012B0003C0160936C0170936D0180936E0190937B
:1012C0006F0169857A858B859C8590580E94A31350
:1012D00020E030E040E85FE30E94BD129B01AC01DA
:1012E00060E070E080E89FE30E9429134B015C01FD
:1012F000609368017093690180936A0190936B0118
:101300006D857E858F85988990580E94A31320E073
:1013100030E040E85FE30E94BD129B01AC0160E059
:1013200070E080E89FE30E9429136B017C016093C9
:101330006401709365018093660190936701209129
:10134000B0013091B1014091B2015091B301C3019C
:10135000B2010E94361569877A878B879C87209116
:10136000B4013091B5014091B6015091B701C5016A
:10137000B4010E9436159B01AC0169857A858B8585
:101380009C850E94BD1269877A878B879C872091F4
:10139000B8013091B9014091BA015091BB01C70128
:1013A000B6010E9436159B01AC0169857A858B8553
:1013B0009C850E94BD122091BC013091BD014091DD
:1013C000BE015091BF010E94BC1269877A878B874A
:1013D0009C87F80120A931A942A953A9C301B201F0
:1013E0000E9436152B013C01F80124A935A946A914
:1013F00057A9C501B4010E9436159B01AC01C30178
:10140000B2010E94BD124B015C01F80120AD31AD6B
:1014100042AD53ADC701B6010E9436159B01AC0128
:10142000C501B4010E94BD12F80124AD35AD46AD31
:1014300057AD0E94BC1290580E94A31320E030E0E8
:1014400040E85FE30E94BD129B01AC0160E070E0E8
:1014500080E89FE30E942913162FA72EB82E092F8C
:10146000862F9A2DAB2DB02F809360019093610150
:10147000A0936201B093630169857A858B859C8511
:1014800090580E94A31320E030E040E85FE30E9400
:10149000BD129B01AC0160E070E080E89FE30E9418
:1014A00029136B017C01C0925C01D0925D01E09236
:1014B0005E01F0925F01C12EDA2CEB2CF02EC98276
:1014C000DA82EB82FC826B017C01CD82DE82EF82CC
:1014D000F886212F3A814B815C817E818F819885AE
:1014E00060960FB6F894DEBF0FBECDBFDF91CF91EF
:1014F0001F910F91FF90EF90DF90CF90BF90AF9032
:101500009F908F907F906F905F904F9008958F92F3
:101510009F92AF92BF92CF92DF92EF92FF920F9382
:101520001F93CF93DF93CDB7DEB728970FB6F8940C
:10153000DEBF0FBECDBF29833A834B835C836D83AF
:101540007E838F83988789809A80AB80BC80CD8092
:10155000DE80EF80F88460E080E00E94540D80E33C
:1015600091E00E94450E20E030E048EC52E4C501D5
:10157000B4010E9436150E94DC13062F862F90E0DE
:101580000E946A0E8AE291E00E94450E61E080E0CE
:101590000E94540D86E391E00E94450E20E030E069
:1015A00048EC52E4C701B6010E9436150E94DC13D4
:1015B000162F862F90E00E946A0E8AE291E00E9428
:1015C000450E802F0E948B002DEF1202C0011124C6
:1015D0006AE070E00E949312615880E028960FB68E
:1015E000F894DEBF0FBECDBFDF91CF911F910F9159
:1015F000FF90EF90DF90CF90BF90AF909F908F9033
:101600000C94C40FEAE7F0E0808187688083ECE700
:10161000F0E0808180668083089590917C00987FBF
:1016200090937C0090917C00892B80937C0080912A
:101630007A00806480937A0080917A0086FDFCCFE6
:101640008091790008958DB18F7C8DB985E08A9560
:10165000F1F700006D9A759885E08A95F1F7000022
:101660006C9A749885E08A95F1F7000008956C985B
:1016700085E08A95F1F700006D9885E08A95F1F78D
:10168000000008956D9885E08A95F1F7000065994E
:101690000DC06C9885E08A95F1F700006C9A7498FB
:1016A00085E08A95F1F70000659BF3CF6C9808956B
:1016B0006C9885E08A95F1F700006C9A749885E043
:1016C0008A95F1F7000008951F93CF93DF93D82FE9
:1016D000C62F142F0E94420B0E94230B87E013C0D9
:1016E0006D9895E09A95F1F700006C9895E09A95C1
:1016F000F1F700006C9A749895E09A95F1F7000064
:10170000DD0F815029F0D6FDEBCF6D9A7598E9CFAA
:101710006D9A759885E08A95F1F700006C9895E0D0
:101720009A95F1F700006C9A749885E08A95F1F724
:1017300000006D9895E09A95F1F700006C98659B14
:1017400005C082E491E00E94450EFFCF85E08A95B6
:10175000F1F700006C9A749895E09A95F1F7000003
:1017600088E014C06D9A759895E09A95F1F700009D
:101770006C9895E09A95F1F700006C9A749895E052
:101780009A95F1F70000CC0F815021F0C7FFEACF06
:101790006D98EACF6D9885E08A95F1F700006C9816
:1017A000659B05C08EE491E00E94450EFFCF95E059
:1017B0009A95F1F700006C9A749885E08A95F1F794
:1017C0000000112351F06C9895E09A95F1F7000014
:1017D0006D9885E08A95F1F70000DF91CF911F9118
:1017E0000895FC016623D1F14FEF460F50E04F5FA3
:1017F0005F4F480F591F908128E016C06D9A759869
:1018000085E08A95F1F700006C9885E08A95F1F7FC
:1018100000006C9A749885E08A95F1F70000908139
:10182000990F9083215021F097FFE8CF6D98E8CF72
:1018300031966D9885E08A95F1F700006C9865996E
:1018400018C085E08A95F1F700006C9A749885E0DD
:101850008A95F1F70000E417F50769F66C9885E0C2
:101860008A95F1F700006D9885E08A95F1F7000000
:1018700008958BE491E00E94450EFFCF0F931F93D4
:10188000CF93DF93082FEB01142F0E94230B87E0E7
:1018900013C06D9895E09A95F1F700006C9895E06B
:1018A0009A95F1F700006C9A749895E09A95F1F783
:1018B0000000000F815029F006FDEBCF6D9A75985E
:1018C000E9CF6D9885E08A95F1F700006C9895E076
:1018D0009A95F1F700006C9A749885E08A95F1F773
:1018E00000006D9895E09A95F1F700006C98659B63
:1018F00005C083E591E00E94450EFFCF85E08A9503
:10190000F1F700006C9A749895E09A95F1F7000051
:101910006D9885E08A95F1F700001123B1F12FEF62
:10192000210F30E02F5F3F4F2C0F3D1F98E0888143
:10193000880F88836C9885E08A95F1F70000659B95
:1019400003C088818160888385E08A95F1F7000073
:101950006C9A749885E08A95F1F70000915039F7F8
:101960006D9A759895E09A95F1F700006C9885E06E
:101970008A95F1F700006C9A749895E09A95F1F7C2
:10198000000021962C173D0789F695E09A95F1F70E
:1019900000006C9885E08A95F1F700006D9895E05D
:1019A0009A95F1F70000DF91CF911F910F91089563
:1019B000CF93DF931F92CDB7DEB7498340E00E94FB
:1019C000640B61E0CE0101960E94F10B0F90DF9154
:1019D000CF9108951F93CF93DF931F92CDB7DEB7BA
:1019E000182F41E00E94640B41E0BE016F5F7F4F02
:1019F000812F0E943E0C89810F90DF91CF911F9122
:101A0000089561E08CE10C94EA0C63E08CE10C94A5
:101A1000EA0C65E08CE10C94EA0C8AE08A95F1F717
:101A200000C0449A8AE08A95F1F700C044988AE0A1
:101A30008A95F1F700C00895F89482B98AE08A95F2
:101A4000F1F700C0449A8AE08A95F1F700C0449803
:101A50008AE08A95F1F700C0789408958F98F894F9
:101A600082B98AE08A95F1F700C0449A8AE08A95A3
:101A7000F1F700C044988AE08A95F1F700C07894A5
:101A800008958F9AF89482B98AE08A95F1F700C098
:101A9000449A8AE08A95F1F700C044988AE08A95D2
:101AA000F1F700C078940895803110F4623008F0A6
:101AB000089590E4699F800D112480588F98F894C0
:101AC00082B98AE08A95F1F700C0449A9AE09A9523
:101AD000F1F700C044988AE08A95F1F700C0789445
:101AE00095EC9A95F1F7000008953C9A879A8FEF4C
:101AF00081B98FE19EE40197F1F700C000008F9853
:101B0000F89488E382B99AE09A95F1F700C0449A74
:101B1000EAE0EA95F1F700C04498FAE0FA95F1F7A7
:101B200000C07894EFE7F2E03197F1F700C00000D1
:101B30008F98F89482B9FAE0FA95F1F700C0449AC8
:101B40009AE09A95F1F700C04498EAE0EA95F1F737
:101B500000C07894EFE7F2E03197F1F700C00000A1
:101B60008F98F89482B9FAE0FA95F1F700C0449A98
:101B70009AE09A95F1F700C04498EAE0EA95F1F707
:101B800000C07894EFE7F2E03197F1F700C0000071
:101B90008F98F89498E092B9FAE0FA95F1F700C0BE
:101BA000449A9AE09A95F1F700C04498EAE0EA95E1
:101BB000F1F700C07894EFE7F2E03197F1F700C059
:101BC00000008F98F89491E092B9FAE0FA95F1F755
:101BD00000C0449A9AE09A95F1F700C04498EAE070
:101BE000EA95F1F700C07894EFE7FEE33197F1F75B
:101BF00000C000008F98F89496E092B9FAE0FA9548
:101C0000F1F700C0449A9AE09A95F1F700C0449821
:101C1000EAE0EA95F1F700C07894EFE7F2E0319757
:101C2000F1F700C000008F98F89482B9FAE0FA95B5
:101C3000F1F700C0449A8AE08A95F1F700C0449811
:101C40009AE09A95F1F700C07894EFE8F1E03197C7
:101C5000F1F700C000008F98F8948CE082B9FAE0A8
:101C6000FA95F1F700C0449A8AE08A95F1F700C02E
:101C700044989AE09A95F1F700C07894EFE8F1E083
:101C80003197F1F700C000000895DC019C91992381
:101C900001F120E08F9AF89492B98AE08A95F1F7E1
:101CA00000C0449A9AE09A95F1F700C044988AE0FF
:101CB0008A95F1F700C078948FE792E00197F1F7E9
:101CC00000C000002F5FFD01E20FF11D9081911116
:101CD000E1CF08951F93CF93DF93FC01892B09F483
:101CE00066C045E011E02FE037E2E9012196CF011F
:101CF000BE010E947F1261111DC02E173F0708F020
:101D000052C01123A9F111E0CF01BE010E947F1240
:101D1000FC01ADECBCEC0E94AD129C013695279500
:101D200036952795369527954150F9F6DF91CF9155
:101D30001F9108952E173F07D8F0605D8F9AF89491
:101D400062B99AE09A95F1F700C0449A8AE08A95C0
:101D5000F1F700C044989AE09A95F1F700C07894A2
:101D60008FE792E00197F1F700C0000010E0D1CFBB
:101D7000605D8F9AF89462B99AE09A95F1F700C085
:101D8000449A8AE08A95F1F700C044989AE09A95BF
:101D9000F1F700C078948FE792E00197F1F700C067
:101DA000000010E0B1CF112341F211E0B2CF8F9AC1
:101DB000F89480E382B98AE08A95F1F700C0449AEA
:101DC0009AE09A95F1F700C044988AE08A95F1F775
:101DD00000C078948FE792E00197F1F700C000000F
:101DE000DF91CF911F9108958F98F89481E082B987
:101DF0008AE08A95F1F700C0449A9AE09A95F1F743
:101E000000C044988AE08A95F1F700C078948FE783
:101E10009EE30197F1F700C0000008955D9A5C9879
:101E20000895262F3FEF81110EC06303C0011124D6
:101E300064E670E00E9493126093B30012169CF463
:101E40005C9A5D9808956303C001112464E670E014
:101E50000E94931267BD12161CF45E9A5F98089553
:101E60005F9A5E9808950C940E0FCF93DF93C3EBA7
:101E7000D0E018820E940E0F17BC5F9A5E9884B162
:101E8000806984B98AB1806F8AB9E0EBF0E0808123
:101E90008866808380818260808384B5886684BD03
:101EA00084B5826084BD8AE087BD8883DF91CF914D
:101EB00008955C9A5D982C9A5F9A5E982F9A08957F
:101EC0001F920F920FB60F9211242F933F934F93AF
:101ED0005F936F937F938F939F93EF93FF93809183
:101EE000CE01409188005091890080FD30C08695D8
:101EF000E82FF0E0EE0FFF1FEB5AFD4F20813181FC
:101F0000240F351F309389002093880048B121E0C9
:101F100030E0B90102C0660F771F8A95E2F7CB0166
:101F2000842B88B98091CE018F5F87708093CE011A
:101F3000FF91EF919F918F917F916F915F914F9161
:101F40003F912F910F900FBE0F901F90189586957F
:101F5000E82FF0E0EE0FFF1FE35BFD4F20813181A2
:101F6000240F351F309389002093880048B121E069
:101F700030E0B90102C0660F771F8A95E2F7CB0106
:101F80008095842388B9CECF90E02AE0629FB0018B
:101F900011246C53764F880F991FFC01EB5AFD4FAB
:101FA00071836083FC01E35BFD4F24ED30E3261B6E
:101FB000370B318320830895A5E5B2E024EC39E0A6
:101FC00011963C932E93EDE4F2E080E197E2918349
:101FD000808313963C932E93129793838283159656
:101FE0003C932E9314979583848317963C932E935A
:101FF00016979783868387B18F6087B9E1E8F0E011
:102000001082808182608083EFE6F0E080818260D0
:102010008083789408958CB18095881F8827881FC5
:102020000895482F50E04E30510510F080E008959B
:10203000FA01E25DFF4F0C94A71223B130E0895002
:10204000A90102C0559547958A95E2F7CA018170AA
:10205000089583B18695817008952CB130E0A9016F
:1020600002C0559547958A95E2F7CA018170089597
:1020700022B330E08F5FA90102C0559547958A953C
:10208000E2F7CA01817008958CB186FB882780F938
:10209000089523B1E3CF26B130E08250A90102C0F8
:1020A000559547958A95E2F7CA018170089583B1E5
:1020B00081700895962F482F50E04E30510540F41E
:1020C000FA01E45CFF4F0C94A712611164C02198DF
:1020D000089544B1895021E030E0B90102C0660F93
:1020E000771F8A95E2F79923F1F1CB01842B84B90C
:1020F00008954DB121E030E0B90102C0660F771FAD
:102100008A95E2F7992309F43FC0CB01842B8DB95E
:10211000089543B38F5F21E030E0B90102C0660F3C
:10212000771F8A95E2F7992329F1CB01842B83BB92
:1021300008956623E9F06E9A089547B1825021E030
:1021400030E0B90102C0660F771F8A95E2F7992344
:10215000B1F0CB01842B87B9089544B1BCCF66237D
:10216000C1F0209A0895CB018095842384B9089505
:102170006E980895CB018095842383BB0895CB018D
:102180008095842387B90895CB01809584238DB9E8
:10219000089520980895219A0895962F482F50E089
:1021A0004E30510540F4FA01E65BFF4F0C94A71244
:1021B000611164C02998089545B1895021E030E04B
:1021C000B90102C0660F771F8A95E2F79923F1F1F2
:1021D000CB01842B85B908954EB121E030E0B901DF
:1021E00002C0660F771F8A95E2F7992309F43FC072
:1021F000CB01842B8EB9089544B38F5F21E030E08A
:10220000B90102C0660F771F8A95E2F7992329F179
:10221000CB01842B84BB08956623E9F0769A089558
:1022200048B1825021E030E0B90102C0660F771F4B
:102230008A95E2F79923B1F0CB01842B88B90895F0
:1022400045B1BCCF6623C1F0289A0895CB01809593
:10225000842385B9089576980895CB0180958423C9
:1022600084BB0895CB018095842388B90895CB0160
:10227000809584238EB9089528980895299A089501
:10228000811104C0613031F0A0980895613021F0CF
:10229000A1980895A09A0895A19A0895882311F00D
:1022A000A19A0895A09A0895882311F0A1980895FD
:1022B000A0980895529A83B3836083BB779A0E9453
:1022C000020B0E94750D0E94DC0F0E94350F41E049
:1022D0006AE28CE10E94D80C2FEF81EE94E021504D
:1022E00080409040E1F700C000000C94420BCF9377
:1022F000DF93CDB7DEB760970FB6F894DEBF0FBEA1
:10230000CDBF412C512C00E010E00230110509F442
:1023100056C003301105D0F10430110509F48AC00C
:1023200008F462C00530110581F78CE391E00E944A
:10233000450E81E00E940D0B982E80E00E940D0B4F
:10234000692D0E94B00829833A834B835C836D8397
:102350007E838F8398870E94870A9EE1692E712C65
:10236000812C912C0BC08FE99FE00197F1F700C001
:10237000000091E0691A710809F44CC00E940B102A
:10238000813089F788248394912CEDCF01151105B4
:1023900009F4A7C00130110509F0B7CF0E94C303AB
:1023A0002FEF8AE693E0215080409040E1F700C093
:1023B000000002E010E00230110509F0AACF80E031
:1023C0000E948B006FE780E00E94C40F0E943703D9
:1023D000EFEFFAE623E0E150F0402040E1F700C0E3
:1023E000000003E010E091CF80E00E948B006FE7D7
:1023F00080E00E94C40F0E94CB042C018FEF9AE66C
:10240000E3E081509040E040E1F700C0000004E0CC
:1024100010E07BCF892809F478CF82E390E0EFE9E0
:10242000FFE03197F1F700C000000197C1F703E02A
:1024300010E06BCF0E94F40E60E080E00E94540D2B
:10244000141415040CF04AC0612C712C6091D00159
:102450008091CF010E94130129873A874B875C87BF
:102460006D877E878F87988B6091D0018091CF0197
:102470000E94B00829833A834B835C836D837E83FB
:102480008F8398878090CF01912C8091D0011F92EB
:102490008F93A980BA80CB80DC80ED80FE800F8195
:1024A000188529853A854B855C856D857E858F8568
:1024B00098890E9452050F900F9080ED97E0EFE908
:1024C000FFE03197F1F700C000000197C1F7FFEF7F
:1024D0006F1A7F0A6414750409F0B8CF05E010E0A4
:1024E00014CF0E945A110E94EE0180E00E948B00DE
:1024F0006FE780E00E94C40F01E010E006CFAA1B46
:10250000BB1B51E107C0AA1FBB1FA617B70710F0DE
:10251000A61BB70B881F991F5A95A9F78095909510
:10252000BC01CD01089597FB072E16F4009407D047
:1025300077FD09D00E947F1207FC05D03EF49095EC
:1025400081959F4F0895709561957F4F0895EE0F87
:10255000FF1F0590F491E02D0994A29FB001B39F55
:10256000C001A39F700D811D1124911DB29F700D9C
:10257000811D1124911D08955058BB27AA270E9440
:10258000D4120C9486140E94781438F00E947F14A0
:1025900020F039F49F3F19F426F40C944E140EF4F5
:1025A000E095E7FB0C944814E92F0E94971458F328
:1025B000BA17620773078407950720F079F4A6F528
:1025C0000C94B9140EF4E0950B2EBA2FA02D0B012C
:1025D000B90190010C01CA01A0011124FF27591B68
:1025E00099F0593F50F4503E68F11A16F040A22F6E
:1025F000232F342F4427585FF3CF469537952795DF
:10260000A795F0405395C9F77EF41F16BA0B620BDD
:10261000730B840BBAF09150A1F0FF0FBB1F661F24
:10262000771F881FC2F70EC0BA0F621F731F841F67
:1026300048F4879577956795B795F7959E3F08F08D
:10264000B0CF9395880F08F09927EE0F979587954F
:1026500008950E943D130C9486140E947F1458F034
:102660000E94781440F029F45F3F29F00C9448143C
:1026700051110C94BA140C944E140E94971468F3E0
:102680009923B1F3552391F3951B550BBB27AA272B
:1026900062177307840738F09F5F5F4F220F331F65
:1026A000441FAA1FA9F335D00E2E3AF0E0E832D02D
:1026B00091505040E695001CCAF72BD0FE2F29D030
:1026C000660F771F881FBB1F261737074807AB0702
:1026D000B0E809F0BB0B802DBF01FF2793585F4F77
:1026E0003AF09E3F510578F00C9448140C94BA14BB
:1026F0005F3FE4F3983ED4F3869577956795B79559
:10270000F7959F5FC9F7880F911D9695879597F963
:102710000895E1E0660F771F881FBB1F62177307DC
:102720008407BA0720F0621B730B840BBA0BEE1FF1
:1027300088F7E095089529F416F00C9448140C9449
:10274000B9140C944E140E949F14A8F39638A0F765
:1027500007F80F92E8942BE33AEA48EB5FE70E9410
:102760004C150F920F920F924DB75EB70F920E94C9
:102770000215E0EBF0E00E9451144F915F91EF9150
:10278000FF91E595EE1FFF1F49F0FE57E0684427D3
:10279000EE0F441FFA95E1F74195550B0E94CC14BA
:1027A0000F9007FE0C94C01408950E94DC136894E7
:1027B000B1110C94BA1408950E949F1488F09F5789
:1027C00098F0B92F9927B751B0F0E1F0660F771F55
:1027D000881F991F1AF0BA95C9F714C0B13091F04B
:1027E0000E94B914B1E008950C94B914672F782FA2
:1027F0008827B85F39F0B93FCCF386957795679510
:10280000B395D9F73EF490958095709561957F4F7B
:102810008F4F9F4F0895E89409C097FB3EF4909521
:102820008095709561957F4F8F4F9F4F9923A9F0A9
:10283000F92F96E9BB279395F69587957795679538
:10284000B795F111F8CFFAF4BB0F11F460FF1BC07C
:102850006F5F7F4F8F4F9F4F16C0882311F096E90F
:1028600011C0772321F09EE8872F762F05C06623BD
:1028700071F096E8862F70E060E02AF09A95660F76
:10288000771F881FDAF7880F9695879597F908952F
:1028900097F99F6780E870E060E008959FEF80EC13
:1028A0000895DF93CF931F930F93FF92EF92DF92E0
:1028B0007B018C01689406C0DA2EEF010E94491555
:1028C000FE01E894A5912591359145915591A6F386
:1028D000EF010E94D412FE019701A801DA9469F772
:1028E000DF90EF90FF900F911F91CF91DF910895AE
:1028F00000240A94161617061806090608950024DF
:102900000A9412161306140605060895092E039458
:10291000000C11F4882352F0BB0F40F4BF2B11F4CC
:1029200060FF04C06F5F7F4F8F4F9F4F089557FD2B
:102930009058440F551F59F05F3F71F04795880F2D
:1029400097FB991F61F09F3F79F0879508951216C4
:1029500013061406551FF2CF4695F1DF08C0161670
:1029600017061806991FF1CF869571056105089421
:102970000895E894BB2766277727CB0197F9089538
:102980009B01AC0160E070E080E89FE30C942913A8
:102990000C9448140C94A3150E949F14D8F3992307
:1029A000C9F3940F511DA3F39150504094F059F086
:1029B000882332F0660F771F881F91505040C1F76F
:1029C0009E3F51052CF7880F911D9695879597F995
:1029D00008955F3FACF0983E9CF0BB2786957795B5
:1029E0006795B79508F4B1609395C1F7BB0F58F799
:1029F00011F460FFE8CF6F5F7F4F8F4F9F4FE3CFA2
:102A00000C94BA14FA01DC01AA0FBB1F9B01AC01A4
:102A1000BF5728F4222733274427507820C0B751C6
:102A200090F4AB2F0024469537952795011CA3956C
:102A3000D2F3002071F0220F331F441FB395DAF355
:102A40000ED00C94BC1261307105A0E88A07B9461B
:102A500030F49B01AC016627772788279078309661
:102A600021F0208331834283538308950E944915C6
:102A70000C9486140E94781438F00E947F1420F081
:102A8000952311F00C9448140C944E1411240C94BA
:102A9000BA140E94971470F3959FC1F3950F50E0FC
:102AA000551F629FF001729FBB27F00DB11D639F00
:102AB000AA27F00DB11DAA1F649F6627B00DA11DA6
:102AC000661F829F2227B00DA11D621F739FB00D4C
:102AD000A11D621F839FA00D611D221F749F3327BC
:102AE000A00D611D231F849F600D211D822F762F55
:102AF0006A2F11249F5750409AF0F1F088234AF032
:102B0000EE0FFF1FBB1F661F771F881F915050409D
:102B1000A9F79E3F510580F00C9448140C94BA1408
:102B20005F3FE4F3983ED4F3869577956795B79524
:102B3000F795E7959F5FC1F7FE2B880F911D96953E
:102B4000879597F908959F3F31F0915020F487952C
:102B500077956795B795880F911D9695879597F905
:102B600008958F929F92AF92BF92CF92DF92EF9291
:102B7000FF92CF93DF93EC01688179818A819B81F9
:102B8000611571058105910521F464E279ED8BE50C
:102B900097E02DE133EF41E050E00E940D1649012E
:102BA0005A019B01AC01A7EAB1E40E942C166B010B
:102BB0007C01ACEEB4EFA50194010E943A16DC0151
:102BC000CB018C0D9D1DAE1DBF1DB7FF03C001972E
:102BD000A109B04888839983AA83BB839F77DF913B
:102BE000CF91FF90EF90DF90CF90BF90AF909F90EC
:102BF0008F9008950E94B115089580E091E00E94A1
:102C0000B1150895A0E0B0E0809300019093010118
:102C1000A0930201B09303010895052E97FB1EF4C3
:102C200000940E94241657FD07D00E943F1607FC0F
:102C300003D04EF40C942416509540953095219570
:102C40003F4F4F4F5F4F08959095809570956195D8
:102C50007F4F8F4F9F4F08950E94AD12A59F900DFB
:102C6000B49F900DA49F800D911D11240895B7FF6E
:102C70000C942C160E942C16821B930B0895A1E233
:102C80001A2EAA1BBB1BFD010DC0AA1FBB1FEE1FE6
:102C9000FF1FA217B307E407F50720F0A21BB30B31
:102CA000E40BF50B661F771F881F991F1A9469F7AD
:102CB00060957095809590959B01AC01BD01CF0109
:062CC0000895F894FFCF17
:102CC60001000000446174613A004C0052007669CC
:102CD60063746F727921004C3A2000523A20003C0E
:102CE6003D2D20202B3D3E002020202020202000AE
:102CF6004C206973200052206973200068656C6C53
:102D06006F00616464724E41434B0077725F4E41BF
:0C2D1600434B00726561644E41434B006A
:00000001FF
