:100000000C946C000C9489000C9489000C94890069
:100010000C9489000C9489000C9489000C94540F62
:100020000C9489000C9489000C9489000C9489002C
:100030000C9489000C9489000C9489000C9489001C
:100040000C9489000C9489000C9489000C9489000C
:100050000C9489000C9489000C94890021102110C3
:100060002C102C1038103D103D103F103F103F1049
:100070004B10111011101D106D106D107D107D10A2
:100080008D10A110A110911091109110A3105D106E
:100090005D105910E010E010F010F0100011141174
:1000A00014110411041104111611D010D010CC1029
:1000B00007634236B79BD8A71A39685618AEBAAB51
:1000C000558C1D3CB7CC5763BD6DEDFD753EF617E5
:1000D0007231BF000000803F11241FBECFEFD0E17E
:1000E000DEBFCDBF11E0A0E0B1E0E2E6FCE202C07D
:1000F00005900D92A235B107D9F722E0A2E5B1E053
:1001000001C01D92AD34B207E1F70E946B110C944F
:100110002F160C940000082E000C990B9C01220F46
:10012000331F820F931F6AE070E00E9461126158D2
:1001300081E00C94B80F882361F02DEF6202C001BA
:1001400011246AE070E00E946112615880E00C9412
:10015000B80F862F0C948B00EF92FF920F931F9392
:10016000CF93DF93009701F18C01E12CF12CC0E0DB
:10017000D0E00AC08FE99FE00197F1F700C00000CE
:1001800021960C171D0741F00E94FF0F813091F757
:10019000EE24E394F12CEECFC701DF91CF911F91B4
:1001A0000F91FF90EF90089580E090E0F6CFFB0173
:1001B00038963291229133832283E617F707C9F7E5
:1001C000918380830895FC019C01265F3F4F60E08E
:1001D00070E081919191680F791F2E173F07C9F741
:1001E000072E000C880B990B0E94DB1320E030E0F7
:1001F00040EA50E40E94F712089524E6829FC0016D
:1002000011246FEF70E00E946112862F08952FEF86
:10021000829FC001112464E670E00E946112862F63
:1002200008954F925F926F927F928F929F92AF92BA
:10023000BF92CF92DF92EF92FF920F931F93CF93D3
:10024000DF93C82FD0E0C61BD109E6E5F1E00681B7
:10025000178111870087E480F580F782E68282812A
:100260009381958384832081318133832283D18359
:10027000C0832C0F3D1F820F931FE80EF91EBE0195
:100280000D2E000C880B990B0E94DB132DEC3CEC1F
:100290004CE45EE30E9404152B013C016091540183
:1002A000709155016C0F7D1F072E000C880B990B68
:1002B0000E94DB132DEC3CEC4CE45DE30E94041542
:1002C0004B015C01B701600F711F072E000C880BFA
:1002D000990B0E94DB1320E030E040EA50E40E94DA
:1002E000F7122DEC3CEC4CEC5DE30E9404156B0125
:1002F0007C01D0935501C093540120E030E044E3E9
:1003000052E4C301B2010E948B12A50194010E9424
:100310008B12A70196010E948B120E94A3137727CC
:1003200014E6169FC001179F900D1124CFEFD0E067
:10033000BE010E946112062FA301920160E070E0ED
:1003400084E392E40E948A12A50194010E948A1219
:10035000A70196010E948A120E94A3137727169F75
:10036000C001179F900D1124BE010E946112962FAB
:10037000802FDF91CF911F910F91FF90EF90DF9031
:10038000CF90BF90AF909F908F907F906F905F9035
:100390004F9008950F931F93CF93DF930E94CB1537
:1003A00005EE11E0CFEFDFE7BE010E946112072EDC
:1003B000000C880B990B0E94DB13F801608371839A
:1003C000828393830E94CB15BE010E946112072E87
:1003D000000C880B990B0E94DB13F8016483758372
:1003E000868397830E94CB15BE010E946112072E5F
:1003F000000C880B990B0E94DB13F801648775874A
:10040000868797870E94CB15BE010E946112072E36
:10041000000C880B990B0E94DB13F801608B718B29
:10042000828B938B0E94CB15BE010E946112072E16
:10043000000C880B990B0E94DB13F801648B758B01
:10044000868B978B0E94CB15BE010E946112072EEE
:10045000000C880B990B0E94DB13F801648F758FD9
:10046000868F978F0E94CB15BE010E946112072EC6
:10047000000C880B990B0E94DB13F80160A371A399
:1004800082A393A30E94CB15BE010E946112072E86
:10049000000C880B990B0E94DB13F80164A375A371
:1004A00086A397A30E94CB15BE010E946112072E5E
:1004B000000C880B990B0E94DB13F80164A775A749
:1004C00086A797A70E94CB15BE010E946112072E36
:1004D000000C880B990B0E94DB13F80160AB71AB29
:1004E00082AB93AB0E94CB15BE010E946112072E16
:1004F000000C880B990B0E94DB13F80164AB75AB01
:1005000086AB97AB0E94CB15BE010E946112072EED
:10051000000C880B990B0E94DB13F80160AF71AFE0
:1005200082AF93AF0E94CB15BE010E946112072ECD
:10053000000C880B990B0E94DB13F80164AF75AFB8
:1005400086AF97AF0E94CB15BE010E946112072EA5
:10055000000C880B990B0E94DB13609325027093AB
:10056000260280932702909328020E94CB15BE0199
:100570000E946112072E000C880B990B0E94DB135E
:100580006093290270932A0280932B0290932C028D
:100590000E94CB15BE010E946112072E000C880B31
:1005A000990B0E94DB1360932D0270932E028093AF
:1005B0002F02909330020E94CB15BE010E9461125F
:1005C000072E000C880B990B0E94DB1360933102FD
:1005D000709332028093330290933402DF91CF9173
:1005E0001F910F9108950F931F93CF93DF93109254
:1005F00053011092520180E00E94010BD82F81E03C
:100600000E94010BC82FE0915201F0915301EE0FAF
:10061000FF1FEF59FE4FD083C1830E94E80E60E0B8
:1006200080E00E94480D84E091E00E94390E8091A4
:100630005201909153010E945E0E8BE291E00E9464
:10064000390E61E080E00E94480D8AE091E00E944E
:10065000390E8D2F90E00E945E0E61E084E00E94D2
:10066000480D8CE091E00E94390E8C2F90E00E94A2
:100670005E0EC1E0D0E000E010E00E94FF0F81308C
:1006800079F08FE99FE00197F1F700C00000CC32CC
:1006900091E0D90799F021960E94FF0F813089F7E8
:1006A0008FE99FE00197F1F700C00000CC3291E0A4
:1006B000D90791F001E010E02196EECF012B61F413
:1006C0008091520190915301019690935301809330
:1006D0005201C2970CF48FCF0E94E80E60E080E0D8
:1006E0000E94480D8EE091E0DF91CF911F910F9114
:1006F0000C94390E2F923F924F925F926F927F929D
:100700008F929F92AF92BF92CF92DF92EF92FF9221
:100710000F931F93CF93DF93CDB7DEB72C970FB610
:10072000F894DEBF0FBECDBFFE0131968AE0DF0137
:100730001D928A95E9F7C12CD12C8AE0282E312C04
:10074000B3C00E94010B082F81E00E94010B10E052
:10075000081B1109AF80B884BA86A986ED80FE8097
:10076000F886EF828B819C819E838D8329813A81DB
:100770003C832B831A830983200F311F820F931F21
:100780004C018E0C9F1CB801012E000C880B990B9C
:100790000E94DB132DEC3CEC4CE45EE30E9404155C
:1007A0002B013C01B601600F711F072E000C880B56
:1007B000990B0E94DB132DEC3CEC4CE45DE30E94B2
:1007C00004156B017C01B501680D791D072E000C25
:1007D000880B990B0E94DB1320E030E040EA50E4E4
:1007E0000E94F7122DEC3CEC4CEC5DE30E940415EA
:1007F0004B015C0120E030E040EF51E4C301B20165
:100800000E948B12A70196010E948B12A5019401F0
:100810000E948B120E94A3136B877C87A301920115
:1008200060E070E080EF91E40E948A12A7019601D7
:100830000E948A12A50194010E948A120E94A313A9
:10084000D62EC72E8B850E948B00BD2D2DEFB202B8
:10085000C0011124B1010E946112615880E00E9420
:10086000B80F0E94E80E60E080E00E94480D87E12A
:1008700091E00E94390E8B859C850E945E0E8BE272
:1008800091E00E94390E61E080E00E94480D8BE10A
:1008900091E00E94390E8D2D9C2D0E945E0E8BE200
:1008A00091E00E94390E68010E94FF0F882309F42D
:1008B00048CF2C960FB6F894DEBF0FBECDBFDF91A8
:1008C000CF911F910F91FF90EF90DF90CF90BF904D
:1008D000AF909F908F907F906F905F904F903F90E0
:1008E0002F900895009769F020E030E0EFE9FFE0F5
:1008F0003197F1F700C000002F5F3F4F8217930739
:10090000A9F70895EF92FF920F931F93CF93DF9370
:100910000E94E80E60E080E00E94480D8FE191E0C7
:100920000E94390EE12CF12C0E94F90C8F3108F055
:1009300067C00E94F90C893C08F059C00E94F50C70
:10094000893C08F04BC00E94F50C8531D8F5F7FCC6
:1009500042C061E080E00E94480DC7010E945E0E27
:1009600088E291E00E94390EC1E0D0E000E010E0A2
:100970000E94FF0F813071F08FE99FE00197F1F73E
:1009800000C00000C233D10591F021960E94FF0FF4
:10099000813091F78FE99FE00197F1F700C00000E7
:1009A000C233D10539F001E010E02196EFCF012BE1
:1009B00009F4BACFC701DF91CF911F910F91FF903A
:1009C000EF9008950E94F50C863408F69AE0E90E3F
:1009D000F11CF7FEBECFE12CF12CBBCF0E94F50C31
:1009E000863E08F0B0CF8AE0E81AF108ACCF0E944A
:1009F000F90C8A3F08F0A2CF9FEFE91AF90A9ECFBF
:100A00000E94F90C863408F094CF81E0E81AF108CE
:100A100090CF2F923F924F925F926F927F928F92E0
:100A20009F92AF92BF92CF92DF92EF92FF920F937D
:100A30001F93CF93DF93CDB7DEB7C054D1090FB664
:100A4000F894DEBF0FBECDBFF92EE72E5A01490143
:100A500070E09B01281B310901E010E0A801461B52
:100A6000570B469FC001479F900D569F900D112434
:100A7000289FB001299F700D389F700D1124072EFB
:100A8000000C880B990B0E94DB1369837A838B839C
:100A90009C838091150290911602A0911702B0914B
:100AA00018028D8B9E8BAF8BB88F8E2D90E09C01A2
:100AB0002F193109B801681B790B689FA001699F44
:100AC000500D789F500D1124249FB001259F700D6B
:100AD000349F700D1124072E000C880B990B0E9477
:100AE000DB136D837E838F83988785E2282E82E0D7
:100AF000382ED1018D919D910D90BC91A02D898FA3
:100B00009A8FAB8FBC8F8091390290913A02A0915D
:100B10003B02B0913C0289879A87AB87BC872D89BD
:100B20003E894F89588D69817A818B819C810E9491
:100B300004156B017C01298D3A8D4B8D5C8D6D8187
:100B40007E818F8198850E9404159B01AC01C701AD
:100B5000B6010E948B126B017C0129853A854B8579
:100B60005C8560E070E080E89FE30E948A1229853E
:100B70003A854B855C850E9404159B01AC01C70139
:100B8000B6010E940415698B7A8B8B8B9C8BB50107
:100B9000BB0C880B990B0E94DB136D877E878F87B8
:100BA000988BB401990C880B990B0E94DB136B0195
:100BB0007C019B01AC0169897A898B899C890E949F
:100BC000041521EE3AE744E15EE30E9404159B011F
:100BD000AC016091E9017091EA018091EB01909183
:100BE000EC010E948A120E94A3136DA37EA38FA31F
:100BF00098A721EE3AE744E15EE369897A898B8917
:100C00009C890E9404152091F1013091F2014091DC
:100C1000F3015091F4010E948B120E94A31369A763
:100C20007AA78BA79CA78090C5019090C601A09041
:100C3000C701B090C8012091190230911A02409169
:100C40001B0250911C0269817A818B819C810E94D8
:100C500004152B013C0109E212E0D8012D913D91D0
:100C60004D915C916D817E818F8198850E940415E4
:100C70009B01AC01C301B2010E948B122B013C010C
:100C8000A501940160E070E080E89FE30E948A1271
:100C9000A50194010E9404159B01AC01C301B2019E
:100CA0000E9404154B015C019B01AC016D857E85A2
:100CB0008F8598890E94041521EE3AE744E15EE3AE
:100CC0000E9404159B01AC016091F5017091F60141
:100CD0008091F7019091F8010E948A120E94A3135B
:100CE0006DA77EA78FA798ABA5019401C701B60198
:100CF0000E94041521EE3AE744E15EE30E940415E8
:100D00009B01AC016091F9017091FA018091FB01A6
:100D10009091FC010E948A120E94A31369AB7AABE6
:100D20008BAB9CAB21EE3AE744E15EE3C501B40135
:100D30000E940415209101023091020240910302A9
:100D4000509104020E948B120E94A3136DAB7EABE4
:100D50008FAB98AF80911D0290911E02A0911F024F
:100D6000B09120028D8F9E8FAF8FB8A380912D02FE
:100D700090912E02A0912F02B091300289A39AA3E4
:100D8000ABA3BCA34090E1015090E2016090E3016D
:100D90007090E4012D8D3E8D4F8D58A169817A812F
:100DA0008B819C810E9404154B015C0129A13AA111
:100DB0004BA15CA16D817E818F8198850E94041575
:100DC0009B01AC01C501B4010E948B124B015C0177
:100DD000A301920160E070E080E89FE30E948A1224
:100DE000A30192010E9404159B01AC01C501B4014D
:100DF0000E9404154B015C019B01AC016D857E8551
:100E00008F8598890E94041521EE3AE744E15EE35C
:100E10000E9404159B01AC016091050270910602CD
:100E200080910702909108020E948A120E94A313E7
:100E300069AF7AAF8BAF9CAFA5019401C701B60132
:100E40000E94041521EE3AE744E15EE30E94041596
:100E50009B01AC016091090270910A0280910B0222
:100E600090910C020E948A120E94A31321966CAFEB
:100E70007DAF8EAF9FAF219721EE3AE744E15EE36D
:100E8000C501B4010E940415209111023091120293
:100E900040911302509114020E948B120E94A313DE
:100EA0006B017C012D853E854F85588969897A893A
:100EB0008B899C890E94041521EE3AE744E15EE3A8
:100EC0000E9404159B01AC01A5EEB1E06D917D91EE
:100ED0008D919C910E948A120E94A313072E000CF0
:100EE000880B990B0E94DB13E5EEF1E060837183C0
:100EF000828393832DA13EA1B901330F880B990BF7
:100F00000E94DB136093E9017093EA018093EB0187
:100F10009093EC01A9A5BAA5BD01BB0F880B990B55
:100F20000E94DB136093F1017093F2018093F3014F
:100F30009093F401EDA5FEA5BF01FF0F880B990B5F
:100F40000E94DB136093F5017093F6018093F70123
:100F50009093F80129A93AA9B901330F880B990B8D
:100F60000E94DB136093F9017093FA018093FB01F7
:100F70009093FC01ADA9BEA9BD01BB0F880B990BD5
:100F80000E94DB13609301027093020280930302BC
:100F900090930402E9ADFAADBF01FF0F880B990BE6
:100FA0000E94DB1360930502709306028093070290
:100FB000909308022DAD3EADB901330F880B990B0C
:100FC0000E94DB136093090270930A0280930B0264
:100FD00090930C02B601DD0C880B990B0E94DB1379
:100FE0006093110270931202809313029093140283
:100FF00029853A854B855C8569817A818B819C81C5
:101000000E94041521EE3AE744E15EE30E940415D4
:101010009B01AC016D897E898F89988D0E948A120F
:101020000E94A313072E000C880B990B0E94DB1360
:101030006093150270931602809317029093180222
:10104000A301920169817A818B819C810E940415A0
:1010500021EE3AE744E15EE30E9404159B01AC01F6
:101060006D8D7E8D8F8D98A10E948A120E94A31390
:10107000072E000C880B990B0E94DB13609319025A
:1010800070931A0280931B0290931C02C12CD12CE6
:1010900090E8E92E9FEBF92EC0922102D092220215
:1010A000E0922302F092240229853A854B855C85E3
:1010B0006D817E818F8198850E94041521EE3AE72B
:1010C00044E15EE30E9404159B01AC01698D7A8DB9
:1010D0008B8D9C8D0E948A120E94A313072E000CF8
:1010E000880B990B0E94DB13D1016D937D938D9337
:1010F0009C931397A30192016D817E818F819885C6
:101100000E94041521EE3AE744E15EE30E940415D3
:101110009B01AC0169A17AA18BA19CA10E948A12BA
:101120000E94A313072E000C880B990B0E94DB135F
:10113000F8016083718382839383C0923102D092DD
:101140003202E0923302F0923402C05CDF4F0FB6FD
:10115000F894DEBF0FBECDBFDF91CF911F910F91ED
:10116000FF90EF90DF90CF90BF90AF909F908F90C7
:101170007F906F905F904F903F902F9008954F9287
:101180005F926F927F928F929F92AF92BF92CF9217
:10119000DF92EF92FF92CF93DF93CDB7DEB7289720
:1011A0000FB6F894DEBF0FBECDBF6983682F70E025
:1011B00080E090E00E94DB134B015C012981622FEB
:1011C00070E080E090E00E94DB136B017C012091D5
:1011D000F5013091F6014091F7015091F801C501F8
:1011E000B4010E9404152B013C012091F9013091BA
:1011F000FA014091FB015091FC01C701B6010E9428
:1012000004159B01AC01C301B2010E948B12209115
:1012100001023091020240910302509104020E94A7
:101220008A1269837A838B839C8320910502309193
:1012300006024091070250910802C501B4010E94C4
:1012400004152B013C012091090230910A024091C2
:101250000B0250910C02C701B6010E9404159B01BC
:10126000AC01C301B2010E948B1220911102309196
:10127000120240911302509114020E948A126D834F
:101280007E838F839887E5EEF1E020813181428172
:101290005381C501B4010E9404154B015C012091EA
:1012A000E9013091EA014091EB015091EC01C70155
:1012B000B6010E9404159B01AC01C501B4010E9456
:1012C0008B122091F1013091F2014091F301509184
:1012D000F4010E948A1290580E94711320E030E0BD
:1012E00040E85FE30E948B129B01AC0160E070E07C
:1012F00080E89FE30E94F7122B013C0160933902C2
:1013000070933A0280933B0290933C0269817A8108
:101310008B819C8190580E94711320E030E040E85E
:101320005FE30E948B129B01AC0160E070E080E8FB
:101330009FE30E94F7124B015C016093C50170931B
:10134000C6018093C7019093C8016D817E818F8112
:10135000988590580E94711320E030E040E85FE3E8
:101360000E948B129B01AC0160E070E080E89FE37B
:101370000E94F7126B017C016093E1017093E2011E
:101380008093E3019093E40120912502309126029D
:101390004091270250912802C301B2010E94041516
:1013A00069837A838B839C832091290230912A025E
:1013B00040912B0250912C02C501B4010E940415EA
:1013C0009B01AC0169817A818B819C810E948B1287
:1013D00069837A838B839C8320912D0230912E0226
:1013E00040912F0250913002C701B6010E940415AE
:1013F0009B01AC0169817A818B819C810E948B1257
:1014000020913102309132024091330250913402E6
:101410000E948A1269837A838B839C8320911502B0
:10142000309116024091170250911802C301B20187
:101430000E9404152B013C012091190230911A02DF
:1014400040911B0250911C02C501B4010E94041579
:101450009B01AC01C301B2010E948B124B015C01E4
:1014600020911D0230911E0240911F0250912002D6
:10147000C701B6010E9404159B01AC01C501B4016E
:101480000E948B122091210230912202409123026E
:10149000509124020E948A1290580E94711320E0F9
:1014A00030E040E85FE30E948B129B01AC0160E0FA
:1014B00070E080E89FE30E94F7126B017C0160936B
:1014C000DD017093DE018093DF019093E00169817B
:1014D0007A818B819C8190580E94711320E030E0CA
:1014E00040E85FE30E948B129B01AC0160E070E07A
:1014F00080E89FE30E94F7124B015C016093D901E1
:101500007093DA018093DB019093DC01C701B6018F
:101510000E94AA136983C501B4010E94AA13962FE1
:10152000898128960FB6F894DEBF0FBECDBFDF913C
:10153000CF91FF90EF90DF90CF90BF90AF909F90B2
:101540008F907F906F905F904F900895EF92FF92F1
:101550000F931F93CF93DF93D82FC92F60E080E0C4
:101560000E94480D8AE091E00E94390E2FEFD29F31
:10157000C001112424E6E22EF12CB7010E94611271
:101580008B01CB0199270E945E0E8AE291E00E94B6
:10159000390E61E080E00E94480D8CE091E00E94ED
:1015A000390E3FEFC39FC0011124B7010E946112A1
:1015B000EB01CB0199270E945E0E8AE291E00E9426
:1015C000390E802F0E948B003DEFC302C001112411
:1015D0006AE070E00E946112615880E0DF91CF9173
:1015E0001F910F91FF90EF900C94B80FEAE7F0E095
:1015F000808187688083ECE7F0E08081806680836B
:10160000089590917C00987F90937C0090917C004D
:10161000892B80937C0080917A00806480937A008B
:1016200080917A0086FDFCCF8091790008958DB17C
:101630008F7C8DB985E08A95F1F700006D9A7598D9
:1016400085E08A95F1F700006C9A749885E08A9598
:10165000F1F7000008956C9885E08A95F1F7000095
:101660006D9885E08A95F1F7000008956D9885E002
:101670008A95F1F7000065990DC06C9885E08A9510
:10168000F1F700006C9A749885E08A95F1F70000F4
:10169000659BF3CF6C9808956C9885E08A95F1F777
:1016A00000006C9A749885E08A95F1F7000008951F
:1016B0001F93CF93DF93D82FC62F142F0E94360B82
:1016C0000E94170B87E013C06D9895E09A95F1F78B
:1016D00000006C9895E09A95F1F700006C9A749868
:1016E00095E09A95F1F70000DD0F815029F0D6FDC5
:1016F000EBCF6D9A7598E9CF6D9A759885E08A95CC
:10170000F1F700006C9895E09A95F1F700006C9A5B
:10171000749885E08A95F1F700006D9895E09A95A8
:10172000F1F700006C98659B05C088E391E00E948A
:10173000390EFFCF85E08A95F1F700006C9A749816
:1017400095E09A95F1F7000088E014C06D9A7598BD
:1017500095E09A95F1F700006C9895E09A95F1F76D
:1017600000006C9A749895E09A95F1F70000CC0F00
:10177000815021F0C7FFEACF6D98EACF6D9885E0E0
:101780008A95F1F700006C98659B05C084E491E0B0
:101790000E94390EFFCF95E09A95F1F700006C9A00
:1017A000749885E08A95F1F70000112351F06C9848
:1017B00095E09A95F1F700006D9885E08A95F1F72C
:1017C0000000DF91CF911F910895FC016623D1F1B4
:1017D0004FEF460F50E04F5F5F4F480F591F90810A
:1017E00028E016C06D9A759885E08A95F1F700009B
:1017F0006C9885E08A95F1F700006C9A749885E002
:101800008A95F1F700009081990F9083215021F083
:1018100097FFE8CF6D98E8CF31966D9885E08A956F
:10182000F1F700006C98659918C085E08A95F1F78A
:1018300000006C9A749885E08A95F1F70000E4172F
:10184000F50769F66C9885E08A95F1F700006D98C8
:1018500085E08A95F1F70000089581E491E00E9407
:10186000390EFFCF0F931F93CF93DF93082FEB0118
:10187000142F0E94170B87E013C06D9895E09A957E
:10188000F1F700006C9895E09A95F1F700006C9ADA
:10189000749895E09A95F1F70000000F815029F0B7
:1018A00006FDEBCF6D9A7598E9CF6D9885E08A9526
:1018B000F1F700006C9895E09A95F1F700006C9AAA
:1018C000749885E08A95F1F700006D9895E09A95F7
:1018D000F1F700006C98659B05C089E491E00E94D7
:1018E000390EFFCF85E08A95F1F700006C9A749865
:1018F00095E09A95F1F700006D9885E08A95F1F7EB
:1019000000001123B1F12FEF210F30E02F5F3F4F87
:101910002C0F3D1F98E08881880F88836C9885E0A4
:101920008A95F1F70000659B03C0888181608883F8
:1019300085E08A95F1F700006C9A749885E08A95A5
:10194000F1F70000915039F76D9A759895E09A95E6
:10195000F1F700006C9885E08A95F1F700006C9A29
:10196000749895E09A95F1F7000021962C173D07A1
:1019700089F695E09A95F1F700006C9885E08A95D4
:10198000F1F700006D9895E09A95F1F70000DF916E
:10199000CF911F910F910895CF93DF931F92CDB7F1
:1019A000DEB7498340E00E94580B61E0CE0101960A
:1019B0000E94E50B0F90DF91CF9108951F93CF9375
:1019C000DF931F92CDB7DEB7182F41E00E94580B6E
:1019D00041E0BE016F5F7F4F812F0E94320C8981F1
:1019E0000F90DF91CF911F91089561E08CE10C94ED
:1019F000DE0C63E08CE10C94DE0C65E08CE10C9471
:101A0000DE0C8AE08A95F1F700C0449A8AE08A9554
:101A1000F1F700C044988AE08A95F1F700C0089574
:101A2000F89482B98AE08A95F1F700C0449A8AE076
:101A30008A95F1F700C044988AE08A95F1F700C0D2
:101A4000789408958F98F89482B98AE08A95F1F78E
:101A500000C0449A8AE08A95F1F700C044988AE071
:101A60008A95F1F700C0789408958F9AF89482B916
:101A70008AE08A95F1F700C0449A8AE08A95F1F7E6
:101A800000C044988AE08A95F1F700C078940895E0
:101A9000803110F4623008F0089590E4699F800D61
:101AA000112480588F98F89482B98AE08A95F1F7CA
:101AB00000C0449A9AE09A95F1F700C044988AE0F1
:101AC0008A95F1F700C0789495EC9A95F1F70000AB
:101AD00008953C9A879A8FEF81B98FE19EE4019730
:101AE000F1F700C000008F98F89488E382B99AE07B
:101AF0009A95F1F700C0449AEAE0EA95F1F700C040
:101B00004498FAE0FA95F1F700C07894EFE7F2E034
:101B10003197F1F700C000008F98F89482B9FAE08D
:101B2000FA95F1F700C0449A9AE09A95F1F700C04F
:101B30004498EAE0EA95F1F700C07894EFE7F2E024
:101B40003197F1F700C000008F98F89482B9FAE05D
:101B5000FA95F1F700C0449A9AE09A95F1F700C01F
:101B60004498EAE0EA95F1F700C07894EFE7F2E0F4
:101B70003197F1F700C000008F98F89498E092B97F
:101B8000FAE0FA95F1F700C0449A9AE09A95F1F7D5
:101B900000C04498EAE0EA95F1F700C07894EFE7D6
:101BA000F2E03197F1F700C000008F98F89491E0CF
:101BB00092B9FAE0FA95F1F700C0449A9AE09A9542
:101BC000F1F700C04498EAE0EA95F1F700C0789494
:101BD000EFE7FEE33197F1F700C000008F98F8942B
:101BE00096E092B9FAE0FA95F1F700C0449A9AE0CB
:101BF0009A95F1F700C04498EAE0EA95F1F700C041
:101C00007894EFE7F2E03197F1F700C000008F9889
:101C1000F89482B9FAE0FA95F1F700C0449A8AE0A4
:101C20008A95F1F700C044989AE09A95F1F700C0C0
:101C30007894EFE8F1E03197F1F700C000008F9859
:101C4000F8948CE082B9FAE0FA95F1F700C0449A72
:101C50008AE08A95F1F700C044989AE09A95F1F7E6
:101C600000C07894EFE8F1E03197F1F700C0000090
:101C70000895DC019C91992301F120E08F9AF8945A
:101C800092B98AE08A95F1F700C0449A9AE09A9551
:101C9000F1F700C044988AE08A95F1F700C0789483
:101CA0008FE792E00197F1F700C000002F5FFD0180
:101CB000E20FF11D90819111E1CF08951F93CF9311
:101CC000DF93FC01892B09F466C045E011E02FE0A9
:101CD00037E2E9012196CF01BE010E944D12611148
:101CE0001DC02E173F0708F052C01123A9F111E0C3
:101CF000CF01BE010E944D12FC01ADECBCEC0E9474
:101D00007B129C0136952795369527953695279514
:101D10004150F9F6DF91CF911F9108952E173F079B
:101D2000D8F0605D8F9AF89462B99AE09A95F1F7CD
:101D300000C0449A8AE08A95F1F700C044989AE07E
:101D40009A95F1F700C078948FE792E00197F1F748
:101D500000C0000010E0D1CF605D8F9AF89462B9A6
:101D60009AE09A95F1F700C0449A8AE08A95F1F7D3
:101D700000C044989AE09A95F1F700C078948FE7F4
:101D800092E00197F1F700C0000010E0B1CF1123FD
:101D900041F211E0B2CF8F9AF89480E382B98AE0E1
:101DA0008A95F1F700C0449A9AE09A95F1F700C03D
:101DB00044988AE08A95F1F700C078948FE792E022
:101DC0000197F1F700C00000DF91CF911F910895B6
:101DD0008F98F89481E082B98AE08A95F1F700C083
:101DE000449A9AE09A95F1F700C044988AE08A955F
:101DF000F1F700C078948FE79EE30197F1F700C0F8
:101E0000000008955D9A5C980895262F3FEF811198
:101E10000EC06303C001112464E670E00E946112E9
:101E20006093B30012169CF45C9A5D980895630366
:101E3000C001112464E670E00E94611267BD1216B1
:101E40001CF45E9A5F9808955F9A5E9808950C94CA
:101E5000020FCF93DF93C3EBD0E018820E94020FF2
:101E600017BC5F9A5E9884B1806984B98AB1806F2B
:101E70008AB9E0EBF0E080818866808380818260AF
:101E8000808384B5886684BD84B5826084BD8AE021
:101E900087BD8883DF91CF9108955C9A5D982C9AD5
:101EA0005F9A5E982F9A08951F920F920FB60F9225
:101EB00011242F933F934F935F936F937F938F934F
:101EC0009F93EF93FF938091600140918800509120
:101ED000890080FD30C08695E82FF0E0EE0FFF1FEF
:101EE000EB5BFD4F20813181240F351F309389003A
:101EF0002093880048B121E030E0B90102C0660FAC
:101F0000771F8A95E2F7CB01842B88B98091600115
:101F10008F5F877080936001FF91EF919F918F9108
:101F20007F916F915F914F913F912F910F900FBED5
:101F30000F901F9018958695E82FF0E0EE0FFF1F89
:101F4000E35CFD4F20813181240F351F30938900E0
:101F50002093880048B121E030E0B90102C0660F4B
:101F6000771F8A95E2F7CB018095842388B9CECF7D
:101F700090E02AE0629FB00111246C53764F880FE5
:101F8000991FFC01EB5BFD4F71836083FC01E35CF7
:101F9000FD4F24ED30E3261B370B3183208308955A
:101FA000A5E4B2E024EC39E011963C932E93EDE3E6
:101FB000F2E080E197E29183808313963C932E9325
:101FC00012979383828315963C932E93149795834F
:101FD000848317963C932E9316979783868387B1B5
:101FE0008F6087B9E1E8F0E01082808182608083B1
:101FF000EFE6F0E0808182608083789408958CB170
:102000008095881F8827881F0895482F50E04E30FC
:10201000510510F080E00895FA01E25DFF4F0C9445
:10202000751223B130E08950A90102C0559547953A
:102030008A95E2F7CA018170089583B1869581700F
:1020400008952CB130E0A90102C0559547958A95B5
:10205000E2F7CA018170089522B330E08F5FA901D1
:1020600002C0559547958A95E2F7CA018170089597
:102070008CB186FB882780F9089523B1E3CF26B180
:1020800030E08250A90102C0559547958A95E2F744
:10209000CA018170089583B181700895962F482FE9
:1020A00050E04E30510540F4FA01E45CFF4F0C94CF
:1020B0007512611164C02198089544B1895021E0DE
:1020C00030E0B90102C0660F771F8A95E2F79923C5
:1020D000F1F1CB01842B84B908954DB121E030E0BA
:1020E000B90102C0660F771F8A95E2F7992309F4B8
:1020F0003FC0CB01842B8DB9089543B38F5F21E09E
:1021000030E0B90102C0660F771F8A95E2F7992384
:1021100029F1CB01842B83BB08956623E9F06E9AE5
:10212000089547B1825021E030E0B90102C0660F46
:10213000771F8A95E2F79923B1F0CB01842B87B9F9
:10214000089544B1BCCF6623C1F0209A0895CB0115
:102150008095842384B908956E980895CB01809565
:10216000842383BB0895CB018095842387B9089588
:10217000CB01809584238DB9089520980895219AE4
:102180000895962F482F50E04E30510540F4FA0143
:10219000E65BFF4F0C947512611164C02998089595
:1021A00045B1895021E030E0B90102C0660F771FC8
:1021B0008A95E2F79923F1F1CB01842B85B9089533
:1021C0004EB121E030E0B90102C0660F771F8A9559
:1021D000E2F7992309F43FC0CB01842B8EB908950F
:1021E00044B38F5F21E030E0B90102C0660F771F72
:1021F0008A95E2F7992329F1CB01842B84BB0895BA
:102200006623E9F0769A089548B1825021E030E0E3
:10221000B90102C0660F771F8A95E2F79923B1F0E2
:10222000CB01842B88B9089545B1BCCF6623C1F09A
:10223000289A0895CB018095842385B908957698CE
:102240000895CB018095842384BB0895CB018095AC
:10225000842388B90895CB01809584238EB908958D
:1022600028980895299A0895811104C0613031F0A9
:10227000A0980895613021F0A1980895A09A08953A
:10228000A19A0895882311F0A19A0895A09A08951B
:10229000882311F0A1980895A0980895529A83B3C5
:1022A000836083BB779A0E94F60A0E94690D0E94A0
:1022B000D00F0E94290F41E06AE28CE10E94CC0C11
:1022C0002FEF81EE94E0215080409040E1F700C074
:1022D00000000C94360BA12CB12C00E010E095EC22
:1022E000E92E91E0F92E0230110509F446C00330C1
:1022F000110558F10430110509F471C008F449C002
:102300000530110581F781E00E94010BC82F80E0A4
:102310000E94010B6C2F0E94BF080E94A60ACEE10A
:10232000D0E0C12CD12C09C08FE99FE00197F1F7D3
:1023300000C00000219709F442C00E94FF0F8130C5
:1023400099F7CC24C394D12CEFCF0115110509F4D2
:1023500096C00130110539F60E947A032FEF86E707
:1023600091E0215080409040E1F700C0000002E081
:1023700010E00230110509F0BACF80E00E948B0016
:102380006FE780E00E94B80F0E94F30203E010E0C4
:10239000AACF80E00E948B006FE780E00E94B80F18
:1023A0000E9482045C01EFEFF6E721E0E150F0408B
:1023B0002040E1F700C0000004E010E094CFCD28F9
:1023C00009F491CF82E390E0EFE9FFE03197F1F774
:1023D00000C000000197C1F703E010E084CF0E9425
:1023E000E80E60E080E00E94480D80E391E00E94EA
:1023F000390E1A141B04A4F5C12CD12CC1E6D1E06E
:10240000698188810E9411018C01698188810E9403
:10241000BF08298130E0488150E0BC01C8010E941A
:1024200009052296EC16FD0659F78AE090E0EFE9DF
:10243000FFE03197F1F700C000000197C1F761E0BC
:1024400080E00E94480DC6010E945E0E8CE291E081
:102450000E94390EFFEFCF1ADF0ACA14DB0471F6AF
:1024600082E390E0EFE9FFE03197F1F700C0000070
:102470000197C1F70E94E80E05E010E034CF0E94FA
:102480004E110E94CA0180E00E948B006FE780E03D
:102490000E94B80F01E010E026CFAA1BBB1B51E140
:1024A00007C0AA1FBB1FA617B70710F0A61BB70BC4
:1024B000881F991F5A95A9F780959095BC01CD0169
:1024C000089597FB072E16F4009407D077FD09D0E6
:1024D0000E944D1207FC05D03EF4909581959F4FC8
:1024E0000895709561957F4F0895EE0FFF1F059039
:1024F000F491E02D0994A29FB001B39FC001A39F66
:10250000700D811D1124911DB29F700D811D11242C
:10251000911D08955058BB27AA270E94A2120C941F
:1025200054140E94461438F00E944D1420F039F4DF
:102530009F3F19F426F40C941C140EF4E095E7FB6D
:102540000C941614E92F0E94651458F3BA17620709
:1025500073078407950720F079F4A6F50C94871487
:102560000EF4E0950B2EBA2FA02D0B01B9019001AE
:102570000C01CA01A0011124FF27591B99F0593FF2
:1025800050F4503E68F11A16F040A22F232F342F3A
:102590004427585FF3CF469537952795A795F04088
:1025A0005395C9F77EF41F16BA0B620B730B840B9D
:1025B000BAF09150A1F0FF0FBB1F661F771F881F55
:1025C000C2F70EC0BA0F621F731F841F48F48795AD
:1025D00077956795B795F7959E3F08F0B0CF93959F
:1025E000880F08F09927EE0F9795879508950E9418
:1025F0000B130C9454140E944D1458F00E9446146E
:1026000040F029F45F3F29F00C94161451110C94FA
:1026100088140C941C140E94651468F39923B1F378
:10262000552391F3951B550BBB27AA2762177307F8
:10263000840738F09F5F5F4F220F331F441FAA1F8C
:10264000A9F335D00E2E3AF0E0E832D09150504048
:10265000E695001CCAF72BD0FE2F29D0660F771FF6
:10266000881FBB1F261737074807AB07B0E809F0DC
:10267000BB0B802DBF01FF2793585F4F3AF09E3F61
:10268000510578F00C9416140C9488145F3FE4F311
:10269000983ED4F3869577956795B795F7959F5FA4
:1026A000C9F7880F911D9695879597F90895E1E0F0
:1026B000660F771F881FBB1F621773078407BA074F
:1026C00020F0621B730B840BBA0BEE1F88F7E095AA
:1026D000089529F416F00C9416140C9487140C9495
:1026E0001C140E946D14A8F39638A0F707F80F92F7
:1026F000E8942BE33AEA48EB5FE70E941A150F9241
:102700000F920F924DB75EB70F920E94D014E0EB7C
:10271000F0E00E941F144F915F91EF91FF91E595BA
:10272000EE1FFF1F49F0FE57E0684427EE0F441FDD
:10273000FA95E1F74195550B0E949A140F9007FE08
:102740000C948E1408950E94AA136894B1110C94ED
:10275000881408950E946D1488F09F5798F0B92F3F
:102760009927B751B0F0E1F0660F771F881F991FC6
:102770001AF0BA95C9F714C0B13091F00E948714CD
:10278000B1E008950C948714672F782F8827B85FDD
:1027900039F0B93FCCF3869577956795B395D9F71E
:1027A0003EF490958095709561957F4F8F4F9F4F28
:1027B0000895E89409C097FB3EF490958095709534
:1027C00061957F4F8F4F9F4F9923A9F0F92F96E97D
:1027D000BB279395F695879577956795B795F111F2
:1027E000F8CFFAF4BB0F11F460FF1BC06F5F7F4F8F
:1027F0008F4F9F4F16C0882311F096E911C07723A1
:1028000021F09EE8872F762F05C0662371F096E8A9
:10281000862F70E060E02AF09A95660F771F881F78
:10282000DAF7880F9695879597F9089597F99F6736
:1028300080E870E060E008959FEF80EC0895DF93FA
:10284000CF931F930F93FF92EF92DF927B018C0146
:10285000689406C0DA2EEF010E941715FE01E89475
:10286000A5912591359145915591A6F3EF010E94CF
:10287000A212FE019701A801DA9469F7DF90EF90A8
:10288000FF900F911F91CF91DF91089500240A943A
:102890001616170618060906089500240A9412163B
:1028A0001306140605060895092E0394000C11F46E
:1028B000882352F0BB0F40F4BF2B11F460FF04C01B
:1028C0006F5F7F4F8F4F9F4F089557FD9058440F74
:1028D000551F59F05F3F71F04795880F97FB991F7F
:1028E00061F09F3F79F0879508951216130614063C
:1028F000551FF2CF4695F1DF08C0161617061806C9
:10290000991FF1CF86957105610508940895E894A3
:10291000BB2766277727CB0197F908959B01AC0168
:1029200060E070E080E89FE30C94F7120C941614BA
:102930000C9471150E946D14D8F39923C9F3940F68
:10294000511DA3F39150504094F059F0882332F078
:10295000660F771F881F91505040C1F79E3F510569
:102960002CF7880F911D9695879597F908955F3FED
:10297000ACF0983E9CF0BB27869577956795B79508
:1029800008F4B1609395C1F7BB0F58F711F460FFDD
:10299000E8CF6F5F7F4F8F4F9F4FE3CF0C9488142A
:1029A000FA01DC01AA0FBB1F9B01AC01BF5728F441
:1029B000222733274427507820C0B75190F4AB2FFB
:1029C0000024469537952795011CA395D2F3002046
:1029D00071F0220F331F441FB395DAF30ED00C941D
:1029E0008A1261307105A0E88A07B94630F49B016C
:1029F000AC016627772788279078309621F02083CE
:102A000031834283538308950E9417150C94541404
:102A10000E94461438F00E944D1420F0952311F0C6
:102A20000C9416140C941C1411240C9488140E94F9
:102A3000651470F3959FC1F3950F50E0551F629F89
:102A4000F001729FBB27F00DB11D639FAA27F00D07
:102A5000B11DAA1F649F6627B00DA11D661F829F2E
:102A60002227B00DA11D621F739FB00DA11D621F13
:102A7000839FA00D611D221F749F3327A00D611D30
:102A8000231F849F600D211D822F762F6A2F112412
:102A90009F5750409AF0F1F088234AF0EE0FFF1F45
:102AA000BB1F661F771F881F91505040A9F79E3F9C
:102AB000510580F00C9416140C9488145F3FE4F3D5
:102AC000983ED4F3869577956795B795F795E795F2
:102AD0009F5FC1F7FE2B880F911D9695879597F9FB
:102AE00008959F3F31F0915020F487957795679531
:102AF000B795880F911D9695879597F908958F92B0
:102B00009F92AF92BF92CF92DF92EF92FF92CF93BC
:102B1000DF93EC01688179818A819B816115710560
:102B20008105910521F464E279ED8BE597E02DE1D3
:102B300033EF41E050E00E94DB1549015A019B014F
:102B4000AC01A7EAB1E40E94FA156B017C01ACEE7E
:102B5000B4EFA50194010E940816DC01CB018C0D95
:102B60009D1DAE1DBF1DB7FF03C00197A109B04851
:102B700088839983AA83BB839F77DF91CF91FF904E
:102B8000EF90DF90CF90BF90AF909F908F9008957F
:102B90000E947F15089580E091E00E947F150895BE
:102BA000A0E0B0E08093000190930101A0930201A6
:102BB000B09303010895052E97FB1EF400940E9424
:102BC000F21557FD07D00E940D1607FC03D04EF4F6
:102BD0000C94F21550954095309521953F4F4F4FED
:102BE0005F4F089590958095709561957F4F8F4FB9
:102BF0009F4F08950E947B12A59F900DB49F900D4A
:102C0000A49F800D911D11240895B7FF0C94FA150F
:102C10000E94FA15821B930B0895A1E21A2EAA1B9B
:102C2000BB1BFD010DC0AA1FBB1FEE1FFF1FA2177C
:102C3000B307E407F50720F0A21BB30BE40BF50B79
:102C4000661F771F881F991F1A9469F76095709502
:102C5000809590959B01AC01BD01CF010895F8943A
:022C6000FFCFA4
:102C620001000000446174613A004C005200766930
:102C720063746F727921004C3A2000523A20003C72
:102C82003D2D20202B3D3E00202020202020200012
:102C920045706F63683A2000616464724E41434B31
:102CA2000077725F4E41434B00726561644E41434F
:022CB2004B00D5
:00000001FF
