:100000000C946C000C9489000C9489000C94890069
:100010000C9489000C9489000C9489000C94720B48
:100020000C9489000C9489000C9489000C9489002C
:100030000C9489000C9489000C9489000C9489001C
:100040000C9489000C9489000C9489000C9489000C
:100050000C9489000C9489000C9489003F0C3F0C8F
:100060004A0C4A0C560C5B0C5B0C5D0C5D0C5D0C79
:10007000690C2F0C2F0C3B0C8B0C8B0C9B0C9B0CD2
:10008000AB0CBF0CBF0CAF0CAF0CAF0CC10C7B0C9E
:100090007B0C770CFE0CFE0C0E0D0E0D1E0D320DA2
:1000A000320D220D220D220D340DEE0CEE0CEA0C59
:1000B00007634236B79BD8A71A39685618AEBAAB51
:1000C000558C1D3CB7CC5763BD6DEDFD753EF617E5
:1000D0007231BF000000803F11241FBECFEFD0E17E
:1000E000DEBFCDBF11E0A0E0B1E0E0E6F3E202C088
:1000F00005900D92A035B107D9F722E0A0E5B1E057
:1001000001C01D92AB34B207E1F70E94890D0C9437
:10011000AE110C940000082E000C990B9C01220FCC
:10012000331F820F931F6AE070E00E94E00D615858
:1001300081E00C94D60B882361F02DEF6202C001A0
:1001400011246AE070E00E94E00D615880E00C9498
:10015000D60B862F0C948B00EF92FF920F931F9378
:10016000CF93DF93009701F18C01E12CF12CC0E0DB
:10017000D0E00AC08FE99FE00197F1F700C00000CE
:1001800021960C171D0741F00E941D0C813091F73C
:10019000EE24E394F12CEECFC701DF91CF911F91B4
:1001A0000F91FF90EF90089580E090E0F6CFFB0173
:1001B00038963291229133832283E617F707C9F7E5
:1001C000918380830895FC019C01265F3F4F60E08E
:1001D00070E081919191680F791F2E173F07C9F741
:1001E000072E000C880B990B0E945A0F20E030E07C
:1001F00040EA50E40E94760E089524E6829FC001F2
:1002000011246FEF70E00E94E00D862F08952FEF0C
:10021000829FC001112464E670E00E94E00D862FE9
:1002200008954F925F926F927F928F929F92AF92BA
:10023000BF92CF92DF92EF92FF920F931F93CF93D3
:10024000DF93C82FD0E0C61BD109E4E5F1E00681B9
:10025000178111870087E480F580F782E68282812A
:100260009381958384832081318133832283D18359
:10027000C0832C0F3D1F820F931FE80EF91EBE0195
:100280000D2E000C880B990B0E945A0F2DEC3CECA4
:100290004CE45EE30E9483102B013C01609152010B
:1002A000709153016C0F7D1F072E000C880B990B6A
:1002B0000E945A0F2DEC3CEC4CE45DE30E9483104D
:1002C0004B015C01B701600F711F072E000C880BFA
:1002D000990B0E945A0F20E030E040EA50E40E945F
:1002E000760E2DEC3CEC4CEC5DE30E9483106B0130
:1002F0007C01D0935301C093520120E030E044E3ED
:1003000052E4C301B2010E940A0EA50194010E94A9
:100310000A0EA70196010E940A0E0E94220F77275B
:1003200014E6169FC001179F900D1124CFEFD0E067
:10033000BE010E94E00D062FA301920160E070E073
:1003400084E392E40E94090EA50194010E94090E23
:10035000A70196010E94090E0E94220F7727169F7F
:10036000C001179F900D1124BE010E94E00D962F31
:10037000802FDF91CF911F910F91FF90EF90DF9031
:10038000CF90BF90AF909F908F907F906F905F9035
:100390004F9008950F931F93CF93DF930E944A11BC
:1003A00003EE11E0CFEFDFE7BE010E94E00D072E64
:1003B000000C880B990B0E945A0FF801608371831F
:1003C000828393830E944A11BE010E94E00D072E92
:1003D000000C880B990B0E945A0FF80164837583F7
:1003E000868397830E944A11BE010E94E00D072E6A
:1003F000000C880B990B0E945A0FF80164877587CF
:10040000868797870E944A11BE010E94E00D072E41
:10041000000C880B990B0E945A0FF801608B718BAE
:10042000828B938B0E944A11BE010E94E00D072E21
:10043000000C880B990B0E945A0FF801648B758B86
:10044000868B978B0E944A11BE010E94E00D072EF9
:10045000000C880B990B0E945A0FF801648F758F5E
:10046000868F978F0E944A11BE010E94E00D072ED1
:10047000000C880B990B0E945A0FF80160A371A31E
:1004800082A393A30E944A11BE010E94E00D072E91
:10049000000C880B990B0E945A0FF80164A375A3F6
:1004A00086A397A30E944A11BE010E94E00D072E69
:1004B000000C880B990B0E945A0FF80164A775A7CE
:1004C00086A797A70E944A11BE010E94E00D072E41
:1004D000000C880B990B0E945A0FF80160AB71ABAE
:1004E00082AB93AB0E944A11BE010E94E00D072E21
:1004F000000C880B990B0E945A0FF80164AB75AB86
:1005000086AB97AB0E944A11BE010E94E00D072EF8
:10051000000C880B990B0E945A0FF80160AF71AF65
:1005200082AF93AF0E944A11BE010E94E00D072ED8
:10053000000C880B990B0E945A0FF80164AF75AF3D
:1005400086AF97AF0E944A11BE010E94E00D072EB0
:10055000000C880B990B0E945A0F60932302709332
:10056000240280932502909326020E944A11BE0124
:100570000E94E00D072E000C880B990B0E945A0F69
:1005800060932702709328028093290290932A0295
:100590000E944A11BE010E94E00D072E000C880B3C
:1005A000990B0E945A0F60932B0270932C02809338
:1005B0002D0290932E020E944A11BE010E94E00D6E
:1005C000072E000C880B990B0E945A0F60932F0284
:1005D000709330028093310290933202DF91CF9179
:1005E0001F910F9108950F931F93CF93DF93109254
:1005F00051011092500180E00E941F07D82F81E026
:100600000E941F07C82FE0915001F0915101EE0F99
:10061000FF1FE15AFE4FD083C1830E94060B60E0AA
:1006200080E00E94660984E091E00E94570A809170
:100630005001909151010E947C0A81E391E00E9457
:10064000570A61E080E00E9466098AE091E00E941A
:10065000570A8D2F90E00E947C0A61E084E00E949E
:1006600066098CE091E00E94570A8C2F90E00E946E
:100670007C0AC1E0D0E000E010E00E941D0C813057
:1006800079F08FE99FE00197F1F700C00000CC32CC
:1006900091E0D90799F021960E941D0C813089F7CD
:1006A0008FE99FE00197F1F700C00000CC3291E0A4
:1006B000D90791F001E010E02196EECF012B61F413
:1006C0008091500190915101019690935101809336
:1006D0005001C2970CF48FCF0E94060B60E080E0BF
:1006E0000E9466098EE091E0DF91CF911F910F91FA
:1006F0000C94570A08952F923F924F925F926F92F7
:100700007F928F929F92AF92BF92CF92DF92EF92A1
:10071000FF920F931F93CF93DF93CDB7DEB72E9742
:100720000FB6F894DEBF0FBECDBFFE0131968AE052
:10073000DF011D928A95E9F7C12CD12C01E010E070
:10074000E12CF12C0CC08FE99FE00197F1F700C07C
:1007500000000C3291E01907A9F00F5F1F4F0E94B3
:100760001D0C813081F78FE99FE00197F1F700C000
:1007700000000C3291E0190709F4BFC0EE24E394A5
:10078000F12CEBCFEF2809F0B8C080E00E941F07E2
:10079000282E81E00E941F07312CA82FB0E0BC87D3
:1007A000AB8781010A1B1B0BEF80F884FA86E98670
:1007B0006D817E8178876F838B819C819E838D8301
:1007C00029813A813C832B831A830983200F311FAF
:1007D000820F931F9C01260F371F3E872D87B8017C
:1007E000012E000C880B990B0E945A0F2DEC3CEC4B
:1007F0004CE45EE30E9483102B013C01B601600FC4
:10080000711F072E000C880B990B0E945A0F2DECBC
:100810003CEC4CE45DE30E9483104B015C016D8570
:100820007E856E0D7F1D072E000C880B990B0E9494
:100830005A0F20E030E040EA50E40E94760E2DECA2
:100840003CEC4CE45EE30E9483106B017C0120E0F1
:1008500030E040EF51E4C301B2010E940A0EA5014D
:1008600094010E940A0EA70196010E940A0E0E949E
:10087000220F862F0E948B00A301920160E070E09E
:1008800080EF91E40E94090EA50194010E94090ED7
:10089000A70196010E94090E0E94220F3DEF6302FC
:1008A000C00111246AE070E00E94E00D615880E010
:1008B0000E94D60B0E94060B60E080E00E94660951
:1008C00087E191E00E94570A61E080E00E9466099A
:1008D0008AE091E00E94570AC1010E947C0A61E00F
:1008E00084E00E9466098CE091E00E94570A8B85A3
:1008F0009C850E947C0A680121CF2E960FB6F89441
:10090000DEBF0FBECDBFDF91CF911F910F91FF9042
:10091000EF90DF90CF90BF90AF909F908F907F909F
:100920006F905F904F903F902F900895009769F0DF
:1009300020E030E0EFE9FFE03197F1F700C0000080
:100940002F5F3F4F82179307A9F708950895EF92FD
:10095000FF920F931F93CF93DF9360E080E00E949C
:10096000660985E291E00E94570AE12CF12C0E9471
:1009700017098F3108F067C00E941709893C08F0F9
:1009800059C00E941309893C08F04BC00E9413090A
:100990008531D8F5F7FC42C061E080E00E9466092D
:1009A000C7010E947C0A8EE291E00E94570AC1E0D2
:1009B000D0E000E010E00E941D0C813071F08FE962
:1009C0009FE00197F1F700C00000C233D10591F01C
:1009D00021960E941D0C813091F78FE99FE00197CD
:1009E000F1F700C00000C233D10539F001E010E09A
:1009F0002196EFCF012B09F4BACFC701DF91CF9138
:100A00001F910F91FF90EF9008950E941309863473
:100A100008F69AE0E90EF11CF7FEBECFE12CF12CAE
:100A2000BBCF0E941309863E08F0B0CF8AE0E81AD7
:100A3000F108ACCF0E9417098A3F08F0A2CF9FEFC0
:100A4000E91AF90A9ECF0E941709863408F094CF5C
:100A500081E0E81AF10890CF08954F925F926F926B
:100A60007F928F929F92AF92BF92CF92DF92EF923E
:100A7000FF92CF93DF93CDB7DEB728970FB6F894E8
:100A8000DEBF0FBECDBF6983682F70E080E090E0CD
:100A90000E945A0F4B015C012981622F70E080E0B7
:100AA00090E00E945A0F6B017C012091F30130917C
:100AB000F4014091F5015091F601C501B4010E9485
:100AC00083102B013C012091F7013091F8014091F6
:100AD000F9015091FA01C701B6010E9483109B01F0
:100AE000AC01C301B2010E940A0E2091FF013091B6
:100AF000000240910102509102020E94090E698396
:100B00007A838B839C83209103023091040240916D
:100B1000050250910602C501B4010E9483102B0109
:100B20003C01209107023091080240910902509146
:100B30000A02C701B6010E9483109B01AC01C301E8
:100B4000B2010E940A0E20910F02309110024091D2
:100B50001102509112020E94090E6D837E838F83D1
:100B60009887E3EEF1E02081318142815381C50114
:100B7000B4010E9483104B015C012091E701309188
:100B8000E8014091E9015091EA01C701B6010E94D4
:100B900083109B01AC01C501B4010E940A0E209193
:100BA000EF013091F0014091F1015091F2010E946A
:100BB000090E90580E94F00E20E030E040E85FE31C
:100BC0000E940A0E9B01AC0160E070E080E89FE3A8
:100BD0000E94760E2B013C0160933702709338021D
:100BE0008093390290933A0269817A818B819C814A
:100BF00090580E94F00E20E030E040E85FE30E9451
:100C00000A0E9B01AC0160E070E080E89FE30E9467
:100C1000760E4B015C016093C3017093C401809315
:100C2000C5019093C6016D817E818F819885905812
:100C30000E94F00E20E030E040E85FE30E940A0EE0
:100C40009B01AC0160E070E080E89FE30E94760EBB
:100C50006B017C016093DF017093E0018093E101FF
:100C60009093E201209123023091240240912502C9
:100C700050912602C301B2010E94831069837A83D6
:100C80008B839C8320912702309128024091290276
:100C900050912A02C501B4010E9483109B01AC014E
:100CA00069817A818B819C810E940A0E69837A8393
:100CB0008B839C8320912B0230912C0240912D023A
:100CC00050912E02C701B6010E9483109B01AC0116
:100CD00069817A818B819C810E940A0E20912F026A
:100CE0003091300240913102509132020E94090E3F
:100CF00069837A838B839C83209113023091140241
:100D00004091150250911602C301B2010E94831056
:100D10002B013C01209117023091180240911902D9
:100D200050911A02C501B4010E9483109B01AC01CD
:100D3000C301B2010E940A0E4B015C0120911B020B
:100D400030911C0240911D0250911E02C701B60154
:100D50000E9483109B01AC01C501B4010E940A0EE0
:100D600020911F02309120024091210250912202D5
:100D70000E94090E90580E94F00E20E030E040E8FA
:100D80005FE30E940A0E9B01AC0160E070E080E826
:100D90009FE30E94760E6B017C016093DB017093F0
:100DA000DC018093DD019093DE0169817A818B8182
:100DB0009C8190580E94F00E20E030E040E85FE314
:100DC0000E940A0E9B01AC0160E070E080E89FE3A6
:100DD0000E94760E4B015C016093D7017093D8019D
:100DE0008093D9019093DA01C701B6010E94290FBF
:100DF0006983C501B4010E94290F962F8981289625
:100E00000FB6F894DEBF0FBECDBFDF91CF91FF903C
:100E1000EF90DF90CF90BF90AF909F908F907F909A
:100E20006F905F904F900895EAE7F0E080818768C7
:100E30008083ECE7F0E08081806680830895909164
:100E40007C00987F90937C0090917C00892B80930C
:100E50007C0080917A00806480937A0080917A008F
:100E600086FDFCCF8091790008958DB18F7C8DB97E
:100E700085E08A95F1F700006D9A759885E08A956E
:100E8000F1F700006C9A749885E08A95F1F70000FC
:100E900008956C9885E08A95F1F700006D9885E0DB
:100EA0008A95F1F7000008956D9885E08A95F1F72D
:100EB000000065990DC06C9885E08A95F1F70000F7
:100EC0006C9A749885E08A95F1F70000659BF3CFE2
:100ED0006C9808956C9885E08A95F1F700006C9AFB
:100EE000749885E08A95F1F7000008951F93CF93D9
:100EF000DF93D82FC62F142F0E9454070E94350766
:100F000087E013C06D9895E09A95F1F700006C9812
:100F100095E09A95F1F700006C9A749895E09A958F
:100F2000F1F70000DD0F815029F0D6FDEBCF6D9A6F
:100F30007598E9CF6D9A759885E08A95F1F700006C
:100F40006C9895E09A95F1F700006C9A749885E09A
:100F50008A95F1F700006D9895E09A95F1F70000F9
:100F60006C98659B05C086E391E00E94570AFFCF0D
:100F700085E08A95F1F700006C9A749895E09A954F
:100F8000F1F7000088E014C06D9A759895E09A9585
:100F9000F1F700006C9895E09A95F1F700006C9AD3
:100FA000749895E09A95F1F70000CC0F815021F0EC
:100FB000C7FFEACF6D98EACF6D9885E08A95F1F783
:100FC00000006C98659B05C082E491E00E94570A7E
:100FD000FFCF95E09A95F1F700006C9A749885E040
:100FE0008A95F1F70000112351F06C9895E09A95DD
:100FF000F1F700006D9885E08A95F1F70000DF9128
:10100000CF911F910895FC016623D1F14FEF460F58
:1010100050E04F5F5F4F480F591F908128E016C086
:101020006D9A759885E08A95F1F700006C9885E0D7
:101030008A95F1F700006C9A749885E08A95F1F72B
:1010400000009081990F9083215021F097FFE8CF05
:101050006D98E8CF31966D9885E08A95F1F700009C
:101060006C98659918C085E08A95F1F700006C9A34
:10107000749885E08A95F1F70000E417F50769F6A2
:101080006C9885E08A95F1F700006D9885E08A9567
:10109000F1F7000008958FE391E00E94570AFFCF17
:1010A0000F931F93CF93DF93082FEB01142F0E9410
:1010B000350787E013C06D9895E09A95F1F7000029
:1010C0006C9895E09A95F1F700006C9A749895E009
:1010D0009A95F1F70000000F815029F006FDEBCF43
:1010E0006D9A7598E9CF6D9885E08A95F1F70000C3
:1010F0006C9895E09A95F1F700006C9A749885E0E9
:101100008A95F1F700006D9895E09A95F1F7000047
:101110006C98659B05C087E491E00E94570AFFCF59
:1011200085E08A95F1F700006C9A749895E09A959D
:10113000F1F700006D9885E08A95F1F70000112322
:10114000B1F12FEF210F30E02F5F3F4F2C0F3D1FEC
:1011500098E08881880F88836C9885E08A95F1F7FC
:101160000000659B03C088818160888385E08A9543
:10117000F1F700006C9A749885E08A95F1F7000009
:10118000915039F76D9A759895E09A95F1F70000AE
:101190006C9885E08A95F1F700006C9A749895E058
:1011A0009A95F1F7000021962C173D0789F695E0F6
:1011B0009A95F1F700006C9885E08A95F1F70000A8
:1011C0006D9895E09A95F1F70000DF91CF911F910E
:1011D0000F910895CF93DF931F92CDB7DEB7498368
:1011E00040E00E94760761E0CE0101960E9403086C
:1011F0000F90DF91CF9108951F93CF93DF931F92AC
:10120000CDB7DEB7182F41E00E94760741E0BE015E
:101210006F5F7F4F812F0E94500889810F90DF916F
:10122000CF911F91089561E08CE10C94FC0863E07C
:101230008CE10C94FC0865E08CE10C94FC088AE0DD
:101240008A95F1F700C0449A8AE08A95F1F700C0C8
:1012500044988AE08A95F1F700C00895F89482B91D
:101260008AE08A95F1F700C0449A8AE08A95F1F7FE
:1012700000C044988AE08A95F1F700C078940895F8
:101280008F98F89482B98AE08A95F1F700C0449A61
:101290008AE08A95F1F700C044988AE08A95F1F7D0
:1012A00000C0789408958F9AF89482B98AE08A955C
:1012B000F1F700C0449A8AE08A95F1F700C044989B
:1012C0008AE08A95F1F700C078940895803110F48F
:1012D000623008F0089590E4699F800D11248058D1
:1012E0008F98F89482B98AE08A95F1F700C0449A01
:1012F0009AE09A95F1F700C044988AE08A95F1F750
:1013000000C0789495EC9A95F1F7000008953C9A06
:10131000879A8FEF81B98FE19EE40197F1F700C0C2
:1013200000008F98F89488E382B99AE09A95F1F7D3
:1013300000C0449AEAE0EA95F1F700C04498FAE068
:10134000FA95F1F700C07894EFE7F2E03197F1F702
:1013500000C000008F98F89482B9FAE0FA95F1F78E
:1013600000C0449A9AE09A95F1F700C04498EAE0E8
:10137000EA95F1F700C07894EFE7F2E03197F1F7E2
:1013800000C000008F98F89482B9FAE0FA95F1F75E
:1013900000C0449A9AE09A95F1F700C04498EAE0B8
:1013A000EA95F1F700C07894EFE7F2E03197F1F7B2
:1013B00000C000008F98F89498E092B9FAE0FA958E
:1013C000F1F700C0449A9AE09A95F1F700C044986A
:1013D000EAE0EA95F1F700C07894EFE7F2E03197A0
:1013E000F1F700C000008F98F89491E092B9FAE00C
:1013F000FA95F1F700C0449A9AE09A95F1F700C087
:101400004498EAE0EA95F1F700C07894EFE7FEE34C
:101410003197F1F700C000008F98F89496E092B9E8
:10142000FAE0FA95F1F700C0449A9AE09A95F1F73C
:1014300000C04498EAE0EA95F1F700C07894EFE73D
:10144000F2E03197F1F700C000008F98F89482B96C
:10145000FAE0FA95F1F700C0449A8AE08A95F1F72C
:1014600000C044989AE09A95F1F700C07894EFE8AC
:10147000F1E03197F1F700C000008F98F8948CE00C
:1014800082B9FAE0FA95F1F700C0449A8AE08A95A9
:10149000F1F700C044989AE09A95F1F700C078946B
:1014A000EFE8F1E03197F1F700C000000895DC01AA
:1014B0009C91992301F120E08F9AF89492B98AE0E7
:1014C0008A95F1F700C0449A9AE09A95F1F700C026
:1014D00044988AE08A95F1F700C078948FE792E00B
:1014E0000197F1F700C000002F5FFD01E20FF11D31
:1014F00090819111E1CF08951F93CF93DF93FC0169
:10150000892B09F466C045E011E02FE037E2E901DC
:101510002196CF01BE010E94CC0D61111DC02E1776
:101520003F0708F052C01123A9F111E0CF01BE011D
:101530000E94CC0DFC01ADECBCEC0E94FA0D9C01AC
:101540003695279536952795369527954150F9F686
:10155000DF91CF911F9108952E173F07D8F0605D5E
:101560008F9AF89462B99AE09A95F1F700C0449A7C
:101570008AE08A95F1F700C044989AE09A95F1F7CD
:1015800000C078948FE792E00197F1F700C0000067
:1015900010E0D1CF605D8F9AF89462B99AE09A9585
:1015A000F1F700C0449A8AE08A95F1F700C04498A8
:1015B0009AE09A95F1F700C078948FE792E001974E
:1015C000F1F700C0000010E0B1CF112341F211E0AB
:1015D000B2CF8F9AF89480E382B98AE08A95F1F7C6
:1015E00000C0449A9AE09A95F1F700C044988AE0C6
:1015F0008A95F1F700C078948FE792E00197F1F7B0
:1016000000C00000DF91CF911F9108958F98F8944A
:1016100081E082B98AE08A95F1F700C0449A9AE0A5
:101620009A95F1F700C044988AE08A95F1F700C0D6
:1016300078948FE79EE30197F1F700C000000895CA
:101640005D9A5C980895262F3FEF81110EC06303C9
:10165000C001112464E670E00E94E00D6093B300C5
:1016600012169CF45C9A5D9808956303C0011124DE
:1016700064E670E00E94E00D67BD12161CF45E9AED
:101680005F9808955F9A5E9808950C94200BCF930D
:10169000DF93C3EBD0E018820E94200B17BC5F9A47
:1016A0005E9884B1806984B98AB1806F8AB9E0EBB1
:1016B000F0E080818866808380818260808384B549
:1016C000886684BD84B5826084BD8AE087BD8883D6
:1016D000DF91CF9108955C9A5D982C9A5F9A5E98FD
:1016E0002F9A08951F920F920FB60F9211242F93E5
:1016F0003F934F935F936F937F938F939F93EF935A
:10170000FF9380915E01409188005091890080FD97
:1017100030C08695E82FF0E0EE0FFF1FED5BFD4F28
:1017200020813181240F351F309389002093880058
:1017300048B121E030E0B90102C0660F771F8A95F9
:10174000E2F7CB01842B88B980915E018F5F8770AF
:1017500080935E01FF91EF919F918F917F916F91A7
:101760005F914F913F912F910F900FBE0F901F905F
:1017700018958695E82FF0E0EE0FFF1FE55CFD4F12
:1017800020813181240F351F3093890020938800F8
:1017900048B121E030E0B90102C0660F771F8A9599
:1017A000E2F7CB018095842388B9CECF90E02AE080
:1017B000629FB00111246C53764F880F991FFC0172
:1017C000ED5BFD4F71836083FC01E55CFD4F24ED13
:1017D00030E3261B370B318320830895A3E4B2E066
:1017E00024EC39E011963C932E93EBE3F2E080E198
:1017F00097E29183808313963C932E931297938361
:10180000828315963C932E93149795838483179621
:101810003C932E9316979783868387B18F6087B901
:10182000E1E8F0E01082808182608083EFE6F0E002
:10183000808182608083789408958CB18095881F20
:101840008827881F0895482F50E04E30510510F02A
:1018500080E00895FA01E25DFF4F0C94F40D23B18E
:1018600030E08950A90102C0559547958A95E2F765
:10187000CA018170089583B18695817008952CB155
:1018800030E0A90102C0559547958A95E2F7CA0153
:101890008170089522B330E08F5FA90102C0559591
:1018A00047958A95E2F7CA01817008958CB186FB4D
:1018B000882780F9089523B1E3CF26B130E0825024
:1018C000A90102C0559547958A95E2F7CA01817032
:1018D000089583B181700895962F482F50E04E30BF
:1018E000510540F4FA01E45CFF4F0C94F40D6111D2
:1018F00064C02198089544B1895021E030E0B901D5
:1019000002C0660F771F8A95E2F79923F1F1CB01A8
:10191000842B84B908954DB121E030E0B90102C0B3
:10192000660F771F8A95E2F7992309F43FC0CB0130
:10193000842B8DB9089543B38F5F21E030E0B90166
:1019400002C0660F771F8A95E2F7992329F1CB0130
:10195000842B83BB08956623E9F06E9A089547B1FE
:10196000825021E030E0B90102C0660F771F8A95EE
:10197000E2F79923B1F0CB01842B87B9089544B1E4
:10198000BCCF6623C1F0209A0895CB0180958423B3
:1019900084B908956E980895CB018095842383BB04
:1019A0000895CB018095842387B90895CB01809554
:1019B00084238DB9089520980895219A0895962F2B
:1019C000482F50E04E30510540F4FA01E65BFF4FDE
:1019D0000C94F40D611164C02998089545B18950A3
:1019E00021E030E0B90102C0660F771F8A95E2F767
:1019F0009923F1F1CB01842B85B908954EB121E0F3
:101A000030E0B90102C0660F771F8A95E2F799238B
:101A100009F43FC0CB01842B8EB9089544B38F5F86
:101A200021E030E0B90102C0660F771F8A95E2F726
:101A3000992329F1CB01842B84BB08956623E9F017
:101A4000769A089548B1825021E030E0B90102C091
:101A5000660F771F8A95E2F79923B1F0CB01842BAB
:101A600088B9089545B1BCCF6623C1F0289A08957E
:101A7000CB018095842385B9089576980895CB018C
:101A80008095842384BB0895CB018095842388B9F5
:101A90000895CB01809584238EB9089528980895E0
:101AA000299A0895811104C0613031F0A0980895F9
:101AB000613021F0A1980895A09A0895A19A0895FF
:101AC000882311F0A19A0895A09A0895882311F00F
:101AD000A1980895A0980895529A83B3836083BB18
:101AE000779A0E9414070E9487090E94EE0B0E94B9
:101AF000470B41E06AE28CE10E94EA082FEF81EE99
:101B000094E0215080409040E1F700C000000C9428
:101B10005407EF92FF920F931F93CF93DF930E948E
:101B20006C0D80E00E948B006FE780E00E94D60B76
:101B30000E947B0380E00E948B006FE780E00E94A0
:101B4000D60B0E94F3020E94CA010E94A7047C01E6
:101B50000E94CA011E141F04B4F400E010E0CFE597
:101B6000D1E0698188810E941101698188810E9488
:101B70002D05229681E0C33CD80799F70F5F1F4FD0
:101B8000E016F10661F780E090E0DF91CF911F91C0
:101B90000F91FF90EF900895AA1BBB1B51E107C066
:101BA000AA1FBB1FA617B70710F0A61BB70B881FED
:101BB000991F5A95A9F780959095BC01CD0108957C
:101BC00097FB072E16F4009407D077FD09D00E94EA
:101BD000CC0D07FC05D03EF4909581959F4F08955C
:101BE000709561957F4F0895EE0FFF1F0590F4915A
:101BF000E02D0994A29FB001B39FC001A39F700D77
:101C0000811D1124911DB29F700D811D1124911D04
:101C100008955058BB27AA270E94210E0C94D30F79
:101C20000E94C50F38F00E94CC0F20F039F49F3F7E
:101C300019F426F40C949B0F0EF4E095E7FB0C943A
:101C4000950FE92F0E94E40F58F3BA176207730744
:101C50008407950720F079F4A6F50C9406100EF48D
:101C6000E0950B2EBA2FA02D0B01B90190010C01AC
:101C7000CA01A0011124FF27591B99F0593F50F4C4
:101C8000503E68F11A16F040A22F232F342F44271C
:101C9000585FF3CF469537952795A795F040539514
:101CA000C9F77EF41F16BA0B620B730B840BBAF0E4
:101CB0009150A1F0FF0FBB1F661F771F881FC2F74F
:101CC0000EC0BA0F621F731F841F48F48795779563
:101CD0006795B795F7959E3F08F0B0CF9395880F1D
:101CE00008F09927EE0F9795879508950E948A0E20
:101CF0000C94D30F0E94CC0F58F00E94C50F40F0F7
:101D000029F45F3F29F00C94950F51110C940710A2
:101D10000C949B0F0E94E40F68F39923B1F35523B1
:101D200091F3951B550BBB27AA27621773078407EE
:101D300038F09F5F5F4F220F331F441FAA1FA9F384
:101D400035D00E2E3AF0E0E832D091505040E69572
:101D5000001CCAF72BD0FE2F29D0660F771F881FD3
:101D6000BB1F261737074807AB07B0E809F0BB0BC6
:101D7000802DBF01FF2793585F4F3AF09E3F5105DA
:101D800078F00C94950F0C9407105F3FE4F3983EA5
:101D9000D4F3869577956795B795F7959F5FC9F7C3
:101DA000880F911D9695879597F90895E1E0660F44
:101DB000771F881FBB1F621773078407BA0720F0BD
:101DC000621B730B840BBA0BEE1F88F7E095089526
:101DD00029F416F00C94950F0C9406100C949B0F9C
:101DE0000E94EC0FA8F39638A0F707F80F92E8943A
:101DF0002BE33AEA48EB5FE70E9499100F920F92AB
:101E00000F924DB75EB70F920E944F10E0EBF0E0DB
:101E10000E949E0F4F915F91EF91FF91E595EE1F0C
:101E2000FF1F49F0FE57E0684427EE0F441FFA9564
:101E3000E1F74195550B0E9419100F9007FE0C9485
:101E40000D1008950E94290F6894B1110C94071089
:101E500008950E94EC0F88F09F5798F0B92F9927AA
:101E6000B751B0F0E1F0660F771F881F991F1AF085
:101E7000BA95C9F714C0B13091F00E940610B1E0D4
:101E800008950C940610672F782F8827B85F39F0D3
:101E9000B93FCCF3869577956795B395D9F73EF41E
:101EA00090958095709561957F4F8F4F9F4F0895C6
:101EB000E89409C097FB3EF49095809570956195E4
:101EC0007F4F8F4F9F4F9923A9F0F92F96E9BB279A
:101ED0009395F695879577956795B795F111F8CF16
:101EE000FAF4BB0F11F460FF1BC06F5F7F4F8F4F81
:101EF0009F4F16C0882311F096E911C0772321F077
:101F00009EE8872F762F05C0662371F096E8862F0E
:101F100070E060E02AF09A95660F771F881FDAF765
:101F2000880F9695879597F9089597F99F6780E8A8
:101F300070E060E008959FEF80EC0895DF93CF9309
:101F40001F930F93FF92EF92DF927B018C016894B5
:101F500006C0DA2EEF010E949610FE01E894A591CA
:101F60002591359145915591A6F3EF010E94210EDF
:101F7000FE019701A801DA9469F7DF90EF90FF90D6
:101F80000F911F91CF91DF91089500240A941616A6
:101F9000170618060906089500240A941216130657
:101FA000140605060895092E0394000C11F48823E5
:101FB00052F0BB0F40F4BF2B11F460FF04C06F5F01
:101FC0007F4F8F4F9F4F089557FD9058440F551FD7
:101FD00059F05F3F71F04795880F97FB991F61F0AB
:101FE0009F3F79F087950895121613061406551F22
:101FF000F2CF4695F1DF08C0161617061806991F8E
:10200000F1CF86957105610508940895E894BB2782
:1020100066277727CB0197F908959B01AC0160E013
:1020200070E080E89FE30C94760E0C94950F0C946E
:10203000F0100E94EC0FD8F39923C9F3940F511DAF
:10204000A3F39150504094F059F0882332F0660F7A
:10205000771F881F91505040C1F79E3F51052CF7C4
:10206000880F911D9695879597F908955F3FACF07D
:10207000983E9CF0BB27869577956795B79508F4B1
:10208000B1609395C1F7BB0F58F711F460FFE8CF2B
:102090006F5F7F4F8F4F9F4FE3CF0C940710FA0174
:1020A000DC01AA0FBB1F9B01AC01BF5728F42227FC
:1020B00033274427507820C0B75190F4AB2F002429
:1020C000469537952795011CA395D2F3002071F012
:1020D000220F331F441FB395DAF30ED00C94090E70
:1020E00061307105A0E88A07B94630F49B01AC0164
:1020F0006627772788279078309621F020833183D0
:102100004283538308950E9496100C94D30F0E942B
:10211000C50F38F00E94CC0F20F0952311F00C94DD
:10212000950F0C949B0F11240C9407100E94E40F40
:1021300070F3959FC1F3950F50E0551F629FF0011A
:10214000729FBB27F00DB11D639FAA27F00DB11D33
:10215000AA1F649F6627B00DA11D661F829F2227BC
:10216000B00DA11D621F739FB00DA11D621F839F43
:10217000A00D611D221F749F3327A00D611D231F19
:10218000849F600D211D822F762F6A2F11249F5767
:1021900050409AF0F1F088234AF0EE0FFF1FBB1F6A
:1021A000661F771F881F91505040A9F79E3F510529
:1021B00080F00C94950F0C9407105F3FE4F3983E69
:1021C000D4F3869577956795B795F795E7959F5FD3
:1021D000C1F7FE2B880F911D9695879597F9089565
:1021E0009F3F31F0915020F4879577956795B7958B
:1021F000880F911D9695879597F908958F929F92D4
:10220000AF92BF92CF92DF92EF92FF92CF93DF9384
:10221000EC01688179818A819B8161157105810555
:10222000910521F464E279ED8BE597E02DE133EF40
:1022300041E050E00E945A1149015A019B01AC0152
:10224000A7EAB1E40E9479116B017C01ACEEB4EF16
:10225000A50194010E948711DC01CB018C0D9D1D0D
:10226000AE1DBF1DB7FF03C00197A109B048888309
:102270009983AA83BB839F77DF91CF91FF90EF90E3
:10228000DF90CF90BF90AF909F908F9008950E9465
:10229000FE10089580E091E00E94FE100895A0E0F5
:1022A000B0E08093000190930101A0930201B093EC
:1022B00003010895052E97FB1EF400940E947111EE
:1022C00057FD07D00E948C1107FC03D04EF40C94EC
:1022D000711150954095309521953F4F4F4F5F4F6D
:1022E000089590958095709561957F4F8F4F9F4F82
:1022F00008950E94FA0DA59F900DB49F900DA49F84
:10230000800D911D11240895B7FF0C9479110E943E
:102310007911821B930B0895A1E21A2EAA1BBB1BF5
:10232000FD010DC0AA1FBB1FEE1FFF1FA217B307A1
:10233000E407F50720F0A21BB30BE40BF50B661FB7
:10234000771F881F991F1A9469F76095709580957B
:1023500090959B01AC01BD01CF010895F894FFCF8A
:1023600001000000446174613A004C00520076693B
:1023700063746F7279210050726F706F7274696F3D
:102380006E616C3A003C3D2D20202B3D3E0020200C
:10239000202020202000616464724E41434B00776E
:1023A000725F4E41434B00726561644E41434B0086
:00000001FF
