:100000000C9458000C9475000C9475000C947500B9
:100010000C9475000C9475000C9475000C94BD053F
:100020000C9475000C9475000C9475000C9475007C
:100030000C9475000C9475000C9475000C9475006C
:100040000C9475000C9475000C9475000C9475005C
:100050000C9475000C9475000C9475008A068A0641
:1000600095069506A106A606A606A806A806A80651
:10007000B4067A067A068606D606D606E606E606AA
:10008000F6060A070A07FA06FA06FA060C07C60673
:10009000C606C206490749075907590769077D0778
:1000A0007D076D076D076D077F073907390735072E
:1000B00011241FBECFEFD0E1DEBFCDBF11E0A0E025
:1000C000B1E0E2E9F2E102C005900D92A832B10779
:1000D000D9F721E0A8E2B1E001C01D92A933B2072F
:1000E000E1F70E94D4070C9447090C940000082EF5
:1000F000000C990B9C01220F331F820F931F6AE0A3
:1001000070E00E94F407615881E00C942106882376
:1001100061F02DEF6202C00111246AE070E00E94DC
:10012000F407615880E00C942106862F0C94770028
:10013000FC013297AC014E5E5F4F219131913183CA
:100140002083E417F507C9F7FC01718360830895E4
:10015000C12CC0E082E3D82E04E61AE09AE0E92E32
:10016000F12C37C0C02FCD1B6C2F70E080E090E0E9
:100170000E944E082AE939E949E95EE30E94B20883
:100180000E941D08C62F812F8C1B2DEF8202C001FB
:100190001124B7010E94F407615880E00E942106F3
:1001A00084E68B1508F046C0C02ECB186C2D70E08D
:1001B00080E090E00E944E082DEC3CEC4CE45EE3C5
:1001C0000E94B2080E941D08C62E812F8C190E9421
:1001D000770080E00E946A01D82F60E080E00E94F2
:1001E000B10380E091E00E94A2048D2F90E00E9474
:1001F000C70484E091E00E94A20481E00E946A01A9
:10020000B82E61E080E00E94B10389E091E00E9495
:10021000A2048B2D90E00E94C70484E091E00E942C
:10022000A204D53608F09ECFD23308F09DCFCD2D55
:10023000CD1B9ACF21E32B1508F4B8CFCD2CCB18CA
:10024000B5CFCF93DF9380E00E946A01D82F60E0A2
:1002500080E00E94B10380E091E00E94A2048D2F13
:1002600090E00E94C70484E091E00E94A20481E033
:100270000E946A01C82F61E080E00E94B10389E01A
:1002800091E00E94A2048C2F90E00E94C70484E0B9
:1002900091E00E94A204DC1748F08AE00E947700F7
:1002A00069E780E0DF91CF910C94210684E10E9400
:1002B00077006CE780E0DF91CF910C942106EAE7AC
:1002C000F0E0808187688083ECE7F0E080818066E1
:1002D0008083089590917C00987F90937C0090910A
:1002E0007C00892B80937C0080917A0080648093CD
:1002F0007A0080917A0086FDFCCF80917900089584
:100300008DB18F7C8DB985E08A95F1F700006D9AEB
:10031000759885E08A95F1F700006C9A749885E0ED
:100320008A95F1F7000008956C9885E08A95F1F7B9
:1003300000006D9885E08A95F1F7000008956D98AA
:1003400085E08A95F1F7000065990DC06C9885E00D
:100350008A95F1F700006C9A749885E08A95F1F718
:100360000000659BF3CF6C9808956C9885E08A95A2
:10037000F1F700006C9A749885E08A95F1F7000017
:1003800008951F93CF93DF93D82FC62F142F0E9469
:100390009F010E94800187E013C06D9895E09A95B7
:1003A000F1F700006C9895E09A95F1F700006C9ACF
:1003B000749895E09A95F1F70000DD0F815029F0CF
:1003C000D6FDEBCF6D9A7598E9CF6D9A759885E05B
:1003D0008A95F1F700006C9895E09A95F1F7000086
:1003E0006C9A749885E08A95F1F700006D9895E015
:1003F0009A95F1F700006C98659B05C08DE091E03F
:100400000E94A204FFCF85E08A95F1F700006C9A64
:10041000749895E09A95F1F7000088E014C06D9A01
:10042000759895E09A95F1F700006C9895E09A958B
:10043000F1F700006C9A749895E09A95F1F7000036
:10044000CC0F815021F0C7FFEACF6D98EACF6D98AD
:1004500085E08A95F1F700006C98659B05C089E1FD
:1004600091E00E94A204FFCF95E09A95F1F7000079
:100470006C9A749885E08A95F1F70000112351F089
:100480006C9895E09A95F1F700006D9885E08A9553
:10049000F1F70000DF91CF911F910895FC016623D1
:1004A000D1F14FEF460F50E04F5F5F4F480F591F9C
:1004B000908128E016C06D9A759885E08A95F1F7CD
:1004C00000006C9885E08A95F1F700006C9A7498AA
:1004D00085E08A95F1F700009081990F9083215073
:1004E00021F097FFE8CF6D98E8CF31966D9885E0C1
:1004F0008A95F1F700006C98659918C085E08A9597
:10050000F1F700006C9A749885E08A95F1F7000085
:10051000E417F50769F66C9885E08A95F1F7000015
:100520006D9885E08A95F1F70000089586E191E0E5
:100530000E94A204FFCF0F931F93CF93DF93082F46
:10054000EB01142F0E94800187E013C06D9895E0A5
:100550009A95F1F700006C9895E09A95F1F70000F4
:100560006C9A749895E09A95F1F70000000F81500D
:1005700029F006FDEBCF6D9A7598E9CF6D9885E06F
:100580008A95F1F700006C9895E09A95F1F70000D4
:100590006C9A749885E08A95F1F700006D9895E063
:1005A0009A95F1F700006C98659B05C08EE191E08B
:1005B0000E94A204FFCF85E08A95F1F700006C9AB3
:1005C000749895E09A95F1F700006D9885E08A950A
:1005D000F1F700001123B1F12FEF210F30E02F5F71
:1005E0003F4F2C0F3D1F98E08881880F88836C98BF
:1005F00085E08A95F1F70000659B03C088818160E2
:10060000888385E08A95F1F700006C9A749885E0FC
:100610008A95F1F70000915039F76D9A759895E039
:100620009A95F1F700006C9885E08A95F1F7000043
:100630006C9A749895E09A95F1F7000021962C1722
:100640003D0789F695E09A95F1F700006C9885E0F2
:100650008A95F1F700006D9895E09A95F1F7000002
:10066000DF91CF911F910F910895CF93DF931F9248
:10067000CDB7DEB7498340E00E94C10161E0CE0101
:1006800001960E944E020F90DF91CF9108951F9323
:10069000CF93DF931F92CDB7DEB7182F41E00E94B2
:1006A000C10141E0BE016F5F7F4F812F0E949B021D
:1006B00089810F90DF91CF911F91089561E08CE1C6
:1006C0000C94470363E08CE10C94470365E08CE1F4
:1006D0000C9447038AE08A95F1F700C0449A8AE0B7
:1006E0008A95F1F700C044988AE08A95F1F700C036
:1006F0000895F89482B98AE08A95F1F700C0449A87
:100700008AE08A95F1F700C044988AE08A95F1F76B
:1007100000C0789408958F98F89482B98AE08A95F9
:10072000F1F700C0449A8AE08A95F1F700C0449836
:100730008AE08A95F1F700C0789408958F9AF8942A
:1007400082B98AE08A95F1F700C0449A8AE08A95D6
:10075000F1F700C044988AE08A95F1F700C07894D8
:100760000895803110F4623008F0089590E4699F94
:10077000800D112480588F98F89482B98AE08A9568
:10078000F1F700C0449A9AE09A95F1F700C04498B6
:100790008AE08A95F1F700C0789495EC9A95F1F784
:1007A000000008953C9A879A8FEF81B98FE19EE40B
:1007B0000197F1F700C000008F98F89488E382B9A0
:1007C0009AE09A95F1F700C0449AEAE0EA95F1F7C9
:1007D00000C04498FAE0FA95F1F700C07894EFE78A
:1007E000F2E03197F1F700C000008F98F89482B9D9
:1007F000FAE0FA95F1F700C0449A9AE09A95F1F779
:1008000000C04498EAE0EA95F1F700C07894EFE779
:10081000F2E03197F1F700C000008F98F89482B9A8
:10082000FAE0FA95F1F700C0449A9AE09A95F1F748
:1008300000C04498EAE0EA95F1F700C07894EFE749
:10084000F2E03197F1F700C000008F98F89498E03B
:1008500092B9FAE0FA95F1F700C0449A9AE09A95B5
:10086000F1F700C04498EAE0EA95F1F700C0789407
:10087000EFE7F2E03197F1F700C000008F98F894AD
:1008800091E092B9FAE0FA95F1F700C0449A9AE043
:100890009A95F1F700C04498EAE0EA95F1F700C0B4
:1008A0007894EFE7FEE33197F1F700C000008F98EE
:1008B000F89496E092B9FAE0FA95F1F700C0449AFC
:1008C0009AE09A95F1F700C04498EAE0EA95F1F7CA
:1008D00000C07894EFE7F2E03197F1F700C0000034
:1008E0008F98F89482B9FAE0FA95F1F700C0449A2B
:1008F0008AE08A95F1F700C044989AE09A95F1F75A
:1009000000C07894EFE8F1E03197F1F700C0000003
:100910008F98F8948CE082B9FAE0FA95F1F700C06C
:10092000449A8AE08A95F1F700C044989AE09A9533
:10093000F1F700C07894EFE8F1E03197F1F700C0EB
:1009400000000895DC019C91992301F120E08F9A29
:10095000F89492B98AE08A95F1F700C0449A9AE037
:100960009A95F1F700C044988AE08A95F1F700C0A3
:1009700078948FE792E00197F1F700C000002F5FB5
:10098000FD01E20FF11D90819111E1CF08951F93B8
:10099000CF93DF93FC01892B09F466C045E011E099
:1009A0002FE037E2E9012196CF01BE010E94E00766
:1009B00061111DC02E173F0708F052C01123A9F185
:1009C00011E0CF01BE010E94E007FC01ADECBCECE0
:1009D0000E940E089C0136952795369527953695E9
:1009E00027954150F9F6DF91CF911F9108952E1769
:1009F0003F07D8F0605D8F9AF89462B99AE09A95B3
:100A0000F1F700C0449A8AE08A95F1F700C0449853
:100A10009AE09A95F1F700C078948FE792E00197F9
:100A2000F1F700C0000010E0D1CF605D8F9AF8941C
:100A300062B99AE09A95F1F700C0449A8AE08A95E3
:100A4000F1F700C044989AE09A95F1F700C07894C5
:100A50008FE792E00197F1F700C0000010E0B1CFFE
:100A6000112341F211E0B2CF8F9AF89480E382B95A
:100A70008AE08A95F1F700C0449A9AE09A95F1F7D6
:100A800000C044988AE08A95F1F700C078948FE717
:100A900092E00197F1F700C00000DF91CF911F9124
:100AA00008958F98F89481E082B98AE08A95F1F7E9
:100AB00000C0449A9AE09A95F1F700C044988AE001
:100AC0008A95F1F700C078948FE79EE30197F1F7DC
:100AD00000C0000008955D9A5C980895262F3FEFAE
:100AE00081110EC06303C001112464E670E00E940E
:100AF000F4076093B30012169CF45C9A5D98089515
:100B00006303C001112464E670E00E94F40767BD2E
:100B100012161CF45E9A5F9808955F9A5E98089585
:100B20000C946B05CF93DF93C3EBD0E018820E9447
:100B30006B0517BC5F9A5E9884B1806984B98AB1ED
:100B4000806F8AB9E0EBF0E08081886680838081E5
:100B50008260808384B5886684BD84B5826084BDEC
:100B60008AE087BD8883DF91CF9108955C9A5D9874
:100B70002C9A5F9A5E982F9A08951F920F920FB643
:100B80000F9211242F933F934F935F936F937F9313
:100B90008F939F93EF93FF9380912801409188005A
:100BA0005091890080FD30C08695E82FF0E0EE0F6F
:100BB000FF1FEF5CFE4F20813181240F351F3093E2
:100BC00089002093880048B121E030E0B90102C0DB
:100BD000660F771F8A95E2F7CB01842B88B9809145
:100BE00028018F5F877080932801FF91EF919F917B
:100BF0008F917F916F915F914F913F912F910F90C6
:100C00000FBE0F901F9018958695E82FF0E0EE0F1D
:100C1000FF1FE75DFE4F20813181240F351F309388
:100C200089002093880048B121E030E0B90102C07A
:100C3000660F771F8A95E2F7CB018095842388B9E8
:100C4000CECF90E02AE0629FB00111246C53764F22
:100C5000880F991FFC01EF5CFE4F71836083FC01DC
:100C6000E75DFE4F24ED30E3261B370B31832083F5
:100C70000895A1E3B1E024EC39E011963C932E9362
:100C8000E9E2F1E080E197E29183808313963C935F
:100C90002E9312979383828315963C932E931497E9
:100CA0009583848317963C932E9316979783868318
:100CB00087B18F6087B9E1E8F0E0108280818260BF
:100CC0008083EFE6F0E080818260808378940895ED
:100CD0008CB18095881F8827881F0895482F50E081
:100CE0004E30510510F080E00895FA01E25DFF4FAB
:100CF0000C94080823B130E08950A90102C0559531
:100D000047958A95E2F7CA018170089583B1869567
:100D1000817008952CB130E0A90102C05595479526
:100D20008A95E2F7CA018170089522B330E08F5F9F
:100D3000A90102C0559547958A95E2F7CA018170CD
:100D400008958CB186FB882780F9089523B1E3CFFD
:100D500026B130E08250A90102C0559547958A9589
:100D6000E2F7CA018170089583B181700895962FCA
:100D7000482F50E04E30510540F4FA01E45CFF4F3B
:100D80000C940808611164C02198089544B18950F9
:100D900021E030E0B90102C0660F771F8A95E2F7C3
:100DA0009923F1F1CB01842B84B908954DB121E051
:100DB00030E0B90102C0660F771F8A95E2F79923E8
:100DC00009F43FC0CB01842B8DB9089543B38F5FE5
:100DD00021E030E0B90102C0660F771F8A95E2F783
:100DE000992329F1CB01842B83BB08956623E9F075
:100DF0006E9A089547B1825021E030E0B90102C0F7
:100E0000660F771F8A95E2F79923B1F0CB01842B07
:100E100087B9089544B1BCCF6623C1F0209A0895E4
:100E2000CB018095842384B908956E980895CB01F1
:100E30008095842383BB0895CB018095842387B953
:100E40000895CB01809584238DB908952098089545
:100E5000219A0895962F482F50E04E30510540F4C6
:100E6000FA01E65BFF4F0C940808611164C02998F1
:100E7000089545B1895021E030E0B90102C0660F04
:100E8000771F8A95E2F79923F1F1CB01842B85B97D
:100E900008954EB121E030E0B90102C0660F771F1E
:100EA0008A95E2F7992309F43FC0CB01842B8EB9D0
:100EB000089544B38F5F21E030E0B90102C0660FAE
:100EC000771F8A95E2F7992329F1CB01842B84BB04
:100ED00008956623E9F0769A089548B1825021E09A
:100EE00030E0B90102C0660F771F8A95E2F79923B7
:100EF000B1F0CB01842B88B9089545B1BCCF6623EE
:100F0000C1F0289A0895CB018095842385B908956E
:100F100076980895CB018095842384BB0895CB01F6
:100F20008095842388B90895CB01809584238EB958
:100F3000089528980895299A0895811104C0613070
:100F400031F0A0980895613021F0A1980895A09AF9
:100F50000895A19A0895882311F0A19A0895A09A5E
:100F60000895882311F0A1980895A0980895529AA1
:100F700083B3836083BB779A0E945F010E94D20390
:100F80000E9439060E94920541E06AE28CE10E94CB
:100F900035032FEF81EE94E0215080409040E1F73F
:100FA00000C000000C949F010E94B70780E00E94DF
:100FB00077006FE780E00E9421060E942101FDCFAB
:100FC000AA1BBB1B51E107C0AA1FBB1FA617B7076F
:100FD00010F0A61BB70B881F991F5A95A9F780958B
:100FE0009095BC01CD01089597FB072E16F400944F
:100FF00007D077FD09D00E94E00707FC05D03EF43A
:10100000909581959F4F0895709561957F4F0895B4
:10101000EE0FFF1F0590F491E02D0994A29FB001FF
:10102000B39FC001A39F700D811D1124911DB29F1C
:10103000700D811D1124911D08950E94910888F062
:101040009F5798F0B92F9927B751B0F0E1F0660F8C
:10105000771F881F991F1AF0BA95C9F714C0B130CD
:1010600091F00E94AB08B1E008950C94AB08672F93
:10107000782F8827B85F39F0B93FCCF386957795FC
:101080006795B395D9F73EF49095809570956195E5
:101090007F4F8F4F9F4F0895E89409C097FB3EF410
:1010A00090958095709561957F4F8F4F9F4F9923B5
:1010B000A9F0F92F96E9BB279395F6958795779533
:1010C0006795B795F111F8CFFAF4BB0F11F460FFF3
:1010D0001BC06F5F7F4F8F4F9F4F16C0882311F04B
:1010E00096E911C0772321F09EE8872F762F05C05F
:1010F000662371F096E8862F70E060E02AF09A95FA
:10110000660F771F881FDAF7880F9695879597F9EE
:10111000089557FD9058440F551F59F05F3F71F0E7
:101120004795880F97FB991F61F09F3F79F087954E
:101130000895121613061406551FF2CF4695F1DFD7
:1011400008C0161617061806991FF1CF8695710567
:10115000610508940895E894BB2766277727CB019B
:1011600097F908950E94C5080C9436090E94280931
:1011700038F00E942F0920F0952311F00C941F09DC
:101180000C94250911240C94AC080E94890870F372
:10119000959FC1F3950F50E0551F629FF001729F1C
:1011A000BB27F00DB11D639FAA27F00DB11DAA1F2B
:1011B000649F6627B00DA11D661F829F2227B00D78
:1011C000A11D621F739FB00DA11D621F839FA00D03
:1011D000611D221F749F3327A00D611D231F849F53
:1011E000600D211D822F762F6A2F11249F575040AA
:1011F0009AF0F1F088234AF0EE0FFF1FBB1F661F25
:10120000771F881F91505040A9F79E3F510580F0ED
:101210000C941F090C94AC085F3FE4F3983ED4F3A0
:10122000869577956795B795F795E7959F5FC1F791
:10123000FE2B880F911D9695879597F9089597F93C
:101240009F6780E870E060E008959FEF80EC08956C
:1012500000240A9416161706180609060895002495
:101260000A9412161306140605060895092E03940F
:10127000000C11F4882352F0BB0F40F4BF2B11F483
:1012800060FF04C06F5F7F4F8F4F9F4F0895F894AA
:02129000FFCF8E
:101292004C3A20002020202000523A200061646451
:1012A200724E41434B0077725F4E41434B00726571
:0812B20061644E41434B000052
:00000001FF
