:100000000C946C000C9489000C9489000C94890069
:100010000C9489000C9489000C9489000C94600F56
:100020000C9489000C9489000C9489000C9489002C
:100030000C9489000C9489000C9489000C9489001C
:100040000C9489000C9489000C9489000C9489000C
:100050000C9489000C9489000C9489002D102D10AB
:10006000381038104410491049104B104B104B10E9
:1000700057101D101D102910791079108910891042
:100080009910AD10AD109D109D109D10AF1069100E
:1000900069106510EC10EC10FC10FC100C11201114
:1000A00020111011101110112211DC10DC10D810C9
:1000B00007634236B79BD8A71A39685618AEBAAB51
:1000C000558C1D3CB7CC5763BD6DEDFD753EF617E5
:1000D0007231BF000000803F11241FBECFEFD0E17E
:1000E000DEBFCDBF11E0A0E0B1E0E8EFFCE202C06E
:1000F00005900D92A836B107D9F722E0A8E6B1E045
:1001000001C01D92A936B207E1F70E9477110C9445
:100110007A160C940000082E000C990B9C01220FFB
:10012000331F820F931F6AE070E00E94AC12615887
:1001300081E00C94C40F882361F02DEF6202C001AE
:1001400011246AE070E00E94AC12615880E00C94C7
:10015000C40F862F0C948B00EF92FF920F931F9386
:10016000CF93DF93009701F18C01E12CF12CC0E0DB
:10017000D0E00AC08FE99FE00197F1F700C00000CE
:1001800021960C171D0741F00E940B10813091F74A
:10019000EE24E394F12CEECFC701DF91CF911F91B4
:1001A0000F91FF90EF90089580E090E0F6CFFB0173
:1001B00038963291229133832283E617F707C9F7E5
:1001C000918380830895FC019C01265F3F4F60E08E
:1001D00070E081919191680F791F2E173F07C9F741
:1001E000072E000C880B990B0E94261420E030E0AB
:1001F00040EA50E40E944213089569E2869F612D0F
:10020000112462956F7070E080E090E00E942614E7
:10021000089520E030E048EC52E40E944F150E941F
:10022000F513862F08954F925F926F927F928F926F
:100230009F92AF92BF92CF92DF92EF92FF920F9375
:100240001F93CF93DF93CDB7DEB728970FB6F894FF
:10025000DEBF0FBECDBF082F10E0061B1109E0ED79
:10026000F1E0E680F780F186E086C480D580D78211
:10027000C6828281938195838483208131813383F7
:10028000228311830083200F311F820F931FC80E1A
:10029000D91EB801012E000C880B990B0E94261460
:1002A0002DEC3CEC4CE45EE30E944F152B013C012D
:1002B0006091CE017091CF01600F711F072E000C6D
:1002C000880B990B0E9426142DEC3CEC4CE45DE36A
:1002D0000E944F154B015C01B6016E0D7F1D072E6C
:1002E000000C880B990B0E94261420E030E040EAB5
:1002F00050E40E9442132DEC3CEC4CEC5DE30E9478
:100300004F156B017C011093CF010093CE0120E0CB
:1003100030E044E352E4C301B2010E94D612A501C9
:1003200094010E94D612A70196010E94D6120E9443
:10033000EE1309E2609F612D112462956F7070E0E9
:1003400080E090E00E942614162FAB01BC01498387
:100350005A836B837C83A301920160E070E084E3A5
:1003600092E40E94D512A50194010E94D512A70122
:1003700096010E94D5120E94EE13609F612D1124F8
:1003800062956F7070E080E090E00E942614E62F86
:10039000462F572FBC014D835E836F837887212FB3
:1003A0003A814B815C816E2F7E818F819885289662
:1003B0000FB6F894DEBF0FBECDBFDF91CF911F9176
:1003C0000F91FF90EF90DF90CF90BF90AF909F90F4
:1003D0008F907F906F905F904F900895CF93DF93B1
:1003E0000E941616CCE7D1E0BC01990F880B990B3F
:1003F0000E94261420E03EEF4FEF56E40E94421385
:10040000688379838A839B830E941616BC01990FA7
:10041000880B990B0E94261420E03EEF4FEF56E424
:100420000E9442136C837D838E839F830E941616E5
:10043000BC01990F880B990B0E94261420E03EEF17
:100440004FEF56E40E9442136C877D878E879F870B
:100450000E941616BC01990F880B990B0E94261456
:1004600020E03EEF4FEF56E40E944213688B798BF9
:100470008A8B9B8B0E941616BC01990F880B990BD7
:100480000E94261420E03EEF4FEF56E40E944213F4
:100490006C8B7D8B8E8B9F8B0E941616BC01990FE7
:1004A000880B990B0E94261420E03EEF4FEF56E494
:1004B0000E9442136C8F7D8F8E8F9F8F0E94161625
:1004C000BC01990F880B990B0E94261420E03EEF87
:1004D0004FEF56E40E94421368A379A38AA39BA31B
:1004E0000E941616BC01990F880B990B0E942614C6
:1004F00020E03EEF4FEF56E40E9442136CA37DA331
:100500008EA39FA30E941616BC01990F880B990B0E
:100510000E94261420E03EEF4FEF56E40E94421363
:100520006CA77DA78EA79FA70E941616BC01990FE6
:10053000880B990B0E94261420E03EEF4FEF56E403
:100540000E94421368AB79AB8AAB9BAB0E94161634
:10055000BC01990F880B990B0E94261420E03EEFF6
:100560004FEF56E40E9442136CAB7DAB8EAB9FAB5A
:100570000E941616BC01990F880B990B0E94261435
:1005800020E03EEF4FEF56E40E94421368AF79AF90
:100590008AAF9BAF0E941616BC01990F880B990B6E
:1005A0000E94261420E03EEF4FEF56E40E944213D3
:1005B0006CAF7DAF8EAF9FAF0E941616BC01990F36
:1005C000880B990B0E94261420E03EEF4FEF56E473
:1005D0000E9442136093BC017093BD018093BE01E1
:1005E0009093BF010E941616BC01990F880B990BBE
:1005F0000E94261420E03EEF4FEF56E40E94421383
:100600006093C0017093C1018093C2019093C301B4
:100610000E941616BC01990F880B990B0E94261494
:1006200020E03EEF4FEF56E40E9442136093C40176
:100630007093C5018093C6019093C7010E9416165E
:10064000BC01990F880B990B0E94261420E03EEF05
:100650004FEF56E40E9442136093C8017093C901A2
:100660008093CA019093CB01DF91CF9108950F93AE
:100670001F93CF93DF931092CD011092CC0180E0B5
:100680000E940D0BD82F81E00E940D0BC82FE09126
:10069000CC01F091CD01EE0FFF1FE552FE4FD0834C
:1006A000C1830E94F40E60E080E00E94540D84E05B
:1006B00091E00E94450E8091CC019091CD010E9465
:1006C0006A0E8BE291E00E94450E61E080E00E949C
:1006D000540D8AE091E00E94450E8D2F90E00E941B
:1006E0006A0E61E084E00E94540D8CE091E00E946B
:1006F000450E8C2F90E00E946A0EC1E0D0E000E031
:1007000010E00E940B10813079F08FE99FE0019793
:10071000F1F700C00000CC3291E0D90799F02196A2
:100720000E940B10813089F78FE99FE00197F1F764
:1007300000C00000CC3291E0D907E1F001E010E008
:100740002196EECF012BB1F48091CC019091CD0197
:1007500001969093CD018093CC01C2970CF48FCF7A
:100760000E94F40E60E080E00E94540D8EE091E063
:100770000E94450E8091CC019091CD01DF91CF91E7
:100780001F910F9108952F923F924F925F926F9217
:100790007F928F929F92AF92BF92CF92DF92EF9211
:1007A000FF920F931F93CF93DF93CDB7DEB72C97B4
:1007B0000FB6F894DEBF0FBECDBFFE0131968AE0C2
:1007C000DF011D928A95E9F7C12CD12C8AE0282EF1
:1007D000312CB3C00E940D0B082F81E00E940D0B3D
:1007E00010E0081B1109AF80B884BA86A986ED8095
:1007F000FE80F886EF828B819C819E838D83298188
:100800003A813C832B831A830983200F311F820F87
:10081000931F4C018E0C9F1CB801012E000C880BFD
:10082000990B0E9426142DEC3CEC4CE45EE30E94F4
:100830004F152B013C01B601600F711F072E000CF4
:10084000880B990B0E9426142DEC3CEC4CE45DE3E4
:100850000E944F156B017C01B501680D791D072EB3
:10086000000C880B990B0E94261420E030E040EA2F
:1008700050E40E9442132DEC3CEC4CEC5DE30E94F2
:100880004F154B015C0120E030E044E352E4C3012A
:10089000B2010E94D612A70196010E94D612A501AC
:1008A00094010E94D6120E94EE136B877C87A301ED
:1008B000920160E070E084E392E40E94D512A70107
:1008C00096010E94D512A50194010E94D5120E94A2
:1008D000EE13D62EC72E8B850E948B00BD2D2DEFDB
:1008E000B202C0011124B1010E94AC12615880E033
:1008F0000E94C40F0E94F40E60E080E00E94540D3C
:1009000087E191E00E94450E8B859C850E946A0ECE
:100910008BE291E00E94450E61E080E00E94540D60
:100920008BE191E00E94450E8D2D9C2D0E946A0E58
:100930008BE291E00E94450E68010E940B10882313
:1009400009F448CF2C960FB6F894DEBF0FBECDBF8A
:10095000DF91CF911F910F91FF90EF90DF90CF909B
:10096000BF90AF909F908F907F906F905F904F90CF
:100970003F902F900895009769F020E030E0EFE974
:10098000FFE03197F1F700C000002F5F3F4F821763
:100990009307A9F70895EF92FF920F931F93CF93B8
:1009A000DF930E94F40E60E080E00E94540D8FE11E
:1009B00091E00E94450EE12CF12C0E94050D8F3133
:1009C00008F067C00E94050D893C08F059C00E94DC
:1009D000010D893C08F04BC00E94010D8531D8F50E
:1009E000F7FC42C061E080E00E94540DC7010E9404
:1009F0006A0E88E291E00E94450EC1E0D0E000E07E
:100A000010E00E940B10813071F08FE99FE0019798
:100A1000F1F700C00000C233D10591F021960E9489
:100A20000B10813091F78FE99FE00197F1F700C03B
:100A30000000C233D10539F001E010E02196EFCF7C
:100A4000012B09F4BACFC701DF91CF911F910F910C
:100A5000FF90EF9008950E94010D863408F69AE009
:100A6000E90EF11CF7FEBECFE12CF12CBBCF0E94AA
:100A7000010D863E08F0B0CF8AE0E81AF108ACCF4D
:100A80000E94050D8A3F08F0A2CF9FEFE91AF90AEC
:100A90009ECF0E94050D863408F094CF81E0E81ABD
:100AA000F10890CF2F923F924F925F926F927F9278
:100AB0008F929F92AF92BF92CF92DF92EF92FF926E
:100AC0000F931F93CF93DF93CDB7DEB7CC54D109EB
:100AD0000FB6F894DEBF0FBECDBF29833A834B8398
:100AE0005C836D837E838F839887A986BA86CB8645
:100AF000DC86ED86FE860F87188B140149845A84A4
:100B00006B847C84CD84DE84EF84F88829813A81EB
:100B10004B815C81C301B2010E94D5124B015C0183
:100B2000A301920160E070E080E89FE30E94D5128B
:100B3000A30192010E944F159B01AC01C501B401B4
:100B40000E944F15698B7A8B8B8B9C8B0CE711E085
:100B5000D801D0968D919D910D90BC91A02D8DA71F
:100B60009EA7AFA7B8AB2D813E814F815885C701A5
:100B7000B6010E94D5122B013C01A701960160E04D
:100B800070E080E89FE30E94D512A70196010E94C1
:100B90004F159B01AC01C301B2010E944F152B01FF
:100BA0003C01ACEBB1E08D919D910D90BC91A02DDD
:100BB00089AB9AABABABBCAB8091780190917901DA
:100BC000A0917A01B0917B01898F9A8FAB8FBC8FF6
:100BD0002DA53EA54FA558A969897A898B899C893D
:100BE0000E944F156B017C0129A93AA94BA95CA968
:100BF000C301B2010E944F159B01AC01C701B601B0
:100C00000E94D6126B017C01298D3A8D4B8D5C8D33
:100C100060E070E080E89FE30E94D512298D3A8D54
:100C20004B8D5C8D0E944F159B01AC01C701B60135
:100C30000E944F1569A77AA78BA79CA7B101330C17
:100C4000880B990B0E9426146D8F7E8F8F8F98A32F
:100C5000A3966EAD7FADA397072E000C880B990B62
:100C60000E9426146D8B7E8B8F8B988F9B01AC011D
:100C700069A57AA58BA59CA50E944F152AE939E99B
:100C800049E95EE30E944F159B01AC01D80114961F
:100C90006D917D918D919C9117970E94D5126DABAE
:100CA0007EAB8FAB98AF2AE939E949E95EE369A5E4
:100CB0007AA58BA59CA50E944F15F8012485358542
:100CC000468557850E94D61269AF7AAF8BAF9CAF2D
:100CD000C0907401D0907501E0907601F09077019A
:100CE000D801D4962D913D914D915C91D79769890A
:100CF0007A898B899C890E944F154B015C0180EC9D
:100D0000282E81E0382EF1012081318142815381EA
:100D1000C301B2010E944F159B01AC01C501B40192
:100D20000E94D6124B015C01A701960160E070E0C1
:100D300080E89FE30E94D512A70196010E944F15FB
:100D40009B01AC01C501B4010E944F156B017C01F0
:100D50009B01AC016D8D7E8D8F8D98A10E944F15EA
:100D60002AE939E949E95EE30E944F159B01AC018C
:100D7000D80150966D917D918D919C9153970E94D1
:100D8000D51221966CAF7DAF8EAF9FAF2197A70193
:100D900096016D897E898F89988D0E944F152AE969
:100DA00039E949E95EE30E944F159B01AC01F80166
:100DB00064897589868997890E94D51225966CAFBA
:100DC0007DAF8EAF9FAF25972AE939E949E95EE308
:100DD000C701B6010E944F15D8015C962D913D9137
:100DE0004D915C915F970E94D61229966CAF7DAFB2
:100DF0008EAF9FAF2997D801D8968D919D910D9078
:100E0000BC91A02D89A39AA3ABA3BCA38091C401DC
:100E10009091C501A091C601B091C7018DA39EA379
:100E2000AFA3B8A78090700190907101A09072015B
:100E3000B090730129A13AA14BA15CA169897A897B
:100E40008B899C890E944F156B017C012DA13EA1CD
:100E50004FA158A5C301B2010E944F159B01AC01DF
:100E6000C701B6010E94D6126B017C01A501940155
:100E700060E070E080E89FE30E94D512A501940134
:100E80000E944F159B01AC01C701B6010E944F158E
:100E90006B017C019B01AC016D8D7E8D8F8D98A1C6
:100EA0000E944F152AE939E949E95EE30E944F158E
:100EB0009B01AC01D80190966D917D918D919C9193
:100EC00093970E94D5122D966CAF7DAF8EAF9FAFDA
:100ED0002D97A70196016D897E898F89988D0E9433
:100EE0004F152AE939E949E95EE30E944F159B0154
:100EF000AC01F80164A175A186A197A10E94D51249
:100F00006D8B7E8B8F8B988F2AE939E949E95EE3F7
:100F1000C701B6010E944F15D8019C962D913D91B5
:100F20004D915C919F970E94D6126B017C012D8D93
:100F30003E8D4F8D58A169A57AA58BA59CA50E94D1
:100F40004F152AE939E949E95EE30E944F159B01F3
:100F5000AC01F80160817181828193810E94D51278
:100F6000D8016D937D938D939C9313978DA99EA922
:100F7000AFA9B8ADF80184839583A683B78389AD03
:100F80009AADABADBCAD84879587A687B787219610
:100F90008CAD9DADAEADBFAD2197808B918BA28BFB
:100FA000B38B25968CAD9DADAEADBFAD2597848B33
:100FB000958BA68BB78B29968CAD9DADAEADBFAD95
:100FC0002997848F958FA68FB78F2D968CAD9DAD69
:100FD000AEADBFAD2D9780A391A3A2A3B3A38D897E
:100FE0009E89AF89B88D84A395A3A6A3B7A3C4A6F1
:100FF000D5A6E6A6F7A6298D3A8D4B8D5C8D69891D
:101000007A898B899C890E944F152AE939E949E937
:101010005EE30E944F159B01AC016DA57EA58FA5D7
:1010200098A90E94D512F80160AB71AB82AB93AB6B
:10103000A501940169897A898B899C890E944F1541
:101040002AE939E949E95EE30E944F159B01AC01A9
:1010500069A17AA18BA19CA10E94D512D801D49636
:101060006D937D938D939C93D7972AE939E949E94C
:101070005EE369897A898B899C890E944F1529A131
:101080003AA14BA15CA10E94D612F80164AF75AFE2
:1010900086AF97AF298D3A8D4B8D5C8DC301B20120
:1010A0000E944F152AE939E949E95EE30E944F158C
:1010B0009B01AC0169A97AA98BA99CA90E94D512B0
:1010C000ACEBB1E06D937D938D939C931397A50149
:1010D0009401C301B2010E944F152AE939E949E997
:1010E0005EE30E944F159B01AC016DA17EA18FA113
:1010F00098A50E94D512F101608371838283938346
:101100002AE939E949E95EE3C301B2010E944F15BA
:101110002DA13EA14FA158A50E94D6126093C801EF
:101120007093C9018093CA019093CB01C45BDF4FD8
:101130000FB6F894DEBF0FBECDBFDF91CF911F91E8
:101140000F91FF90EF90DF90CF90BF90AF909F9066
:101150008F907F906F905F904F903F902F90089569
:101160004F925F926F927F928F929F92AF92BF92B7
:10117000CF92DF92EF92FF920F931F93CF93DF9363
:10118000CDB7DEB760970FB6F894DEBF0FBECDBF08
:10119000162F682F70E080E090E00E9426144B012B
:1011A0005C01612F70E080E090E00E9426146B01EA
:1011B0007C010CE711E0F8012089318942895389CB
:1011C000C501B4010E944F152B013C01F80124898F
:1011D000358946895789C701B6010E944F159B0181
:1011E000AC01C301B2010E94D612F801248D358DE5
:1011F000468D578D0E94D51269877A878B879C8789
:10120000F80120A131A142A153A1C501B4010E945E
:101210004F152B013C01F80124A135A146A157A18E
:10122000C701B6010E944F159B01AC01C301B20179
:101230000E94D612F80124A535A546A557A50E94FF
:10124000D5126D877E878F87988BF8012081318139
:1012500042815381C501B4010E944F154B015C01CD
:10126000F8012481358146815781C701B6010E946A
:101270004F159B01AC01C501B4010E94D612F801C3
:1012800024853585468557850E94D51290580E9441
:10129000BC1320E030E040E85FE30E94D6129B01DF
:1012A000AC0160E070E080E89FE30E9442132B01F4
:1012B0003C01609378017093790180937A01909357
:1012C0007B0169857A858B859C8590580E94BC132B
:1012D00020E030E040E85FE30E94D6129B01AC01C1
:1012E00060E070E080E89FE30E9442134B015C01E4
:1012F00060937401709375018093760190937701E8
:101300006D857E858F85988990580E94BC1320E05A
:1013100030E040E85FE30E94D6129B01AC0160E040
:1013200070E080E89FE30E9442136B017C016093B0
:1013300070017093710180937201909373012091F9
:10134000BC013091BD014091BE015091BF01C3016C
:10135000B2010E944F1569877A878B879C872091FD
:10136000C0013091C1014091C2015091C301C5013A
:10137000B4010E944F159B01AC0169857A858B856C
:101380009C850E94D61269877A878B879C872091DB
:10139000C4013091C5014091C6015091C701C701F8
:1013A000B6010E944F159B01AC0169857A858B853A
:1013B0009C850E94D6122091C8013091C9014091AC
:1013C000CA015091CB010E94D51269877A878B8719
:1013D0009C87F80120A931A942A953A9C301B201F0
:1013E0000E944F152B013C01F80124A935A946A9FB
:1013F00057A9C501B4010E944F159B01AC01C3015F
:10140000B2010E94D6124B015C01F80120AD31AD52
:1014100042AD53ADC701B6010E944F159B01AC010F
:10142000C501B4010E94D612F80124AD35AD46AD18
:1014300057AD0E94D51290580E94BC1320E030E0B6
:1014400040E85FE30E94D6129B01AC0160E070E0CF
:1014500080E89FE30E944213162FA72EB82E092F73
:10146000862F9A2DAB2DB02F80936C0190936D0138
:10147000A0936E01B0936F0169857A858B859C85F9
:1014800090580E94BC1320E030E040E85FE30E94E7
:10149000D6129B01AC0160E070E080E89FE30E94FF
:1014A00042136B017C01C0926801D0926901E09205
:1014B0006A01F0926B01C12EDA2CEB2CF02EC9825E
:1014C000DA82EB82FC826B017C01CD82DE82EF82CC
:1014D000F886212F3A814B815C817E818F819885AE
:1014E00060960FB6F894DEBF0FBECDBFDF91CF91EF
:1014F0001F910F91FF90EF90DF90CF90BF90AF9032
:101500009F908F907F906F905F904F9008958F92F3
:101510009F92AF92BF92CF92DF92EF92FF920F9382
:101520001F93CF93DF93CDB7DEB728970FB6F8940C
:10153000DEBF0FBECDBF29833A834B835C836D83AF
:101540007E838F83988789809A80AB80BC80CD8092
:10155000DE80EF80F88460E080E00E94540D80E33C
:1015600091E00E94450E20E030E048EC52E4C501D5
:10157000B4010E944F150E94F513062F862F90E0AC
:101580000E946A0E8AE291E00E94450E61E080E0CE
:101590000E94540D86E391E00E94450E20E030E069
:1015A00048EC52E4C701B6010E944F150E94F513A2
:1015B000162F862F90E00E946A0E8AE291E00E9428
:1015C000450E802F0E948B002DEF1202C0011124C6
:1015D0006AE070E00E94AC12615880E028960FB675
:1015E000F894DEBF0FBECDBFDF91CF911F910F9159
:1015F000FF90EF90DF90CF90BF90AF909F908F9033
:101600000C94C40FEAE7F0E0808187688083ECE700
:10161000F0E0808180668083089590917C00987FBF
:1016200090937C0090917C00892B80937C0080912A
:101630007A00806480937A0080917A0086FDFCCFE6
:101640008091790008958DB18F7C8DB985E08A9560
:10165000F1F700006D9A759885E08A95F1F7000022
:101660006C9A749885E08A95F1F7000008956C985B
:1016700085E08A95F1F700006D9885E08A95F1F78D
:10168000000008956D9885E08A95F1F7000065994E
:101690000DC06C9885E08A95F1F700006C9A7498FB
:1016A00085E08A95F1F70000659BF3CF6C9808956B
:1016B0006C9885E08A95F1F700006C9A749885E043
:1016C0008A95F1F7000008951F93CF93DF93D82FE9
:1016D000C62F142F0E94420B0E94230B87E013C0D9
:1016E0006D9895E09A95F1F700006C9895E09A95C1
:1016F000F1F700006C9A749895E09A95F1F7000064
:10170000DD0F815029F0D6FDEBCF6D9A7598E9CFAA
:101710006D9A759885E08A95F1F700006C9895E0D0
:101720009A95F1F700006C9A749885E08A95F1F724
:1017300000006D9895E09A95F1F700006C98659B14
:1017400005C08DE491E00E94450EFFCF85E08A95AB
:10175000F1F700006C9A749895E09A95F1F7000003
:1017600088E014C06D9A759895E09A95F1F700009D
:101770006C9895E09A95F1F700006C9A749895E052
:101780009A95F1F70000CC0F815021F0C7FFEACF06
:101790006D98EACF6D9885E08A95F1F700006C9816
:1017A000659B05C089E591E00E94450EFFCF95E05D
:1017B0009A95F1F700006C9A749885E08A95F1F794
:1017C0000000112351F06C9895E09A95F1F7000014
:1017D0006D9885E08A95F1F70000DF91CF911F9118
:1017E0000895FC016623D1F14FEF460F50E04F5FA3
:1017F0005F4F480F591F908128E016C06D9A759869
:1018000085E08A95F1F700006C9885E08A95F1F7FC
:1018100000006C9A749885E08A95F1F70000908139
:10182000990F9083215021F097FFE8CF6D98E8CF72
:1018300031966D9885E08A95F1F700006C9865996E
:1018400018C085E08A95F1F700006C9A749885E0DD
:101850008A95F1F70000E417F50769F66C9885E0C2
:101860008A95F1F700006D9885E08A95F1F7000000
:10187000089586E591E00E94450EFFCF0F931F93D8
:10188000CF93DF93082FEB01142F0E94230B87E0E7
:1018900013C06D9895E09A95F1F700006C9895E06B
:1018A0009A95F1F700006C9A749895E09A95F1F783
:1018B0000000000F815029F006FDEBCF6D9A75985E
:1018C000E9CF6D9885E08A95F1F700006C9895E076
:1018D0009A95F1F700006C9A749885E08A95F1F773
:1018E00000006D9895E09A95F1F700006C98659B63
:1018F00005C08EE591E00E94450EFFCF85E08A95F8
:10190000F1F700006C9A749895E09A95F1F7000051
:101910006D9885E08A95F1F700001123B1F12FEF62
:10192000210F30E02F5F3F4F2C0F3D1F98E0888143
:10193000880F88836C9885E08A95F1F70000659B95
:1019400003C088818160888385E08A95F1F7000073
:101950006C9A749885E08A95F1F70000915039F7F8
:101960006D9A759895E09A95F1F700006C9885E06E
:101970008A95F1F700006C9A749895E09A95F1F7C2
:10198000000021962C173D0789F695E09A95F1F70E
:1019900000006C9885E08A95F1F700006D9895E05D
:1019A0009A95F1F70000DF91CF911F910F91089563
:1019B000CF93DF931F92CDB7DEB7498340E00E94FB
:1019C000640B61E0CE0101960E94F10B0F90DF9154
:1019D000CF9108951F93CF93DF931F92CDB7DEB7BA
:1019E000182F41E00E94640B41E0BE016F5F7F4F02
:1019F000812F0E943E0C89810F90DF91CF911F9122
:101A0000089561E08CE10C94EA0C63E08CE10C94A5
:101A1000EA0C65E08CE10C94EA0C8AE08A95F1F717
:101A200000C0449A8AE08A95F1F700C044988AE0A1
:101A30008A95F1F700C00895F89482B98AE08A95F2
:101A4000F1F700C0449A8AE08A95F1F700C0449803
:101A50008AE08A95F1F700C0789408958F98F894F9
:101A600082B98AE08A95F1F700C0449A8AE08A95A3
:101A7000F1F700C044988AE08A95F1F700C07894A5
:101A800008958F9AF89482B98AE08A95F1F700C098
:101A9000449A8AE08A95F1F700C044988AE08A95D2
:101AA000F1F700C078940895803110F4623008F0A6
:101AB000089590E4699F800D112480588F98F894C0
:101AC00082B98AE08A95F1F700C0449A9AE09A9523
:101AD000F1F700C044988AE08A95F1F700C0789445
:101AE00095EC9A95F1F7000008953C9A879A8FEF4C
:101AF00081B98FE19EE40197F1F700C000008F9853
:101B0000F89488E382B99AE09A95F1F700C0449A74
:101B1000EAE0EA95F1F700C04498FAE0FA95F1F7A7
:101B200000C07894EFE7F2E03197F1F700C00000D1
:101B30008F98F89482B9FAE0FA95F1F700C0449AC8
:101B40009AE09A95F1F700C04498EAE0EA95F1F737
:101B500000C07894EFE7F2E03197F1F700C00000A1
:101B60008F98F89482B9FAE0FA95F1F700C0449A98
:101B70009AE09A95F1F700C04498EAE0EA95F1F707
:101B800000C07894EFE7F2E03197F1F700C0000071
:101B90008F98F89498E092B9FAE0FA95F1F700C0BE
:101BA000449A9AE09A95F1F700C04498EAE0EA95E1
:101BB000F1F700C07894EFE7F2E03197F1F700C059
:101BC00000008F98F89491E092B9FAE0FA95F1F755
:101BD00000C0449A9AE09A95F1F700C04498EAE070
:101BE000EA95F1F700C07894EFE7FEE33197F1F75B
:101BF00000C000008F98F89496E092B9FAE0FA9548
:101C0000F1F700C0449A9AE09A95F1F700C0449821
:101C1000EAE0EA95F1F700C07894EFE7F2E0319757
:101C2000F1F700C000008F98F89482B9FAE0FA95B5
:101C3000F1F700C0449A8AE08A95F1F700C0449811
:101C40009AE09A95F1F700C07894EFE8F1E03197C7
:101C5000F1F700C000008F98F8948CE082B9FAE0A8
:101C6000FA95F1F700C0449A8AE08A95F1F700C02E
:101C700044989AE09A95F1F700C07894EFE8F1E083
:101C80003197F1F700C000000895DC019C91992381
:101C900001F120E08F9AF89492B98AE08A95F1F7E1
:101CA00000C0449A9AE09A95F1F700C044988AE0FF
:101CB0008A95F1F700C078948FE792E00197F1F7E9
:101CC00000C000002F5FFD01E20FF11D9081911116
:101CD000E1CF08951F93CF93DF93FC01892B09F483
:101CE00066C045E011E02FE037E2E9012196CF011F
:101CF000BE010E94981261111DC02E173F0708F007
:101D000052C01123A9F111E0CF01BE010E94981227
:101D1000FC01ADECBCEC0E94C6129C0136952795E7
:101D200036952795369527954150F9F6DF91CF9155
:101D30001F9108952E173F07D8F0605D8F9AF89491
:101D400062B99AE09A95F1F700C0449A8AE08A95C0
:101D5000F1F700C044989AE09A95F1F700C07894A2
:101D60008FE792E00197F1F700C0000010E0D1CFBB
:101D7000605D8F9AF89462B99AE09A95F1F700C085
:101D8000449A8AE08A95F1F700C044989AE09A95BF
:101D9000F1F700C078948FE792E00197F1F700C067
:101DA000000010E0B1CF112341F211E0B2CF8F9AC1
:101DB000F89480E382B98AE08A95F1F700C0449AEA
:101DC0009AE09A95F1F700C044988AE08A95F1F775
:101DD00000C078948FE792E00197F1F700C000000F
:101DE000DF91CF911F9108958F98F89481E082B987
:101DF0008AE08A95F1F700C0449A9AE09A95F1F743
:101E000000C044988AE08A95F1F700C078948FE783
:101E10009EE30197F1F700C0000008955D9A5C9879
:101E20000895262F3FEF81110EC06303C0011124D6
:101E300064E670E00E94AC126093B30012169CF44A
:101E40005C9A5D9808956303C001112464E670E014
:101E50000E94AC1267BD12161CF45E9A5F9808953A
:101E60005F9A5E9808950C940E0FCF93DF93C3EBA7
:101E7000D0E018820E940E0F17BC5F9A5E9884B162
:101E8000806984B98AB1806F8AB9E0EBF0E0808123
:101E90008866808380818260808384B5886684BD03
:101EA00084B5826084BD8AE087BD8883DF91CF914D
:101EB00008955C9A5D982C9A5F9A5E982F9A08957F
:101EC0001F920F920FB60F9211242F933F934F93AF
:101ED0005F936F937F938F939F93EF93FF93809183
:101EE000DA01409188005091890080FD30C08695CC
:101EF000E82FF0E0EE0FFF1FEF59FD4F20813181F9
:101F0000240F351F309389002093880048B121E0C9
:101F100030E0B90102C0660F771F8A95E2F7CB0166
:101F2000842B88B98091DA018F5F87708093DA0102
:101F3000FF91EF919F918F917F916F915F914F9161
:101F40003F912F910F900FBE0F901F90189586957F
:101F5000E82FF0E0EE0FFF1FE75AFD4F208131819F
:101F6000240F351F309389002093880048B121E069
:101F700030E0B90102C0660F771F8A95E2F7CB0106
:101F80008095842388B9CECF90E02AE0629FB0018B
:101F900011246C53764F880F991FFC01EF59FD4FA8
:101FA00071836083FC01E75AFD4F24ED30E3261B6B
:101FB000370B318320830895A1E6B2E024EC39E0A9
:101FC00011963C932E93E9E5F2E080E197E291834C
:101FD000808313963C932E93129793838283159656
:101FE0003C932E9314979583848317963C932E935A
:101FF00016979783868387B18F6087B9E1E8F0E011
:102000001082808182608083EFE6F0E080818260D0
:102010008083789408958CB18095881F8827881FC5
:102020000895482F50E04E30510510F080E008959B
:10203000FA01E25DFF4F0C94C01223B130E08950E9
:10204000A90102C0559547958A95E2F7CA018170AA
:10205000089583B18695817008952CB130E0A9016F
:1020600002C0559547958A95E2F7CA018170089597
:1020700022B330E08F5FA90102C0559547958A953C
:10208000E2F7CA01817008958CB186FB882780F938
:10209000089523B1E3CF26B130E08250A90102C0F8
:1020A000559547958A95E2F7CA018170089583B1E5
:1020B00081700895962F482F50E04E30510540F41E
:1020C000FA01E45CFF4F0C94C012611164C02198C6
:1020D000089544B1895021E030E0B90102C0660F93
:1020E000771F8A95E2F79923F1F1CB01842B84B90C
:1020F00008954DB121E030E0B90102C0660F771FAD
:102100008A95E2F7992309F43FC0CB01842B8DB95E
:10211000089543B38F5F21E030E0B90102C0660F3C
:10212000771F8A95E2F7992329F1CB01842B83BB92
:1021300008956623E9F06E9A089547B1825021E030
:1021400030E0B90102C0660F771F8A95E2F7992344
:10215000B1F0CB01842B87B9089544B1BCCF66237D
:10216000C1F0209A0895CB018095842384B9089505
:102170006E980895CB018095842383BB0895CB018D
:102180008095842387B90895CB01809584238DB9E8
:10219000089520980895219A0895962F482F50E089
:1021A0004E30510540F4FA01E65BFF4F0C94C0122B
:1021B000611164C02998089545B1895021E030E04B
:1021C000B90102C0660F771F8A95E2F79923F1F1F2
:1021D000CB01842B85B908954EB121E030E0B901DF
:1021E00002C0660F771F8A95E2F7992309F43FC072
:1021F000CB01842B8EB9089544B38F5F21E030E08A
:10220000B90102C0660F771F8A95E2F7992329F179
:10221000CB01842B84BB08956623E9F0769A089558
:1022200048B1825021E030E0B90102C0660F771F4B
:102230008A95E2F79923B1F0CB01842B88B90895F0
:1022400045B1BCCF6623C1F0289A0895CB01809593
:10225000842385B9089576980895CB0180958423C9
:1022600084BB0895CB018095842388B90895CB0160
:10227000809584238EB9089528980895299A089501
:10228000811104C0613031F0A0980895613021F0CF
:10229000A1980895A09A0895A19A0895882311F00D
:1022A000A19A0895A09A0895882311F0A1980895FD
:1022B000A0980895529A83B3836083BB779A0E9453
:1022C000020B0E94750D0E94DC0F0E94350F41E049
:1022D0006AE28CE10E94D80C2FEF81EE94E021504D
:1022E00080409040E1F700C000000C94420BCF9377
:1022F000DF93CDB7DEB760970FB6F894DEBF0FBEA1
:10230000CDBF412C512C812C912C22E082169104BE
:1023100009F45AC083E088169104D0F1E4E08E16E7
:10232000910409F48FC008F465C025E08216910479
:1023300061F787E491E00E94450E81E00E940D0B59
:10234000182F80E00E940D0B612F0E94B008298396
:102350003A834B835C836D837E838F8398870E944F
:10236000870A0EE110E0612C712C0AC08FE99FE012
:102370000197F1F700C000000150110909F451C0A4
:102380000E940B10813091F766246394712CEECF7C
:102390008114910409F4BDC091E08916910409F0FB
:1023A000B4CF0E94C3038FEF92E5E7E081509040E5
:1023B000E040E1F700C0000052E0852E912C22E0C1
:1023C0008216910409F0A6CF80E00E948B006FE78F
:1023D00080E00E94C40F0E943703FFEF2AE683E0EB
:1023E000F15020408040E1F700C0000043E0842E1F
:1023F000912C8BCF80E00E948B006FE780E00E94E1
:10240000C40F0E94CB042C019FEFEAE6F3E0915049
:10241000E040F040E1F700C0000034E0832E912C52
:1024200074CF672809F471CF82E390E0EFE9FFE011
:102430003197F1F700C000000197C1F783E0882EC3
:10244000912C63CF0E94F40E60E080E00E94540D56
:102450008CE391E00E94450E141415040CF055C055
:10246000612C712C6091DC018091DB010E941301D1
:1024700029873A874B875C876D877E878F87988B04
:102480006091DC018091DB010E94B00829833A83CE
:102490004B835C836D837E838F8398878090DB0181
:1024A000912C8091DC011F928F93A980BA80CB8000
:1024B000DC80ED80FE800F81188529853A854B856B
:1024C0005C856D857E858F8598890E9452050F9069
:1024D0000F908AE090E0EFE9FFE03197F1F700C05C
:1024E00000000197C1F761E080E00E94540DC30134
:1024F0000E946A0E8CE291E00E94450EFFEF6F1A77
:102500007F0A6414750409F0ADCF25E0822E912C6A
:10251000FCCE0E945A110E94EE0180E00E948B00C6
:102520006FE780E00E94C40F88248394912CEDCE45
:10253000AA1BBB1B51E107C0AA1FBB1FA617B707E9
:1025400010F0A61BB70B881F991F5A95A9F7809505
:102550009095BC01CD01089597FB072E16F40094C9
:1025600007D077FD09D00E94981207FC05D03EF4F1
:10257000909581959F4F0895709561957F4F08952F
:10258000EE0FFF1F0590F491E02D0994A29FB0017A
:10259000B39FC001A39F700D811D1124911DB29F97
:1025A000700D811D1124911D08955058BB27AA2735
:1025B0000E94ED120C949F140E94911438F00E9416
:1025C000981420F039F49F3F19F426F40C94671402
:1025D0000EF4E095E7FB0C946114E92F0E94B0140F
:1025E00058F3BA17620773078407950720F079F448
:1025F000A6F50C94D2140EF4E0950B2EBA2FA02D54
:102600000B01B90190010C01CA01A0011124FF279F
:10261000591B99F0593F50F4503E68F11A16F0409A
:10262000A22F232F342F4427585FF3CF4695379599
:102630002795A795F0405395C9F77EF41F16BA0B5E
:10264000620B730B840BBAF09150A1F0FF0FBB1F0C
:10265000661F771F881FC2F70EC0BA0F621F731F55
:10266000841F48F4879577956795B795F7959E3FB2
:1026700008F0B0CF9395880F08F09927EE0F979543
:10268000879508950E9456130C949F140E949814E5
:1026900058F00E94911440F029F45F3F29F00C9407
:1026A000611451110C94D3140C9467140E94B0144B
:1026B00068F39923B1F3552391F3951B550BBB2771
:1026C000AA2762177307840738F09F5F5F4F220FB6
:1026D000331F441FAA1FA9F335D00E2E3AF0E0E8AD
:1026E00032D091505040E695001CCAF72BD0FE2FF7
:1026F00029D0660F771F881FBB1F2617370748078B
:10270000AB07B0E809F0BB0B802DBF01FF27935842
:102710005F4F3AF09E3F510578F00C9461140C9491
:10272000D3145F3FE4F3983ED4F38695779567958D
:10273000B795F7959F5FC9F7880F911D9695879577
:1027400097F90895E1E0660F771F881FBB1F621796
:1027500073078407BA0720F0621B730B840BBA0B54
:10276000EE1F88F7E095089529F416F00C94611493
:102770000C94D2140C9467140E94B814A8F39638E1
:10278000A0F707F80F92E8942BE33AEA48EB5FE7EB
:102790000E9465150F920F920F924DB75EB70F9280
:1027A0000E941B15E0EBF0E00E946A144F915F91CC
:1027B000EF91FF91E595EE1FFF1F49F0FE57E0688E
:1027C0004427EE0F441FFA95E1F74195550B0E94FF
:1027D000E5140F9007FE0C94D91408950E94F51388
:1027E0006894B1110C94D31408950E94B81488F021
:1027F0009F5798F0B92F9927B751B0F0E1F0660FC5
:10280000771F881F991F1AF0BA95C9F714C0B13005
:1028100091F00E94D214B1E008950C94D214672F65
:10282000782F8827B85F39F0B93FCCF38695779534
:102830006795B395D9F73EF490958095709561951D
:102840007F4F8F4F9F4F0895E89409C097FB3EF448
:1028500090958095709561957F4F8F4F9F4F9923ED
:10286000A9F0F92F96E9BB279395F695879577956B
:102870006795B795F111F8CFFAF4BB0F11F460FF2B
:102880001BC06F5F7F4F8F4F9F4F16C0882311F083
:1028900096E911C0772321F09EE8872F762F05C097
:1028A000662371F096E8862F70E060E02AF09A9532
:1028B000660F771F881FDAF7880F9695879597F927
:1028C000089597F99F6780E870E060E008959FEFB2
:1028D00080EC0895DF93CF931F930F93FF92EF92B5
:1028E000DF927B018C01689406C0DA2EEF010E9412
:1028F0006215FE01E894A591259135914591559178
:10290000A6F3EF010E94ED12FE019701A801DA94EF
:1029100069F7DF90EF90FF900F911F91CF91DF91BA
:10292000089500240A941616170618060906089535
:1029300000240A9412161306140605060895092E9B
:102940000394000C11F4882352F0BB0F40F4BF2B0A
:1029500011F460FF04C06F5F7F4F8F4F9F4F08954A
:1029600057FD9058440F551F59F05F3F71F0479540
:10297000880F97FB991F61F09F3F79F08795089525
:10298000121613061406551FF2CF4695F1DF08C044
:10299000161617061806991FF1CF86957105610561
:1029A00008940895E894BB2766277727CB0197F909
:1029B00008959B01AC0160E070E080E89FE30C9417
:1029C00042130C9461140C94BC150E94B814D8F3F3
:1029D0009923C9F3940F511DA3F39150504094F0E3
:1029E00059F0882332F0660F771F881F91505040AE
:1029F000C1F79E3F51052CF7880F911D969587953D
:102A000097F908955F3FACF0983E9CF0BB27869500
:102A100077956795B79508F4B1609395C1F7BB0FAB
:102A200058F711F460FFE8CF6F5F7F4F8F4F9F4FD4
:102A3000E3CF0C94D314FA01DC01AA0FBB1F9B0156
:102A4000AC01BF5728F4222733274427507820C0F1
:102A5000B75190F4AB2F0024469537952795011C6C
:102A6000A395D2F3002071F0220F331F441FB395BA
:102A7000DAF30ED00C94D51261307105A0E88A0704
:102A8000B94630F49B01AC016627772788279078F8
:102A9000309621F0208331834283538308950E942E
:102AA00062150C949F140E94911438F00E9498149F
:102AB00020F0952311F00C9461140C9467141124E8
:102AC0000C94D3140E94B01470F3959FC1F3950F2A
:102AD00050E0551F629FF001729FBB27F00DB11DA2
:102AE000639FAA27F00DB11DAA1F649F6627B00D32
:102AF000A11D661F829F2227B00DA11D621F739F1B
:102B0000B00DA11D621F839FA00D611D221F749F28
:102B10003327A00D611D231F849F600D211D822F6F
:102B2000762F6A2F11249F5750409AF0F1F0882396
:102B30004AF0EE0FFF1FBB1F661F771F881F9150C3
:102B40005040A9F79E3F510580F00C9461140C94FD
:102B5000D3145F3FE4F3983ED4F386957795679559
:102B6000B795F795E7959F5FC1F7FE2B880F911DED
:102B70009695879597F908959F3F31F0915020F4ED
:102B8000879577956795B795880F911D9695879549
:102B900097F908958F929F92AF92BF92CF92DF9252
:102BA000EF92FF92CF93DF93EC01688179818A8164
:102BB0009B81611571058105910521F464E279ED30
:102BC0008BE597E02DE133EF41E050E00E942616BF
:102BD00049015A019B01AC01A7EAB1E40E944516E4
:102BE0006B017C01ACEEB4EFA50194010E94531679
:102BF000DC01CB018C0D9D1DAE1DBF1DB7FF03C0B9
:102C00000197A109B04888839983AA83BB839F77E2
:102C1000DF91CF91FF90EF90DF90CF90BF90AF907A
:102C20009F908F9008950E94CA15089580E091E0CA
:102C30000E94CA150895A0E0B0E08093000190932F
:102C40000101A0930201B09303010895052E97FBA3
:102C50001EF400940E943D1657FD07D00E9458169E
:102C600007FC03D04EF40C943D16509540953095DA
:102C700021953F4F4F4F5F4F0895909580957095E8
:102C800061957F4F8F4F9F4F08950E94C612A59F59
:102C9000900DB49F900DA49F800D911D1124089557
:102CA000B7FF0C9445160E944516821B930B08959E
:102CB000A1E21A2EAA1BBB1BFD010DC0AA1FBB1F40
:102CC000EE1FFF1FA217B307E407F50720F0A21BB2
:102CD000B30BE40BF50B661F771F881F991F1A941F
:102CE00069F760957095809590959B01AC01BD0149
:082CF000CF010895F894FFCF15
:102CF80001000000446174613A004C00520076699A
:102D080063746F727921004C3A2000523A20003CDB
:102D18003D2D20202B3D3E0020202020202020007B
:102D28004C20697320005220697320005472616935
:102D38006E696E673A200068656C6C6F0061646448
:102D4800724E41434B0077725F4E41434B007265B0
:082D580061644E41434B000091
:00000001FF
