:100000000C946C000C9489000C9489000C94890069
:100010000C9489000C9489000C9489000C94770F3F
:100020000C9489000C9489000C9489000C9489002C
:100030000C9489000C9489000C9489000C9489001C
:100040000C9489000C9489000C9489000C9489000C
:100050000C9489000C9489000C948900441044107D
:100060004F104F105B106010601062106210621031
:100070006E1034103410401090109010A010A0108A
:10008000B010C410C410B410B410B410C610801056
:1000900080107C1003110311131113112311371158
:1000A00037112711271127113911F310F310EF1011
:1000B00007634236B79BD8A71A39685618AEBAAB51
:1000C000558C1D3CB7CC5763BD6DEDFD753EF617E5
:1000D0007231BF000000803F11241FBECFEFD0E17E
:1000E000DEBFCDBF11E0A0E0B1E0E8EAFCE202C073
:1000F00005900D92A835B107D9F722E0A8E5B1E047
:1001000001C01D92A335B207E1F70E948E110C9435
:1001100052160C940000082E000C990B9C01220F23
:10012000331F820F931F6AE070E00E9484126158AF
:1001300081E00C94DB0F882361F02DEF6202C00197
:1001400011246AE070E00E948412615880E00C94EF
:10015000DB0F862F0C948B00EF92FF920F931F936F
:10016000CF93DF93009701F18C01E12CF12CC0E0DB
:10017000D0E00AC08FE99FE00197F1F700C00000CE
:1001800021960C171D0741F00E942210813091F733
:10019000EE24E394F12CEECFC701DF91CF911F91B4
:1001A0000F91FF90EF90089580E090E0F6CFFB0173
:1001B00038963291229133832283E617F707C9F7E5
:1001C000918380830895FC019C01265F3F4F60E08E
:1001D00070E081919191680F791F2E173F07C9F741
:1001E000072E000C880B990B0E94FE1320E030E0D4
:1001F00040EA50E40E941A13089524E6829FC00149
:1002000011246FEF70E00E948412862F08952FEF63
:10021000829FC001112464E670E00E948412862F40
:1002200008954F925F926F927F928F929F92AF92BA
:10023000BF92CF92DF92EF92FF920F931F93CF93D3
:10024000DF93C82FD0E0C61BD109ECE5F1E00681B1
:10025000178111870087E480F580F782E68282812A
:100260009381958384832081318133832283D18359
:10027000C0832C0F3D1F820F931FE80EF91EBE0195
:100280000D2E000C880B990B0E94FE132DEC3CECFC
:100290004CE45EE30E9427152B013C0160915A015A
:1002A00070915B016C0F7D1F072E000C880B990B62
:1002B0000E94FE132DEC3CEC4CE45DE30E942715FC
:1002C0004B015C01B701600F711F072E000C880BFA
:1002D000990B0E94FE1320E030E040EA50E40E94B7
:1002E0001A132DEC3CEC4CEC5DE30E9427156B01DE
:1002F0007C01D0935B01C0935A0120E030E044E3DD
:1003000052E4C301B2010E94AE12A50194010E9401
:10031000AE12A70196010E94AE120E94C613772763
:1003200014E6169FC001179F900D1124CFEFD0E067
:10033000BE010E948412062FA301920160E070E0CA
:1003400084E392E40E94AD12A50194010E94AD12D3
:10035000A70196010E94AD120E94C6137727169F2F
:10036000C001179F900D1124BE010E948412962F88
:10037000802FDF91CF911F910F91FF90EF90DF9031
:10038000CF90BF90AF909F908F907F906F905F9035
:100390004F9008950F931F93CF93DF930E94EE1514
:1003A0000BEE11E0CFEFDFE7BE010E948412072EB3
:1003B000000C880B990B0E94FE13F8016083718377
:1003C000828393830E94EE15BE010E948412072E41
:1003D000000C880B990B0E94FE13F801648375834F
:1003E000868397830E94EE15BE010E948412072E19
:1003F000000C880B990B0E94FE13F8016487758727
:10040000868797870E94EE15BE010E948412072EF0
:10041000000C880B990B0E94FE13F801608B718B06
:10042000828B938B0E94EE15BE010E948412072ED0
:10043000000C880B990B0E94FE13F801648B758BDE
:10044000868B978B0E94EE15BE010E948412072EA8
:10045000000C880B990B0E94FE13F801648F758FB6
:10046000868F978F0E94EE15BE010E948412072E80
:10047000000C880B990B0E94FE13F80160A371A376
:1004800082A393A30E94EE15BE010E948412072E40
:10049000000C880B990B0E94FE13F80164A375A34E
:1004A00086A397A30E94EE15BE010E948412072E18
:1004B000000C880B990B0E94FE13F80164A775A726
:1004C00086A797A70E94EE15BE010E948412072EF0
:1004D000000C880B990B0E94FE13F80160AB71AB06
:1004E00082AB93AB0E94EE15BE010E948412072ED0
:1004F000000C880B990B0E94FE13F80164AB75ABDE
:1005000086AB97AB0E94EE15BE010E948412072EA7
:10051000000C880B990B0E94FE13F80160AF71AFBD
:1005200082AF93AF0E94EE15BE010E948412072E87
:10053000000C880B990B0E94FE13F80164AF75AF95
:1005400086AF97AF0E94EE15BE010E948412072E5F
:10055000000C880B990B0E94FE1360932B02709382
:100560002C0280932D0290932E020E94EE15BE0164
:100570000E948412072E000C880B990B0E94FE1318
:1005800060932F0270933002809331029093320275
:100590000E94EE15BE010E948412072E000C880BEB
:1005A000990B0E94FE136093330270933402809380
:1005B0003502909336020E94EE15BE010E9484120D
:1005C000072E000C880B990B0E94FE1360933702D4
:1005D000709338028093390290933A02DF91CF9161
:1005E0001F910F9108950F931F93CF93DF93109254
:1005F00059011092580180E00E94240BD82F81E00D
:100600000E94240BC82FE0915801F0915901EE0F80
:10061000FF1FE959FE4FD083C1830E940B0F60E09A
:1006200080E00E946B0D84E091E00E945C0E80915E
:100630005801909159010E94810E81E391E00E943E
:100640005C0E61E080E00E946B0D8AE091E00E9408
:100650005C0E8D2F90E00E94810E61E084E00E948C
:100660006B0D8CE091E00E945C0E8C2F90E00E945C
:10067000810EC1E0D0E000E010E00E942210813045
:1006800079F08FE99FE00197F1F700C00000CC32CC
:1006900091E0D90799F021960E942210813089F7C4
:1006A0008FE99FE00197F1F700C00000CC3291E0A4
:1006B000D90791F001E010E02196EECF012B61F413
:1006C000809158019091590101969093590180931E
:1006D0005801C2970CF48FCF0E940B0F60E080E0AE
:1006E0000E946B0D8EE091E0DF91CF911F910F91F1
:1006F0000C945C0E2F923F924F925F926F927F927A
:100700008F929F92AF92BF92CF92DF92EF92FF9221
:100710000F931F93CF93DF93CDB7DEB72E970FB60E
:10072000F894DEBF0FBECDBFFE0131968AE0DF0137
:100730001D928A95E9F7C12CD12C01E010E0E12C43
:10074000F12C0CC08FE99FE00197F1F700C0000089
:100750000C3291E01907A9F00F5F1F4F0E94221081
:10076000813081F78FE99FE00197F1F700C0000029
:100770000C3291E0190709F4BFC0EE24E394F12C88
:10078000EBCFEF2809F0B8C080E00E94240B282EA0
:1007900081E00E94240B312CA82FB0E0BC87AB87EE
:1007A00081010A1B1B0BEF80F884FA86E9866D81B4
:1007B0007E8178876F838B819C819E838D83298145
:1007C0003A813C832B831A830983200F311F820FC8
:1007D000931F9C01260F371F3E872D87B801012EDE
:1007E000000C880B990B0E94FE132DEC3CEC4CE4A2
:1007F0005EE30E9427152B013C01B601600F711FBB
:10080000072E000C880B990B0E94FE132DEC3CEC7C
:100810004CE45DE30E9427154B015C016D857E85EC
:100820006E0D7F1D072E000C880B990B0E94FE1386
:1008300020E030E040EA50E40E941A132DEC3CEC3A
:100840004CE45EE30E9427156B017C0120E030E060
:1008500040EF51E4C301B2010E94AE12A501940120
:100860000E94AE12A70196010E94AE120E94C6130A
:10087000862F0E948B00A301920160E070E080EF60
:1008800091E40E94AD12A50194010E94AD12A7014E
:1008900096010E94AD120E94C6133DEF6302C00193
:1008A00011246AE070E00E948412615880E00E9486
:1008B000DB0F0E940B0F60E080E00E946B0D87E170
:1008C00091E00E945C0E61E080E00E946B0D8AE086
:1008D00091E00E945C0EC1010E94810E61E084E003
:1008E0000E946B0D8CE091E00E945C0E8B859C85D4
:1008F0000E94810E680121CF2E960FB6F894DEBFBC
:100900000FBECDBFDF91CF911F910F91FF90EF9060
:10091000DF90CF90BF90AF909F908F907F906F901F
:100920005F904F903F902F900895009769F020E0DE
:1009300030E0EFE9FFE03197F1F700C000002F5FF2
:100940003F4F82179307A9F70895EF92FF920F93F5
:100950001F93CF93DF930E940B0F60E080E00E9413
:100960006B0D85E291E00E945C0EE12CF12C0E945F
:100970001C0D8F3108F067C00E941C0D893C08F0E7
:1009800059C00E94180D893C08F04BC00E94180DF8
:100990008531D8F5F7FC42C061E080E00E946B0D24
:1009A000C7010E94810E8EE291E00E945C0EC1E0C0
:1009B000D0E000E010E00E942210813071F08FE959
:1009C0009FE00197F1F700C00000C233D10591F01C
:1009D00021960E942210813091F78FE99FE00197C4
:1009E000F1F700C00000C233D10539F001E010E09A
:1009F0002196EFCF012B09F4BACFC701DF91CF9138
:100A00001F910F91FF90EF9008950E94180D86346A
:100A100008F69AE0E90EF11CF7FEBECFE12CF12CAE
:100A2000BBCF0E94180D863E08F0B0CF8AE0E81ACE
:100A3000F108ACCF0E941C0D8A3F08F0A2CF9FEFB7
:100A4000E91AF90A9ECF0E941C0D863408F094CF53
:100A500081E0E81AF10890CF2F923F924F925F9277
:100A60006F927F928F929F92AF92BF92CF92DF92BE
:100A7000EF92FF920F931F93CF93DF93CDB7DEB723
:100A8000C054D1090FB6F894DEBF0FBECDBFF92E0A
:100A9000E72E5A01490170E09B01281B310901E052
:100AA00010E0A801461B570B469FC001479F900DC1
:100AB000569F900D1124289FB001299F700D389FDB
:100AC000700D1124072E000C880B990B0E94FE1349
:100AD00069837A838B839C8380911B0290911C0293
:100AE000A0911D02B0911E028D8B9E8BAF8BB88F93
:100AF0008E2D90E09C012F193109B801681B790BEC
:100B0000689FA001699F500D789F500D1124249F6C
:100B1000B001259F700D349F700D1124072E000C1D
:100B2000880B990B0E94FE136D837E838F839887B9
:100B30008BE2282E82E0382ED1018D919D910D906F
:100B4000BC91A02D898F9A8FAB8FBC8F80913F0273
:100B500090914002A0914102B091420289879A8708
:100B6000AB87BC872D893E894F89588D69817A81F1
:100B70008B819C810E9427156B017C01298D3A8D08
:100B80004B8D5C8D6D817E818F8198850E942715AC
:100B90009B01AC01C701B6010E94AE126B017C0142
:100BA00029853A854B855C8560E070E080E89FE3AD
:100BB0000E94AD1229853A854B855C850E942715D8
:100BC0009B01AC01C701B6010E942715698B7A8B86
:100BD0008B8B9C8BB501BB0C880B990B0E94FE1371
:100BE0006D877E878F87988BB401990C880B990B42
:100BF0000E94FE136B017C019B01AC0169897A891B
:100C00008B899C890E94271521EE3AE744E15EE337
:100C10000E9427159B01AC016091EF017091F001DA
:100C20008091F1019091F2010E94AD120E94C613D1
:100C30006DA37EA38FA398A721EE3AE744E15EE37C
:100C400069897A898B899C890E9427152091F701EF
:100C50003091F8014091F9015091FA010E94AE12D1
:100C60000E94C61369A77AA78BA79CA78090CB0187
:100C70009090CC01A090CD01B090CE0120911F02A8
:100C800030912002409121025091220269817A81A3
:100C90008B819C810E9427152B013C010FE212E001
:100CA000D8012D913D914D915C916D817E818F8117
:100CB00098850E9427159B01AC01C301B2010E94D7
:100CC000AE122B013C01A501940160E070E080E8C8
:100CD0009FE30E94AD12A50194010E9427159B017C
:100CE000AC01C301B2010E9427154B015C019B01BD
:100CF000AC016D857E858F8598890E94271521EE30
:100D00003AE744E15EE30E9427159B01AC01609144
:100D1000FB017091FC018091FD019091FE010E9408
:100D2000AD120E94C6136DA77EA78FA798ABA50131
:100D30009401C701B6010E94271521EE3AE744E16C
:100D40005EE30E9427159B01AC016091FF01709149
:100D5000000280910102909102020E94AD120E9455
:100D6000C61369AB7AAB8BAB9CAB21EE3AE744E19F
:100D70005EE3C501B4010E9427152091070230915E
:100D800008024091090250910A020E94AE120E948C
:100D9000C6136DAB7EAB8FAB98AF80912302909161
:100DA0002402A0912502B09126028D8F9E8FAF8FD5
:100DB000B8A38091330290913402A0913502B09192
:100DC000360289A39AA3ABA3BCA34090E70150903D
:100DD000E8016090E9017090EA012D8D3E8D4F8D04
:100DE00058A169817A818B819C810E9427154B01D2
:100DF0005C0129A13AA14BA15CA16D817E818F810B
:100E000098850E9427159B01AC01C501B4010E9481
:100E1000AE124B015C01A301920160E070E080E83A
:100E20009FE30E94AD12A30192010E9427159B012E
:100E3000AC01C501B4010E9427154B015C019B0167
:100E4000AC016D857E858F8598890E94271521EEDE
:100E50003AE744E15EE30E9427159B01AC016091F3
:100E60000B0270910C0280910D0290910E020E9473
:100E7000AD120E94C61369AF7AAF8BAF9CAFA501CC
:100E80009401C701B6010E94271521EE3AE744E11B
:100E90005EE30E9427159B01AC0160910F027091E7
:100EA000100280911102909112020E94AD120E94D4
:100EB000C61321966CAF7DAF8EAF9FAF219721EE09
:100EC0003AE744E15EE3C501B4010E942715209191
:100ED0001702309118024091190250911A020E9493
:100EE000AE120E94C6136B017C012D853E854F8595
:100EF000588969897A898B899C890E94271521EEF6
:100F00003AE744E15EE30E9427159B01AC01ABEE9A
:100F1000B1E06D917D918D919C910E94AD120E94E6
:100F2000C613072E000C880B990B0E94FE13EBEEE4
:100F3000F1E060837183828393832DA13EA1B90187
:100F4000330F880B990B0E94FE136093EF0170938F
:100F5000F0018093F1019093F201A9A5BAA5BD011A
:100F6000BB0F880B990B0E94FE136093F7017093DF
:100F7000F8018093F9019093FA01EDA5FEA5BF0158
:100F8000FF0F880B990B0E94FE136093FB01709377
:100F9000FC018093FD019093FE0129A93AA9B901B2
:100FA000330F880B990B0E94FE136093FF0170931F
:100FB00000028093010290930202ADA9BEA9BD0177
:100FC000BB0F880B990B0E94FE136093070270936E
:100FD00008028093090290930A02E9ADFAADBF01BD
:100FE000FF0F880B990B0E94FE1360930B02709306
:100FF0000C0280930D0290930E022DAD3EADB9010F
:10100000330F880B990B0E94FE1360930F027093AD
:1010100010028093110290931202B601DD0C880B2E
:10102000990B0E94FE13609317027093180280932D
:10103000190290931A0229853A854B855C8569814E
:101040007A818B819C810E94271521EE3AE744E149
:101050005EE30E9427159B01AC016D897E898F8913
:10106000988D0E94AD120E94C613072E000C880BAB
:10107000990B0E94FE1360931B0270931C028093D5
:101080001D0290931E02A301920169817A818B81D6
:101090009C810E94271521EE3AE744E15EE30E941D
:1010A00027159B01AC016D8D7E8D8F8D98A10E94BF
:1010B000AD120E94C613072E000C880B990B0E94DC
:1010C000FE1360931F02709320028093210290937D
:1010D0002202C12CD12C90E8E92E9FEBF92EC09270
:1010E0002702D0922802E0922902F0922A02298552
:1010F0003A854B855C856D817E818F8198850E94C4
:10110000271521EE3AE744E15EE30E9427159B0193
:10111000AC01698D7A8D8B8D9C8D0E94AD120E94E1
:10112000C613072E000C880B990B0E94FE13D101E9
:101130006D937D938D939C931397A30192016D8181
:101140007E818F8198850E94271521EE3AE744E140
:101150005EE30E9427159B01AC0169A17AA18BA1D6
:101160009CA10E94AD120E94C613072E000C880B92
:10117000990B0E94FE13F80160837183828393832D
:10118000C0923702D0923802E0923902F0923A02CD
:10119000C05CDF4F0FB6F894DEBF0FBECDBFDF914E
:1011A000CF911F910F91FF90EF90DF90CF90BF9064
:1011B000AF909F908F907F906F905F904F903F90F7
:1011C0002F9008954F925F926F927F928F929F928D
:1011D000AF92BF92CF92DF92EF92FF92CF93DF93C5
:1011E000CDB7DEB728970FB6F894DEBF0FBECDBFE0
:1011F0006983682F70E080E090E00E94FE134B014D
:101200005C012981622F70E080E090E00E94FE1373
:101210006B017C012091FB013091FC014091FD01AB
:101220005091FE01C501B4010E9427152B013C011C
:101230002091FF0130910002409101025091020281
:10124000C701B6010E9427159B01AC01C301B20181
:101250000E94AE12209107023091080240910902CB
:1012600050910A020E94AD1269837A838B839C831A
:1012700020910B0230910C0240910D0250910E0210
:10128000C501B4010E9427152B013C0120910F02DA
:10129000309110024091110250911202C701B60123
:1012A0000E9427159B01AC01C301B2010E94AE123E
:1012B00020911702309118024091190250911A02A0
:1012C0000E94AD126D837E838F839887EBEEF1E0F1
:1012D0002081318142815381C501B4010E942715CB
:1012E0004B015C012091EF013091F0014091F1013F
:1012F0005091F201C701B6010E9427159B01AC0174
:10130000C501B4010E94AE122091F7013091F8019D
:101310004091F9015091FA010E94AD1290580E943B
:10132000941320E030E040E85FE30E94AE129B019E
:10133000AC0160E070E080E89FE30E941A132B018B
:101340003C0160933F02709340028093410290936E
:10135000420269817A818B819C8190580E9494130A
:1013600020E030E040E85FE30E94AE129B01AC0158
:1013700060E070E080E89FE30E941A134B015C017B
:101380006093CB017093CC018093CD019093CE01FB
:101390006D817E818F81988590580E94941320E002
:1013A00030E040E85FE30E94AE129B01AC0160E0D8
:1013B00070E080E89FE30E941A136B017C01609348
:1013C000E7017093E8018093E9019093EA0120918D
:1013D0002B0230912C0240912D0250912E02C3011C
:1013E000B2010E94271569837A838B839C832091A5
:1013F0002F02309130024091310250913202C501EA
:10140000B4010E9427159B01AC0169817A818B810F
:101410009C810E94AE1269837A838B839C83209186
:101420003302309134024091350250913602C701A7
:10143000B6010E9427159B01AC0169817A818B81DD
:101440009C810E94AE122091370230913802409167
:10145000390250913A020E94AD1269837A838B83DC
:101460009C8320911B0230911C0240911D025091DF
:101470001E02C301B2010E9427152B013C012091DD
:101480001F02309120024091210250912202C50199
:10149000B4010E9427159B01AC01C301B2010E9457
:1014A000AE124B015C012091230230912402409145
:1014B000250250912602C701B6010E9427159B0103
:1014C000AC01C501B4010E94AE12209127023091F7
:1014D00028024091290250912A020E94AD12905890
:1014E0000E94941320E030E040E85FE30E94AE12D7
:1014F0009B01AC0160E070E080E89FE30E941A135A
:101500006B017C016093E3017093E4018093E5013A
:101510009093E60169817A818B819C8190580E9429
:10152000941320E030E040E85FE30E94AE129B019C
:10153000AC0160E070E080E89FE30E941A134B0169
:101540005C016093DF017093E0018093E10190936F
:10155000E201C701B6010E94CD136983C501B40140
:101560000E94CD13962F898128960FB6F894DEBF7E
:101570000FBECDBFDF91CF91FF90EF90DF90CF9066
:10158000BF90AF909F908F907F906F905F904F90A3
:101590000895EF92FF920F931F93CF93DF93D82F6D
:1015A000C92F60E080E00E946B0D8AE091E00E940C
:1015B0005C0E2FEFD29FC001112424E6E22EF12C05
:1015C000B7010E9484128B01CB0199270E94810EE2
:1015D00080E391E00E945C0E61E080E00E946B0D70
:1015E0008CE091E00E945C0E3FEFC39FC00111248C
:1015F000B7010E948412EB01CB0199270E94810E52
:1016000080E391E00E945C0E802F0E948B003DEFF2
:10161000C302C00111246AE070E00E948412615884
:1016200080E0DF91CF911F910F91FF90EF900C948C
:10163000DB0FEAE7F0E0808187688083ECE7F0E089
:10164000808180668083089590917C00987F90933C
:101650007C0090917C00892B80937C0080917A00A3
:10166000806480937A0080917A0086FDFCCF80911F
:10167000790008958DB18F7C8DB985E08A95F1F759
:1016800000006D9A759885E08A95F1F700006C9AD4
:10169000749885E08A95F1F7000008956C9885E0CC
:1016A0008A95F1F700006D9885E08A95F1F70000C2
:1016B00008956D9885E08A95F1F7000065990DC051
:1016C0006C9885E08A95F1F700006C9A749885E033
:1016D0008A95F1F70000659BF3CF6C9808956C989C
:1016E00085E08A95F1F700006C9A749885E08A95F8
:1016F000F1F7000008951F93CF93DF93D82FC62FE3
:10170000142F0E94590B0E943A0B87E013C06D986A
:1017100095E09A95F1F700006C9895E09A95F1F7AD
:1017200000006C9A749895E09A95F1F70000DD0F2F
:10173000815029F0D6FDEBCF6D9A7598E9CF6D9A5F
:10174000759885E08A95F1F700006C9895E09A9578
:10175000F1F700006C9A749885E08A95F1F7000023
:101760006D9895E09A95F1F700006C98659B05C01F
:101770008EE391E00E945C0EFFCF85E08A95F1F741
:1017800000006C9A749895E09A95F1F7000088E053
:1017900014C06D9A759895E09A95F1F700006C98D1
:1017A00095E09A95F1F700006C9A749895E09A95F7
:1017B000F1F70000CC0F815021F0C7FFEACF6D9800
:1017C000EACF6D9885E08A95F1F700006C98659BEB
:1017D00005C08AE491E00E945C0EFFCF95E09A95E7
:1017E000F1F700006C9A749885E08A95F1F7000093
:1017F000112351F06C9895E09A95F1F700006D98DF
:1018000085E08A95F1F70000DF91CF911F9108954F
:10181000FC016623D1F14FEF460F50E04F5F5F4F61
:10182000480F591F908128E016C06D9A759885E081
:101830008A95F1F700006C9885E08A95F1F7000031
:101840006C9A749885E08A95F1F700009081990F61
:101850009083215021F097FFE8CF6D98E8CF319623
:101860006D9885E08A95F1F700006C98659918C02D
:1018700085E08A95F1F700006C9A749885E08A9566
:10188000F1F70000E417F50769F66C9885E08A9592
:10189000F1F700006D9885E08A95F1F70000089552
:1018A00087E491E00E945C0EFFCF0F931F93CF93CC
:1018B000DF93082FEB01142F0E943A0B87E013C02F
:1018C0006D9895E09A95F1F700006C9895E09A95DF
:1018D000F1F700006C9A749895E09A95F1F7000082
:1018E000000F815029F006FDEBCF6D9A7598E9CF76
:1018F0006D9885E08A95F1F700006C9895E09A95CF
:10190000F1F700006C9A749885E08A95F1F7000071
:101910006D9895E09A95F1F700006C98659B05C06D
:101920008FE491E00E945C0EFFCF85E08A95F1F78D
:1019300000006C9A749895E09A95F1F700006D9804
:1019400085E08A95F1F700001123B1F12FEF210F07
:1019500030E02F5F3F4F2C0F3D1F98E08881880FAC
:1019600088836C9885E08A95F1F70000659B03C039
:1019700088818160888385E08A95F1F700006C9A00
:10198000749885E08A95F1F70000915039F76D9AC7
:10199000759895E09A95F1F700006C9885E08A9526
:1019A000F1F700006C9A749895E09A95F1F70000B1
:1019B00021962C173D0789F695E09A95F1F70000DE
:1019C0006C9885E08A95F1F700006D9895E09A95FE
:1019D000F1F70000DF91CF911F910F910895CF9300
:1019E000DF931F92CDB7DEB7498340E00E947B0BA7
:1019F00061E0CE0101960E94080C0F90DF91CF911B
:101A000008951F93CF93DF931F92CDB7DEB7182FA2
:101A100041E00E947B0B41E0BE016F5F7F4F812F51
:101A20000E94550C89810F90DF91CF911F910895ED
:101A300061E08CE10C94010D63E08CE10C94010DEC
:101A400065E08CE10C94010D8AE08A95F1F700C005
:101A5000449A8AE08A95F1F700C044988AE08A9512
:101A6000F1F700C00895F89482B98AE08A95F1F7F9
:101A700000C0449A8AE08A95F1F700C044988AE051
:101A80008A95F1F700C0789408958F98F89482B9F8
:101A90008AE08A95F1F700C0449A8AE08A95F1F7C6
:101AA00000C044988AE08A95F1F700C078940895C0
:101AB0008F9AF89482B98AE08A95F1F700C0449A27
:101AC0008AE08A95F1F700C044988AE08A95F1F798
:101AD00000C078940895803110F4623008F00895C1
:101AE00090E4699F800D112480588F98F89482B9F2
:101AF0008AE08A95F1F700C0449A9AE09A95F1F746
:101B000000C044988AE08A95F1F700C0789495EC7B
:101B10009A95F1F7000008953C9A879A8FEF81B962
:101B20008FE19EE40197F1F700C000008F98F894D0
:101B300088E382B99AE09A95F1F700C0449AEAE006
:101B4000EA95F1F700C04498FAE0FA95F1F700C081
:101B50007894EFE7F2E03197F1F700C000008F983A
:101B6000F89482B9FAE0FA95F1F700C0449A9AE045
:101B70009A95F1F700C04498EAE0EA95F1F700C0C1
:101B80007894EFE7F2E03197F1F700C000008F980A
:101B9000F89482B9FAE0FA95F1F700C0449A9AE015
:101BA0009A95F1F700C04498EAE0EA95F1F700C091
:101BB0007894EFE7F2E03197F1F700C000008F98DA
:101BC000F89498E092B9FAE0FA95F1F700C0449AD7
:101BD0009AE09A95F1F700C04498EAE0EA95F1F7A7
:101BE00000C07894EFE7F2E03197F1F700C0000011
:101BF0008F98F89491E092B9FAE0FA95F1F700C065
:101C0000449A9AE09A95F1F700C04498EAE0EA9580
:101C1000F1F700C07894EFE7FEE33197F1F700C0E9
:101C200000008F98F89496E092B9FAE0FA95F1F7EF
:101C300000C0449A9AE09A95F1F700C04498EAE00F
:101C4000EA95F1F700C07894EFE7F2E03197F1F709
:101C500000C000008F98F89482B9FAE0FA95F1F785
:101C600000C0449A8AE08A95F1F700C044989AE04F
:101C70009A95F1F700C07894EFE8F1E03197F1F729
:101C800000C000008F98F8948CE082B9FAE0FA95D1
:101C9000F1F700C0449A8AE08A95F1F700C04498B1
:101CA0009AE09A95F1F700C07894EFE8F1E0319767
:101CB000F1F700C000000895DC019C91992301F127
:101CC00020E08F9AF89492B98AE08A95F1F700C0E3
:101CD000449A9AE09A95F1F700C044988AE08A9570
:101CE000F1F700C078948FE792E00197F1F700C018
:101CF00000002F5FFD01E20FF11D90819111E1CFF6
:101D000008951F93CF93DF93FC01892B09F466C0DC
:101D100045E011E02FE037E2E9012196CF01BE0155
:101D20000E94701261111DC02E173F0708F052C0AB
:101D30001123A9F111E0CF01BE010E947012FC0134
:101D4000ADECBCEC0E949E129C0136952795369511
:101D50002795369527954150F9F6DF91CF911F9140
:101D600008952E173F07D8F0605D8F9AF89462B9F6
:101D70009AE09A95F1F700C0449A8AE08A95F1F7C3
:101D800000C044989AE09A95F1F700C078948FE7E4
:101D900092E00197F1F700C0000010E0D1CF605D44
:101DA0008F9AF89462B99AE09A95F1F700C0449A34
:101DB0008AE08A95F1F700C044989AE09A95F1F785
:101DC00000C078948FE792E00197F1F700C000001F
:101DD00010E0B1CF112341F211E0B2CF8F9AF89405
:101DE00080E382B98AE08A95F1F700C0449A9AE0CC
:101DF0009A95F1F700C044988AE08A95F1F700C0FF
:101E000078948FE792E00197F1F700C00000DF912E
:101E1000CF911F9108958F98F89481E082B98AE05C
:101E20008A95F1F700C0449A9AE09A95F1F700C0BC
:101E300044988AE08A95F1F700C078948FE79EE392
:101E40000197F1F700C0000008955D9A5C9808952D
:101E5000262F3FEF81110EC06303C001112464E6F9
:101E600070E00E9484126093B30012169CF45C9A96
:101E70005D9808956303C001112464E670E00E9438
:101E8000841267BD12161CF45E9A5F9808955F9ADB
:101E90005E9808950C94250FCF93DF93C3EBD0E0A9
:101EA00018820E94250F17BC5F9A5E9884B18069E2
:101EB00084B98AB1806F8AB9E0EBF0E080818866EE
:101EC000808380818260808384B5886684BD84B588
:101ED000826084BD8AE087BD8883DF91CF910895B9
:101EE0005C9A5D982C9A5F9A5E982F9A08951F923B
:101EF0000F920FB60F9211242F933F934F935F933E
:101F00006F937F938F939F93EF93FF9380916601DD
:101F1000409188005091890080FD30C08695E82F5F
:101F2000F0E0EE0FFF1FE55BFD4F20813181240FB4
:101F3000351F309389002093880048B121E030E0BC
:101F4000B90102C0660F771F8A95E2F7CB01842B97
:101F500088B9809166018F5F877080936601FF91D9
:101F6000EF919F918F917F916F915F914F913F91F1
:101F70002F910F900FBE0F901F9018958695E82F08
:101F8000F0E0EE0FFF1FED5BFD4F20813181240F4C
:101F9000351F309389002093880048B121E030E05C
:101FA000B90102C0660F771F8A95E2F7CB018095D1
:101FB000842388B9CECF90E02AE0629FB00111243B
:101FC0006C53764F880F991FFC01E55BFD4F7183C1
:101FD0006083FC01ED5BFD4F24ED30E3261B370BE6
:101FE000318320830895ABE4B2E024EC39E011960C
:101FF0003C932E93E3E4F2E080E197E291838083C7
:1020000013963C932E9312979383828315963C9359
:102010002E9314979583848317963C932E9316974B
:102020009783868387B18F6087B9E1E8F0E01082FB
:10203000808182608083EFE6F0E08081826080832F
:10204000789408958CB18095881F8827881F0895FB
:10205000482F50E04E30510510F080E00895FA010D
:10206000E25DFF4F0C94981223B130E08950A90132
:1020700002C0559547958A95E2F7CA018170089587
:1020800083B18695817008952CB130E0A90102C01A
:10209000559547958A95E2F7CA018170089522B354
:1020A00030E08F5FA90102C0559547958A95E2F708
:1020B000CA01817008958CB186FB882780F9089544
:1020C00023B1E3CF26B130E08250A90102C055957B
:1020D00047958A95E2F7CA018170089583B18170AE
:1020E0000895962F482F50E04E30510540F4FA01E4
:1020F000E45CFF4F0C949812611164C0219808951C
:1021000044B1895021E030E0B90102C0660F771F69
:102110008A95E2F79923F1F1CB01842B84B90895D4
:102120004DB121E030E0B90102C0660F771F8A95FA
:10213000E2F7992309F43FC0CB01842B8DB90895B0
:1021400043B38F5F21E030E0B90102C0660F771F13
:102150008A95E2F7992329F1CB01842B83BB08955B
:102160006623E9F06E9A089547B1825021E030E08D
:10217000B90102C0660F771F8A95E2F79923B1F083
:10218000CB01842B87B9089544B1BCCF6623C1F03D
:10219000209A0895CB018095842384B908956E9880
:1021A0000895CB018095842383BB0895CB0180954E
:1021B000842387B90895CB01809584238DB9089530
:1021C00020980895219A0895962F482F50E04E3078
:1021D000510540F4FA01E65BFF4F0C94981261112F
:1021E00064C02998089545B1895021E030E0B901D3
:1021F00002C0660F771F8A95E2F79923F1F1CB01B0
:10220000842B85B908954EB121E030E0B90102C0B8
:10221000660F771F8A95E2F7992309F43FC0CB0137
:10222000842B8EB9089544B38F5F21E030E0B9016B
:1022300002C0660F771F8A95E2F7992329F1CB0137
:10224000842B84BB08956623E9F0769A089548B1FB
:10225000825021E030E0B90102C0660F771F8A95F5
:10226000E2F79923B1F0CB01842B88B9089545B1E9
:10227000BCCF6623C1F0289A0895CB0180958423B2
:1022800085B9089576980895CB018095842384BB01
:102290000895CB018095842388B90895CB0180955A
:1022A00084238EB9089528980895299A0895811154
:1022B00004C0613031F0A0980895613021F0A198F8
:1022C0000895A09A0895A19A0895882311F0A19ADB
:1022D0000895A09A0895882311F0A1980895A098D0
:1022E0000895529A83B3836083BB779A0E94190B37
:1022F0000E948C0D0E94F30F0E944C0F41E06AE295
:102300008CE10E94EF0C2FEF81EE94E02150804091
:102310009040E1F700C000000C94590BA12CB12CA7
:1023200000E010E09BECE92E91E0F92E023011055F
:1023300009F446C00330110558F10430110509F4C1
:1023400071C008F449C00530110581F781E00E9491
:10235000240BC82F80E00E94240B6C2F0E94E208FF
:102360000E94C90ACEE1D0E0C12CD12C09C08FE96E
:102370009FE00197F1F700C00000219709F442C0E7
:102380000E942210813099F7CC24C394D12CEFCF36
:102390000115110509F496C00130110539F60E94A6
:1023A0007A032FEF86E791E0215080409040E1F7DB
:1023B00000C0000002E010E00230110509F0BACFC1
:1023C00080E00E948B006FE780E00E94DB0F0E949C
:1023D000F30203E010E0AACF80E00E948B006FE7D9
:1023E00080E00E94DB0F0E94A5045C01EFEFF6E79E
:1023F00021E0E150F0402040E1F700C0000004E09F
:1024000010E094CFCD2809F491CF82E390E0EFE97A
:10241000FFE03197F1F700C000000197C1F703E03A
:1024200010E084CF0E940B0F60E080E00E946B0DF3
:1024300086E391E00E945C0E1A141B04A4F5C12CE3
:10244000D12CC7E6D1E0698188810E9411018C01FD
:10245000698188810E94E208298130E0488150E04A
:10246000BC01C8010E942C052296EC16FD0659F706
:102470008AE090E0EFE9FFE03197F1F700C000005B
:102480000197C1F761E080E00E946B0DC6010E94D8
:10249000810E82E391E00E945C0EFFEFCF1ADF0A0B
:1024A000CA14DB0471F682E390E0EFE9FFE03197B4
:1024B000F1F700C000000197C1F70E940B0F05E083
:1024C00010E034CF0E9471110E94CA0180E00E9486
:1024D0008B006FE780E00E94DB0F01E010E026CF69
:1024E000AA1BBB1B51E107C0AA1FBB1FA617B7073A
:1024F00010F0A61BB70B881F991F5A95A9F7809556
:102500009095BC01CD01089597FB072E16F4009419
:1025100007D077FD09D00E94701207FC05D03EF469
:10252000909581959F4F0895709561957F4F08957F
:10253000EE0FFF1F0590F491E02D0994A29FB001CA
:10254000B39FC001A39F700D811D1124911DB29FE7
:10255000700D811D1124911D08955058BB27AA2785
:102560000E94C5120C9477140E94691438F00E94DE
:10257000701420F039F49F3F19F426F40C943F14A2
:102580000EF4E095E7FB0C943914E92F0E948814AF
:1025900058F3BA17620773078407950720F079F498
:1025A000A6F50C94AA140EF4E0950B2EBA2FA02DCC
:1025B0000B01B90190010C01CA01A0011124FF27F0
:1025C000591B99F0593F50F4503E68F11A16F040EB
:1025D000A22F232F342F4427585FF3CF46953795EA
:1025E0002795A795F0405395C9F77EF41F16BA0BAF
:1025F000620B730B840BBAF09150A1F0FF0FBB1F5D
:10260000661F771F881FC2F70EC0BA0F621F731FA5
:10261000841F48F4879577956795B795F7959E3F02
:1026200008F0B0CF9395880F08F09927EE0F979593
:10263000879508950E942E130C9477140E947014AD
:1026400058F00E94691440F029F45F3F29F00C947F
:10265000391451110C94AB140C943F140E9488143B
:1026600068F39923B1F3552391F3951B550BBB27C1
:10267000AA2762177307840738F09F5F5F4F220F06
:10268000331F441FAA1FA9F335D00E2E3AF0E0E8FD
:1026900032D091505040E695001CCAF72BD0FE2F47
:1026A00029D0660F771F881FBB1F261737074807DB
:1026B000AB07B0E809F0BB0B802DBF01FF27935893
:1026C0005F4F3AF09E3F510578F00C9439140C940A
:1026D000AB145F3FE4F3983ED4F386957795679506
:1026E000B795F7959F5FC9F7880F911D96958795C8
:1026F00097F90895E1E0660F771F881FBB1F6217E7
:1027000073078407BA0720F0621B730B840BBA0BA4
:10271000EE1F88F7E095089529F416F00C9439140B
:102720000C94AA140C943F140E949014A8F39638A9
:10273000A0F707F80F92E8942BE33AEA48EB5FE73B
:102740000E943D150F920F920F924DB75EB70F92F8
:102750000E94F314E0EBF0E00E9442144F915F916D
:10276000EF91FF91E595EE1FFF1F49F0FE57E068DE
:102770004427EE0F441FFA95E1F74195550B0E944F
:10278000BD140F9007FE0C94B11408950E94CD1350
:102790006894B1110C94AB1408950E94901488F0C1
:1027A0009F5798F0B92F9927B751B0F0E1F0660F15
:1027B000771F881F991F1AF0BA95C9F714C0B13056
:1027C00091F00E94AA14B1E008950C94AA14672F06
:1027D000782F8827B85F39F0B93FCCF38695779585
:1027E0006795B395D9F73EF490958095709561956E
:1027F0007F4F8F4F9F4F0895E89409C097FB3EF499
:1028000090958095709561957F4F8F4F9F4F99233D
:10281000A9F0F92F96E9BB279395F69587957795BB
:102820006795B795F111F8CFFAF4BB0F11F460FF7B
:102830001BC06F5F7F4F8F4F9F4F16C0882311F0D3
:1028400096E911C0772321F09EE8872F762F05C0E7
:10285000662371F096E8862F70E060E02AF09A9582
:10286000660F771F881FDAF7880F9695879597F977
:10287000089597F99F6780E870E060E008959FEF02
:1028800080EC0895DF93CF931F930F93FF92EF9205
:10289000DF927B018C01689406C0DA2EEF010E9462
:1028A0003A15FE01E894A5912591359145915591F0
:1028B000A6F3EF010E94C512FE019701A801DA9468
:1028C00069F7DF90EF90FF900F911F91CF91DF910B
:1028D000089500240A941616170618060906089586
:1028E00000240A9412161306140605060895092EEC
:1028F0000394000C11F4882352F0BB0F40F4BF2B5B
:1029000011F460FF04C06F5F7F4F8F4F9F4F08959A
:1029100057FD9058440F551F59F05F3F71F0479590
:10292000880F97FB991F61F09F3F79F08795089575
:10293000121613061406551FF2CF4695F1DF08C094
:10294000161617061806991FF1CF869571056105B1
:1029500008940895E894BB2766277727CB0197F959
:1029600008959B01AC0160E070E080E89FE30C9467
:102970001A130C9439140C9494150E949014D8F3E3
:102980009923C9F3940F511DA3F39150504094F033
:1029900059F0882332F0660F771F881F91505040FE
:1029A000C1F79E3F51052CF7880F911D969587958D
:1029B00097F908955F3FACF0983E9CF0BB27869551
:1029C00077956795B79508F4B1609395C1F7BB0FFC
:1029D00058F711F460FFE8CF6F5F7F4F8F4F9F4F25
:1029E000E3CF0C94AB14FA01DC01AA0FBB1F9B01CF
:1029F000AC01BF5728F4222733274427507820C042
:102A0000B75190F4AB2F0024469537952795011CBC
:102A1000A395D2F3002071F0220F331F441FB3950A
:102A2000DAF30ED00C94AD1261307105A0E88A077C
:102A3000B94630F49B01AC01662777278827907848
:102A4000309621F0208331834283538308950E947E
:102A50003A150C9477140E94691438F00E9470148F
:102A600020F0952311F00C9439140C943F14112488
:102A70000C94AB140E94881470F3959FC1F3950FCA
:102A800050E0551F629FF001729FBB27F00DB11DF2
:102A9000639FAA27F00DB11DAA1F649F6627B00D82
:102AA000A11D661F829F2227B00DA11D621F739F6B
:102AB000B00DA11D621F839FA00D611D221F749F79
:102AC0003327A00D611D231F849F600D211D822FC0
:102AD000762F6A2F11249F5750409AF0F1F08823E7
:102AE0004AF0EE0FFF1FBB1F661F771F881F915014
:102AF0005040A9F79E3F510580F00C9439140C9476
:102B0000AB145F3FE4F3983ED4F3869577956795D1
:102B1000B795F795E7959F5FC1F7FE2B880F911D3D
:102B20009695879597F908959F3F31F0915020F43D
:102B3000879577956795B795880F911D9695879599
:102B400097F908958F929F92AF92BF92CF92DF92A2
:102B5000EF92FF92CF93DF93EC01688179818A81B4
:102B60009B81611571058105910521F464E279ED80
:102B70008BE597E02DE133EF41E050E00E94FE1538
:102B800049015A019B01AC01A7EAB1E40E941D165C
:102B90006B017C01ACEEB4EFA50194010E942B16F1
:102BA000DC01CB018C0D9D1DAE1DBF1DB7FF03C009
:102BB0000197A109B04888839983AA83BB839F7733
:102BC000DF91CF91FF90EF90DF90CF90BF90AF90CB
:102BD0009F908F9008950E94A215089580E091E043
:102BE0000E94A2150895A0E0B0E0809300019093A8
:102BF0000101A0930201B09303010895052E97FBF4
:102C00001EF400940E94151657FD07D00E9430163E
:102C100007FC03D04EF40C94151650954095309552
:102C200021953F4F4F4F5F4F089590958095709538
:102C300061957F4F8F4F9F4F08950E949E12A59FD1
:102C4000900DB49F900DA49F800D911D11240895A7
:102C5000B7FF0C941D160E941D16821B930B08953E
:102C6000A1E21A2EAA1BBB1BFD010DC0AA1FBB1F90
:102C7000EE1FFF1FA217B307E407F50720F0A21B02
:102C8000B30BE40BF50B661F771F881F991F1A946F
:102C900069F760957095809590959B01AC01BD0199
:082CA000CF010895F894FFCF65
:102CA80001000000446174613A004C0052007669EA
:102CB80063746F7279210050726F706F7274696FEC
:102CC8006E616C3A003C3D2D20202B3D3E002020BB
:102CD80020202020200045706F63683A200061643E
:102CE80064724E41434B0077725F4E41434B007212
:082CF8006561644E41434B008D
:00000001FF
