:100000000C946C000C9489000C9489000C94890069
:100010000C9489000C9489000C9489000C94D111E3
:100020000C9489000C9489000C9489000C9489002C
:100030000C9489000C9489000C9489000C9489001C
:100040000C9489000C9489000C9489000C9489000C
:100050000C9489000C9489000C9489009E129E12C5
:10006000A912A912B512BA12BA12BC12BC12BC1251
:10007000C8128E128E129A12EA12EA12FA12FA12AA
:100080000A131E131E130E130E130E132013DA126F
:10009000DA12D6125D135D136D136D137D13911378
:1000A000911381138113811393134D134D1349132E
:1000B00007634236B79BD8A71A39685618AEBAAB51
:1000C000558C1D3CB7CC5763BD6DEDFD753EF617E5
:1000D0007231BF000000803F11241FBECFEFD0E17E
:1000E000DEBFCDBF11E0A0E0B1E0ECEEF1E302C075
:1000F00005900D92A635B107D9F722E0A6E5B1E04B
:1001000001C01D92A735B207E1F70E94E8130C94D5
:10011000F4180C940000082E000C990B9C01220F7F
:10012000331F820F931F6AE070E00E94F814615839
:1001300081E00C9435128FE39CE90197F1F700C040
:10014000000004C00E947C12882321F00E947C12CF
:100150008130C1F381E090E00895882361F02DEFB4
:100160006202C00111246AE070E00E94F814615834
:1001700080E00C943512862F0C948B000E947C1228
:10018000813019F080E090E008950C949B00EF928C
:10019000FF920F931F93CF93DF93009701F18C0190
:1001A000E12CF12CC0E0D0E00AC08FE99FE001977C
:1001B000F1F700C0000021960C171D0741F00E94C6
:1001C0007C12813091F7EE24E394F12CEECFC7013D
:1001D000DF91CF911F910F91FF90EF90089580E0F4
:1001E00090E0F6CFFB01389632912291338322833F
:1001F000E617F707C9F7918380830895FC019C01F6
:10020000265F3F4F60E070E081919191680F791F08
:100210002E173F07C9F7072E000C880B990B0E9479
:10022000771620E030E040EA50E40E9493150895EC
:100230000F931F93CF93DF93682F70E080E090E0DF
:100240000E94771620E030E048EC52E40E949315BB
:100250008B01D82FC92F20E030E0A9010E948E1514
:1002600087FD17C020E030E040E85FE3B8018D2F44
:100270009C2F0E944E17181624F400E010E0D0E8DE
:10028000CFE3B8018D2F9C2FDF91CF911F910F915C
:10029000089500E010E0D0E0C0E0B8018D2F9C2F61
:1002A000DF91CF911F910F9108950F931F93CF93DB
:1002B000DF9320E030E048EC52E40E94C9178B0144
:1002C000D82FC92F20E030E0A9010E948E1587FDAC
:1002D0001FC020E030E048EC52E4B8018D2F9C2F85
:1002E0000E944E17181644F0B8018D2F9C2FDF91F5
:1002F000CF911F910F91089500E010E0D8ECC2E477
:10030000B8018D2F9C2FDF91CF911F910F910895F0
:1003100000E010E0D0E0C0E0B8018D2F9C2FDF910D
:10032000CF911F910F9108954F925F926F927F929C
:100330008F929F92AF92BF92CF92DF92EF92FF92F5
:100340000F931F93CF93DF93CDB7DEB72C970FB6E4
:10035000F894DEBF0FBECDBF082F10E0061B1109B9
:10036000E090C401F090C501F092C701E092C6018F
:10037000C090C201D090C301D092C501C092C40107
:100380008091C0019091C1019093C3018093C201FB
:100390002091BE013091BF013093C1012093C00173
:1003A0001093BF010093BE01200F311F820F931FD6
:1003B000C80ED91EB801012E000C880B990B0E94A3
:1003C00077162DEC3CEC4CE45EE30E94C9172B0140
:1003D0003C016091BC017091BD01600F711F072E3F
:1003E000000C880B990B0E9477162DEC3CEC4CE42A
:1003F0005DE30E94C9174B015C01B6016E0D7F1DC4
:10040000072E000C880B990B0E94771620E030E035
:1004100040EA50E40E9493152FE632E143E85AE3A4
:100420000E94C9176B017C0120E030E044E352E4F4
:10043000C301B2010E942215A50194010E94221558
:10044000A70196010E9422150E943F1669877A87AC
:100450008B879C87A301920160E070E084E392E4C3
:100460000E942115A50194010E942115A701960162
:100470000E9421150E943F167B0177FD94C069857B
:100480007A8577FD8DC07727072E000C880B990B96
:100490000E94771620E030E048EC52E40E94931569
:1004A000D62EA72EB82EC92E20E030E0A9010E943A
:1004B0008E1587FD70C020E030E040E85FE36D2DD1
:1004C0007A2D8B2D9C2D0E944E17181634F4D12CAA
:1004D000A12C80E8B82E9FE3C92EB7017727072EFD
:1004E000000C880B990B0E94771620E030E048EC56
:1004F00052E40E949315F62E872E982EE92E20E0C6
:1005000030E0A9010E948E1587FD50C020E030E048
:1005100040E85FE36F2D782D892D9E2D0E944E17A8
:100520001816ACF560E0812C80E89FE31093BD01C4
:100530000093BC010D2D1A2D2B2D3C2D09831A8300
:100540002B833C83062F182D9C010D831E832F8344
:1005500038872D2D3A814B815C817E818F819885F2
:100560002C960FB6F894DEBF0FBECDBFDF91CF91B2
:100570001F910F91FF90EF90DF90CF90BF90AF90C1
:100580009F908F907F906F905F904F9008956F2D08
:10059000892D9E2DCBCFD12CA12CB12CC12C9DCF40
:1005A00060E070E070CFE12CF12C69CF60E0812C2D
:1005B00080E090E0BBCFCF93DF930E949018CAE613
:1005C000D1E0BC01990F880B990B0E94771620E0AF
:1005D0003EEF4FEF56E40E949315688379838A8338
:1005E0009B830E949018BC01990F880B990B0E9465
:1005F000771620E03EEF4FEF56E40E9493156C8390
:100600007D838E839F830E949018BC01990F880B75
:10061000990B0E94771620E03EEF4FEF56E40E94C0
:1006200093156C877D878E879F870E949018BC01E9
:10063000990F880B990B0E94771620E03EEF4FEF41
:1006400056E40E949315688B798B8A8B9B8B0E9452
:100650009018BC01990F880B990B0E94771620E027
:100660003EEF4FEF56E40E9493156C8B7D8B8E8B83
:100670009F8B0E949018BC01990F880B990B0E94C8
:10068000771620E03EEF4FEF56E40E9493156C8FF3
:100690007D8F8E8F9F8F0E949018BC01990F880BC1
:1006A000990B0E94771620E03EEF4FEF56E40E9430
:1006B000931568A379A38AA39BA30E949018BC01F9
:1006C000990F880B990B0E94771620E03EEF4FEFB1
:1006D00056E40E9493156CA37DA38EA39FA30E9452
:1006E0009018BC01990F880B990B0E94771620E097
:1006F0003EEF4FEF56E40E9493156CA77DA78EA79F
:100700009FA70E949018BC01990F880B990B0E941B
:10071000771620E03EEF4FEF56E40E94931568AB4A
:1007200079AB8AAB9BAB0E949018BC01990F880BE8
:10073000990B0E94771620E03EEF4FEF56E40E949F
:1007400093156CAB7DAB8EAB9FAB0E949018BC0138
:10075000990F880B990B0E94771620E03EEF4FEF20
:1007600056E40E94931568AF79AF8AAF9BAF0E94A1
:100770009018BC01990F880B990B0E94771620E006
:100780003EEF4FEF56E40E9493156CAF7DAF8EAFF6
:100790009FAF0E949018BC01990F880B990B0E9483
:1007A000771620E03EEF4FEF56E40E9493156093DA
:1007B000AA017093AB018093AC019093AD010E94AC
:1007C0009018BC01990F880B990B0E94771620E0B6
:1007D0003EEF4FEF56E40E9493156093AE01709385
:1007E000AF018093B0019093B1010E949018BC01B9
:1007F000990F880B990B0E94771620E03EEF4FEF80
:1008000056E40E9493156093B2017093B3018093F4
:10081000B4019093B5010E949018BC01990F880B08
:10082000990B0E94771620E03EEF4FEF56E40E94AE
:1008300093156093B6017093B7018093B8019093BC
:10084000B901DF91CF910895CF93DF931092BB014F
:100850001092BA0115C02FEF81EE94E02150804034
:100860009040E1F700C000008091BA019091BB0177
:1008700001969093BB018093BA01C2970CF058C0C7
:1008800080E00E947E0DD82F81E00E947E0DC82F4F
:10089000E091BA01F091BB01EE0FFF1FE753FE4F4D
:1008A000D083C1830E94651160E080E00E94C50F83
:1008B00084E091E00E94B6108091BA019091BB0152
:1008C0000E94DB108BE291E00E94B61061E080E0B4
:1008D0000E94C50F8AE091E00E94B6108D2F90E033
:1008E0000E94DB1061E084E00E94C50F8CE091E083
:1008F0000E94B6108C2F90E00E94DB100E947C12A8
:10090000813009F0A8CF0E949B00892B09F4A3CF66
:100910002FEF80E792E0215080409040E1F700C047
:1009200000008091BA019091BB01DF91CF910895B1
:100930000E94651160E080E00E94C50F8EE091E0AA
:100940000E94B6108091BA019091BB01DF91CF91C6
:1009500008952F923F924F925F926F927F928F9263
:100960009F92AF92BF92CF92DF92EF92FF920F933E
:100970001F93CF93DF93CDB7DEB72E970FB6F894C2
:10098000DEBF0FBECDBFFE0131968AE0DF011D92B2
:100990008A95E9F7C12CD12C34C07B0177FDC0C00A
:1009A0008C2D0E948B00BE2D2DEFB202C0011124B0
:1009B0006AE070E00E94F814615880E00E943512ED
:1009C0000E94651160E080E00E94C50F87E191E020
:1009D0000E94B610C6010E94DB108BE291E00E94DB
:1009E000B61061E080E00E94C50F8BE191E00E94AB
:1009F000B610C7010E94DB108BE291E00E94B61096
:100A000068010E947C12813009F48DC080E00E9450
:100A10007E0D082F81E00E947E0D10E0081B110959
:100A2000EF80F884FA86E9862D803E8038862F8212
:100A30008B819C819E838D8329813A813C832B838A
:100A40001A830983200F311F820F931F280E391E2E
:100A5000B801012E000C880B990B0E9477162DEC23
:100A60003CEC4CE45EE30E94C9172B013C01B6014B
:100A7000600F711F072E000C880B990B0E947716D0
:100A80002DEC3CEC4CE45DE30E94C9174B015C018A
:100A9000B701620D731D072E000C880B990B0E9485
:100AA000771620E030E040EA50E40E9493152FE6EC
:100AB00032E143E85AE30E94C9176B017C0120E050
:100AC00030E044E352E4C301B2010E942215A501C3
:100AD00094010E942215A70196010E9422150E94EE
:100AE0003F166B877C878D879E87A301920160E00C
:100AF00070E084E392E40E942115A50194010E9414
:100B00002115A70196010E9421150E943F16CB8452
:100B1000DC84D7FE42CFC12CD12C7B0177FF40CFA4
:100B2000E12CF12C3DCF0E949B00892B09F46ECF64
:100B30002E960FB6F894DEBF0FBECDBFDF91CF91DA
:100B40001F910F91FF90EF90DF90CF90BF90AF90EB
:100B50009F908F907F906F905F904F903F902F90DD
:100B60000895009769F020E030E0EFE9FFE0319769
:100B7000F1F700C000002F5F3F4F82179307A9F7DE
:100B80000895EF92FF920F931F93CF93DF930E94EC
:100B9000651160E080E00E94C50F8FE191E00E9446
:100BA000B610E12CF12C0E94760F8F3108F067C04F
:100BB0000E94760F893C08F059C00E94720F893C50
:100BC00008F04BC00E94720F8531D8F5F7FC42C087
:100BD00061E080E00E94C50FC7010E94DB1088E23F
:100BE00091E00E94B610C1E0D0E000E010E00E9469
:100BF0007C12813071F08FE99FE00197F1F700C01E
:100C00000000C233D10591F021960E947C12813000
:100C100091F78FE99FE00197F1F700C00000C23320
:100C2000D10539F001E010E02196EFCF012B09F456
:100C3000BACFC701DF91CF911F910F91FF90EF9035
:100C400008950E94720F863408F69AE0E90EF11CAE
:100C5000F7FEBECFE12CF12CBBCF0E94720F863E77
:100C600008F0B0CF8AE0E81AF108ACCF0E94760F06
:100C70008A3F08F0A2CF9FEFE91AF90A9ECF0E949F
:100C8000760F863408F094CF81E0E81AF10890CF0F
:100C90004F925F926F927F928F929F92AF92BF928C
:100CA000CF92DF92EF92FF920F931F93CF93DF9338
:100CB000CDB7DEB7C455D1090FB6F894DEBF0FBE6D
:100CC000CDBF29833A834B835C836D837E838F837F
:100CD0009887A986BA86CB86DC86ED86FE860F8746
:100CE000188B840189819A81AB81BC81898B9A8B15
:100CF000AB8BBC8B8D819E81AF81B8858D8B9E8B9C
:100D0000AF8BB88FC984DA84EB84FC844D845E8415
:100D10006F847888A8966FADA89770E080E090E027
:100D20000E94771620E030E048EC52E40E949315D0
:100D30004B015C0120E030E0A9010E948E1587FD87
:100D4000B4C320E030E040E85FE3C501B4010E9495
:100D50004E1718160CF0AEC380E090E0A0E8BFE399
:100D6000898F9A8FAB8FBC8FB8017727072E000C25
:100D7000880B990B0E94771620E030E048EC52E493
:100D80000E9493154B015C0120E030E0A9010E9414
:100D90008E1587FD9EC320E030E040E85FE3C5018B
:100DA000B4010E944E1718160CF070C380E090E05A
:100DB000A0E8BFE389A39AA3ABA3BCA3A7019601B4
:100DC00060E070E080E89FE30E942115A701960192
:100DD0000E94C9174B015C0129893A894B895C89BA
:100DE000C701B6010E9421159B01AC01C501B401E8
:100DF0000E94C917698B7A8B8B8B9C8B80919A018F
:100E000090919B01A0919C01B0919D018DA39EA307
:100E1000AFA3B8A7A301920160E070E080E89FE370
:100E20000E942115A30192010E94C9176B017C0148
:100E30002D893E894F89588DC301B2010E94211529
:100E40009B01AC01C701B6010E94C9172B013C01EF
:100E50008091AA019091AB01A091AC01B091AD013C
:100E600089A79AA7ABA7BCA780916601909167015B
:100E7000A0916801B09169018D8B9E8BAF8BB88F6B
:100E80002DA13EA14FA158A569897A898B899C899A
:100E90000E94C9176B017C0129A53AA54BA55CA549
:100EA000C301B2010E94C9179B01AC01C701B60181
:100EB0000E9422156B017C012D893E894F89588D36
:100EC00060E070E080E89FE30E9421152D893E8953
:100ED0004F89588D0E94C9179B01AC01C701B6010B
:100EE0000E94C9176D8F7E8F8F8F98A3298D3A8DA1
:100EF0004B8D5C8D0E94C91720E53DE847E15DE31D
:100F00000E94C9179B01AC0160916E0170916F0145
:100F100080917001909171010E9421156DAB7EABA3
:100F20008FAB98AF20E53DE847E15DE36D8D7E8DA9
:100F30008F8D98A10E94C917209176013091770179
:100F400040917801509179010E94221569AF7AAFE2
:100F50008BAF9CAFC0906201D0906301E0906401C0
:100F6000F090650120919E0130919F014091A00178
:100F70005091A10169897A898B899C890E94C9173E
:100F80004B015C012091AE013091AF014091B00165
:100F90005091B101C301B2010E94C9179B01AC017C
:100FA000C501B4010E9422154B015C01A701960105
:100FB00060E070E080E89FE30E942115A7019601A0
:100FC0000E94C9179B01AC01C501B4010E94C91759
:100FD0006B017C0129A13AA14BA15CA10E94C91718
:100FE00020E53DE847E15DE30E94C9179B01AC01A4
:100FF00060917A0170917B0180917C0190917D01DB
:101000000E94211521966CAF7DAF8EAF9FAF2197C7
:10101000298D3A8D4B8D5C8DC701B6010E94C91791
:1010200020E53DE847E15DE30E94C9179B01AC0163
:1010300060917E0170917F0180918001909181018A
:101040000E94211525966CAF7DAF8EAF9FAF25977F
:1010500020E53DE847E15DE3C701B6010E94C917FD
:10106000209186013091870140918801509189013A
:101070000E94221529966CAF7DAF8EAF9FAF299746
:101080008091A2019091A301A091A401B091A5012A
:101090008DA79EA7AFA7B8AB8091B2019091B30185
:1010A000A091B401B091B50189AB9AABABABBCAB2D
:1010B00080905E0190905F01A0906001B09061010E
:1010C0002DA53EA54FA558A969897A898B899C8948
:1010D0000E94C9176B017C0129A93AA94BA95CA9F7
:1010E000C301B2010E94C9179B01AC01C701B6013F
:1010F0000E9422156B017C01A501940160E070E063
:1011000080E89FE30E942115A50194010E94C91760
:101110009B01AC01C701B6010E94C9176B017C019C
:1011200029A13AA14BA15CA10E94C91720E53DE885
:1011300047E15DE30E94C9179B01AC0160918A0100
:1011400070918B0180918C0190918D010E942115ED
:101150002D966CAF7DAF8EAF9FAF2D97298D3A8DB9
:101160004B8D5C8DC701B6010E94C91720E53DE893
:1011700047E15DE30E94C9179B01AC0160918E01BC
:1011800070918F0180919001909191010E942115A1
:10119000698F7A8F8B8F9C8F20E53DE847E15DE377
:1011A000C701B6010E94C91720919601309197019D
:1011B00040919801509199010E94221561966CAF5F
:1011C0007DAF8EAF9FAF619720E53DE847E15DE3DE
:1011D00069897A898B899C890E94C9172091A60107
:1011E0003091A7014091A8015091A9010E942215B8
:1011F00065966CAF7DAF8EAF9FAF659720E53DE8FC
:1012000047E15DE3C301B2010E94C9172091B60115
:101210003091B7014091B8015091B9010E94221557
:101220006B017C0129A13AA14BA15CA16D8D7E8D42
:101230008F8D98A10E94C91720E53DE847E15DE345
:101240000E94C9179B01AC0160916A0170916B010A
:1012500080916C0190916D010E94211560936A014B
:1012600070936B0180936C0190936D018DA99EA981
:10127000AFA9B8AD80936E0190936F01A0937001F8
:10128000B093710189AD9AADABADBCAD80937601E1
:1012900090937701A0937801B093790121968CAD5A
:1012A0009DADAEADBFAD219780937A0190937B0148
:1012B000A0937C01B0937D0125968CAD9DADAEAD24
:1012C000BFAD259780937E0190937F01A09380010D
:1012D000B093810129968CAD9DADAEADBFAD299780
:1012E0008093860190938701A0938801B093890130
:1012F0002D968CAD9DADAEADBFAD2D9780938A017F
:1013000090938B01A0938C01B0938D01898D9A8D60
:10131000AB8DBC8D80938E0190938F01A093900133
:10132000B093910161968CAD9DADAEADBFAD6197AF
:101330008093960190939701A0939801B09399019F
:101340002D893E894F89588D69897A898B899C8935
:101350000E94C91720E53DE847E15DE30E94C917F7
:101360009B01AC016DA17EA18FA198A50E942115C2
:1013700060939A0170939B0180939C0190939D01CF
:10138000A501940169897A898B899C890E94C91772
:1013900020E53DE847E15DE30E94C9179B01AC01F0
:1013A0006DA57EA58FA598A90E94211560939E0129
:1013B00070939F018093A0019093A10165968CADDD
:1013C0009DADAEADBFAD65978093A6019093A7018B
:1013D000A093A801B093A9012D893E894F89588D0A
:1013E000C301B2010E94C91720E53DE847E15DE372
:1013F0000E94C9179B01AC0169A57AA58BA59CA584
:101400000E9421156093AA017093AB018093AC01F7
:101410009093AD01A5019401C301B2010E94C917C7
:1014200020E53DE847E15DE30E94C9179B01AC015F
:1014300069A97AA98BA99CA90E9421156093AE0184
:101440007093AF018093B0019093B101C092B60147
:10145000D092B701E092B801F092B901CC5ADF4FB7
:101460000FB6F894DEBF0FBECDBFDF91CF911F91B5
:101470000F91FF90EF90DF90CF90BF90AF909F9033
:101480008F907F906F905F904F900895C501B40149
:101490000E943F16072E000C880B990B0E947716AE
:1014A00069A37AA38BA39CA389CC198E1A8E1B8E59
:1014B0001C8E5ACCC501B4010E943F16072E000CA9
:1014C000880B990B0E947716698F7A8F8B8F9C8F70
:1014D0004BCC19A21AA21BA21CA270CC2F923F9235
:1014E0004F925F926F927F928F929F92AF92BF9234
:1014F000CF92DF92EF92FF920F931F93CF93DF93E0
:10150000CDB7DEB72C970FB6F894DEBF0FBECDBFB8
:10151000162F682F70E080E090E00E94771620E0A0
:1015200030E048EC52E40E949315762EC72ED82E58
:10153000092F20E030E0A9010E948E1587FD15C219
:1015400020E030E040E85FE3672D7C2D8D2D902F6B
:101550000E944E1718160CF00DC2712CC12C90E889
:10156000692E0FE3612F70E080E090E00E94771613
:1015700020E030E048EC52E40E9493157B01182FE4
:10158000B92E20E030E0A9010E948E1587FDF4C13C
:1015900020E030E040E85FE3B701812F9B2D0E94FF
:1015A0004E1718160CF0DFC1E12CF12C10E88FE378
:1015B000D82E20917A0130917B0140917C0150918D
:1015C0007D01672D7C2D862D902F0E94C9174B0120
:1015D0005C0120917E0130917F014091800150910A
:1015E0008101B701812F9D2D0E94C9179B01AC017C
:1015F000C501B4010E942215209186013091870116
:1016000040918801509189010E9421154B015C0194
:1016100020918A0130918B0140918C0150918D0174
:10162000672D7C2D862D902F0E94C9171B012C0140
:1016300020918E0130918F01409190015091910144
:10164000B701812F9D2D0E94C9179B01AC01C201DA
:10165000B1010E942215209196013091970140918D
:101660009801509199010E94211569877A878B878B
:101670009C8720916A0130916B0140916C015091DF
:101680006D01672D7C2D862D902F0E94C9172B018F
:101690003C0120916E0130916F0140917001509199
:1016A0007101B701812F9D2D0E94C9179B01AC01CB
:1016B000C301B2010E942215209176013091770179
:1016C00040917801509179010E94211590580E9413
:1016D0000D1620E030E040E85FE30E9422159B01F8
:1016E000AC0160E070E080E89FE30E9493152B015D
:1016F0003C01609366017093670180936801909349
:101700006901C501B40190580E940D1620E030E037
:1017100040E85FE30E9422159B01AC0160E070E0AD
:1017200080E89FE30E9493154B015C016093620186
:1017300070936301809364019093650169857A8554
:101740008B859C8590580E940D1620E030E040E883
:101750005FE30E9422159B01AC0160E070E080E82D
:101760009FE30E9493156B017C0160935E0170936F
:101770005F0180936001909361012091AA013091F3
:10178000AB014091AC015091AD01C301B2010E9487
:10179000C91769877A878B879C872091AE01309122
:1017A000AF014091B0015091B101C501B4010E9457
:1017B000C9179B01AC0169857A858B859C850E9440
:1017C000221569877A878B879C872091B201309197
:1017D000B3014091B4015091B501C701B6010E9417
:1017E000C9179B01AC0169857A858B859C850E9410
:1017F00022152091B6013091B7014091B801509166
:10180000B9010E94211569877A878B879C8720916F
:101810009A0130919B0140919C0150919D01C3011F
:10182000B2010E94C9172B013C0120919E01309109
:101830009F014091A0015091A101C501B4010E94F6
:10184000C9179B01AC01C301B2010E9422154B01D3
:101850005C012091A2013091A3014091A40150911B
:10186000A501C701B6010E94C9179B01AC01C501C2
:10187000B4010E9422152091A6013091A701409148
:10188000A8015091A9010E94211590580E940D169F
:1018900020E030E040E85FE30E9422159B01AC01AC
:1018A00060E070E080E89FE30E949315162FA72E5A
:1018B000B82E092F862F9A2DAB2DB02F80935A0169
:1018C00090935B01A0935C01B0935D0169857A857B
:1018D0008B859C8590580E940D1620E030E040E8F2
:1018E0005FE30E9422159B01AC0160E070E080E89C
:1018F0009FE30E9493156B017C01C0925601D09228
:101900005701E0925801F0925901C12EDA2CEB2CCC
:10191000F02EC982DA82EB82FC826B017C01CD82DF
:10192000DE82EF82F886212F3A814B815C817E81B5
:101930008F8198852C960FB6F894DEBF0FBECDBF71
:10194000DF91CF911F910F91FF90EF90DF90CF909B
:10195000BF90AF909F908F907F906F905F904F90CF
:101960003F902F900895DB2C24CE712CC12C612C3C
:1019700000E0F8CD6D2CF6CDE12CF12C10E0D12C4F
:1019800018CEAF92BF92CF92DF92EF92FF920F9359
:101990001F93CF93DF93CDB7DEB728970FB6F89498
:1019A000DEBF0FBECDBF29833A834B835C836D833B
:1019B0007E838F83988720E030E048EC52E4698191
:1019C0007A818B819C810E94C9176B017C0120E088
:1019D00030E0A9010E948E1587FD7DC020E030E037
:1019E00048EC52E4C701B6010E944E1718160CF4D9
:1019F00068C0C701B6010E943F165B01162F20E0A8
:101A000030E048EC52E46D817E818F8198850E94A0
:101A1000C9176B017C0120E030E0A9010E948E15FE
:101A200087FD5DC020E030E048EC52E4C701B6011C
:101A30000E944E1718160CF449C0C701B6010E9447
:101A40003F167B012DEF6202C00111246AE070E0B5
:101A50000E94F8140FE7060F61E080E00E94C50FB6
:101A60008AE091E00E94B610C5010E94DB108CE272
:101A700091E00E94B61061E084E00E94C50F8CE006
:101A800091E00E94B610C7010E94DB108DE291E048
:101A90000E94B610812F0E948B00602F80E0289654
:101AA0000FB6F894DEBF0FBECDBFDF91CF911F916F
:101AB0000F91FF90EF90DF90CF90BF90AF900C947C
:101AC000351214E694E6A92EB12C99CF01E684E6EE
:101AD000E82EF12CC1CF10E0A12CB12C90CF0FE754
:101AE000E12CF12CB9CFEAE7F0E0808187688083B0
:101AF000ECE7F0E0808180668083089590917C001F
:101B0000987F90937C0090917C00892B80937C003F
:101B100080917A00806480937A0080917A0086FDBB
:101B2000FCCF8091790008958DB18F7C8DB985E0CF
:101B30008A95F1F700006D9A759885E08A95F1F71E
:101B400000006C9A749885E08A95F1F7000008957A
:101B50006C9885E08A95F1F700006D9885E08A958C
:101B6000F1F7000008956D9885E08A95F1F700007F
:101B700065990DC06C9885E08A95F1F700006C9A24
:101B8000749885E08A95F1F70000659BF3CF6C9817
:101B900008956C9885E08A95F1F700006C9A749826
:101BA00085E08A95F1F7000008951F93CF93DF93A6
:101BB000D82FC62F142F0E94B30D0E94940D87E0DA
:101BC00013C06D9895E09A95F1F700006C9895E038
:101BD0009A95F1F700006C9A749895E09A95F1F750
:101BE0000000DD0F815029F0D6FDEBCF6D9A75987E
:101BF000E9CF6D9A759885E08A95F1F700006C98A9
:101C000095E09A95F1F700006C9A749885E08A95B2
:101C1000F1F700006D9895E09A95F1F700006C9847
:101C2000659B05C08BE391E00E94B610FFCF85E075
:101C30008A95F1F700006C9A749895E09A95F1F7FF
:101C4000000088E014C06D9A759895E09A95F1F7B8
:101C500000006C9895E09A95F1F700006C9A7498E2
:101C600095E09A95F1F70000CC0F815021F0C7FF65
:101C7000EACF6D98EACF6D9885E08A95F1F700007C
:101C80006C98659B05C087E491E00E94B610FFCF79
:101C900095E09A95F1F700006C9A749885E08A9522
:101CA000F1F70000112351F06C9895E09A95F1F747
:101CB00000006D9885E08A95F1F70000DF91CF91E3
:101CC0001F910895FC016623D1F14FEF460F50E0BC
:101CD0004F5F5F4F480F591F908128E016C06D9AE3
:101CE000759885E08A95F1F700006C9885E08A95F3
:101CF000F1F700006C9A749885E08A95F1F700007E
:101D00009081990F9083215021F097FFE8CF6D9833
:101D1000E8CF31966D9885E08A95F1F700006C98D0
:101D2000659918C085E08A95F1F700006C9A74985F
:101D300085E08A95F1F70000E417F50769F66C98DD
:101D400085E08A95F1F700006D9885E08A95F1F7B6
:101D50000000089584E491E00E94B610FFCF0F9335
:101D60001F93CF93DF93082FEB01142F0E94940D44
:101D700087E013C06D9895E09A95F1F700006C9894
:101D800095E09A95F1F700006C9A749895E09A9511
:101D9000F1F70000000F815029F006FDEBCF6D9A9E
:101DA0007598E9CF6D9885E08A95F1F700006C98F9
:101DB00095E09A95F1F700006C9A749885E08A9501
:101DC000F1F700006D9895E09A95F1F700006C9896
:101DD000659B05C08CE491E00E94B610FFCF85E0C2
:101DE0008A95F1F700006C9A749895E09A95F1F74E
:101DF00000006D9885E08A95F1F700001123B1F19C
:101E00002FEF210F30E02F5F3F4F2C0F3D1F98E049
:101E10008881880F88836C9885E08A95F1F70000A7
:101E2000659B03C088818160888385E08A95F1F78E
:101E300000006C9A749885E08A95F1F70000915043
:101E400039F76D9A759895E09A95F1F700006C98BE
:101E500085E08A95F1F700006C9A749895E09A9560
:101E6000F1F7000021962C173D0789F695E09A9529
:101E7000F1F700006C9885E08A95F1F700006D9805
:101E800095E09A95F1F70000DF91CF911F910F91A6
:101E90000895CF93DF931F92CDB7DEB7498340E01B
:101EA0000E94D50D61E0CE0101960E94620E0F9056
:101EB000DF91CF9108951F93CF93DF931F92CDB7FA
:101EC000DEB7182F41E00E94D50D41E0BE016F5FE3
:101ED0007F4F812F0E94AF0E89810F90DF91CF91AC
:101EE0001F91089561E08CE10C945B0F63E08CE13D
:101EF0000C945B0F65E08CE10C945B0F8AE08A9593
:101F0000F1F700C0449A8AE08A95F1F700C044983E
:101F10008AE08A95F1F700C00895F89482B98AE0C2
:101F20008A95F1F700C0449A8AE08A95F1F700C0DB
:101F300044988AE08A95F1F700C0789408958F98C4
:101F4000F89482B98AE08A95F1F700C0449A8AE051
:101F50008A95F1F700C044988AE08A95F1F700C0AD
:101F6000789408958F9AF89482B98AE08A95F1F767
:101F700000C0449A8AE08A95F1F700C044988AE04C
:101F80008A95F1F700C078940895803110F462309A
:101F900008F0089590E4699F800D112480588F986F
:101FA000F89482B98AE08A95F1F700C0449A9AE0E1
:101FB0009A95F1F700C044988AE08A95F1F700C03D
:101FC000789495EC9A95F1F7000008953C9A879AD9
:101FD0008FEF81B98FE19EE40197F1F700C0000017
:101FE0008F98F89488E382B99AE09A95F1F700C047
:101FF000449AEAE0EA95F1F700C04498FAE0FA95CD
:10200000F1F700C07894EFE7F2E03197F1F700C004
:1020100000008F98F89482B9FAE0FA95F1F700C0C1
:10202000449A9AE09A95F1F700C04498EAE0EA955C
:10203000F1F700C07894EFE7F2E03197F1F700C0D4
:1020400000008F98F89482B9FAE0FA95F1F700C091
:10205000449A9AE09A95F1F700C04498EAE0EA952C
:10206000F1F700C07894EFE7F2E03197F1F700C0A4
:1020700000008F98F89498E092B9FAE0FA95F1F799
:1020800000C0449A9AE09A95F1F700C04498EAE0BB
:10209000EA95F1F700C07894EFE7F2E03197F1F7B5
:1020A00000C000008F98F89491E092B9FAE0FA9598
:1020B000F1F700C0449A9AE09A95F1F700C044986D
:1020C000EAE0EA95F1F700C07894EFE7FEE3319794
:1020D000F1F700C000008F98F89496E092B9FAE00A
:1020E000FA95F1F700C0449A9AE09A95F1F700C08A
:1020F0004498EAE0EA95F1F700C07894EFE7F2E05F
:102100003197F1F700C000008F98F89482B9FAE097
:10211000FA95F1F700C0449A8AE08A95F1F700C079
:1021200044989AE09A95F1F700C07894EFE8F1E0CE
:102130003197F1F700C000008F98F8948CE082B9D5
:10214000FAE0FA95F1F700C0449A8AE08A95F1F72F
:1021500000C044989AE09A95F1F700C07894EFE8AF
:10216000F1E03197F1F700C000000895DC019C9187
:10217000992301F120E08F9AF89492B98AE08A9528
:10218000F1F700C0449A9AE09A95F1F700C044989C
:102190008AE08A95F1F700C078948FE792E0019782
:1021A000F1F700C000002F5FFD01E20FF11D9081EB
:1021B0009111E1CF08951F93CF93DF93FC01892BF9
:1021C00009F466C045E011E02FE037E2E90121960D
:1021D000CF01BE010E94E41461111DC02E173F07FC
:1021E00008F052C01123A9F111E0CF01BE010E94F5
:1021F000E414FC01ADECBCEC0E9412159C01369578
:10220000279536952795369527954150F9F6DF9114
:10221000CF911F9108952E173F07D8F0605D8F9AD8
:10222000F89462B99AE09A95F1F700C0449A8AE06E
:102230008A95F1F700C044989AE09A95F1F700C0AA
:1022400078948FE792E00197F1F700C0000010E06A
:10225000D1CF605D8F9AF89462B99AE09A95F1F7C0
:1022600000C0449A8AE08A95F1F700C044989AE049
:102270009A95F1F700C078948FE792E00197F1F713
:1022800000C0000010E0B1CF112341F211E0B2CF45
:102290008F9AF89480E382B98AE08A95F1F700C0BA
:1022A000449A9AE09A95F1F700C044988AE08A959A
:1022B000F1F700C078948FE792E00197F1F700C042
:1022C0000000DF91CF911F9108958F98F89481E0DD
:1022D00082B98AE08A95F1F700C0449A9AE09A950B
:1022E000F1F700C044988AE08A95F1F700C078942D
:1022F0008FE79EE30197F1F700C0000008955D9A13
:102300005C980895262F3FEF81110EC06303C00132
:10231000112464E670E00E94F8146093B300121672
:102320009CF45C9A5D9808956303C001112464E6EF
:1023300070E00E94F81467BD12161CF45E9A5F9854
:1023400008955F9A5E9808950C947F11CF93DF9360
:10235000C3EBD0E018820E947F1117BC5F9A5E9891
:1023600084B1806984B98AB1806F8AB9E0EBF0E00A
:1023700080818866808380818260808384B588665E
:1023800084BD84B5826084BD8AE087BD8883DF9187
:10239000CF9108955C9A5D982C9A5F9A5E982F9AD7
:1023A00008951F920F920FB60F9211242F933F930F
:1023B0004F935F936F937F938F939F93EF93FF93CD
:1023C0008091C801409188005091890080FD30C003
:1023D0008695E82FF0E0EE0FFF1FE15BFD4F2081B7
:1023E0003181240F351F309389002093880048B134
:1023F00021E030E0B90102C0660F771F8A95E2F74D
:10240000CB01842B88B98091C8018F5F877080933E
:10241000C801FF91EF919F918F917F916F915F9193
:102420004F913F912F910F900FBE0F901F901895D5
:102430008695E82FF0E0EE0FFF1FE95BFD4F20814E
:102440003181240F351F309389002093880048B1D3
:1024500021E030E0B90102C0660F771F8A95E2F7EC
:10246000CB018095842388B9CECF90E02AE0629F8B
:10247000B00111246C53764F880F991FFC01E15B6A
:10248000FD4F71836083FC01E95BFD4F24ED30E378
:10249000261B370B318320830895AFE4B2E024EC90
:1024A00039E011963C932E93E7E4F2E080E197E265
:1024B0009183808313963C932E9312979383828308
:1024C00015963C932E9314979583848317963C938B
:1024D0002E9316979783868387B18F6087B9E1E83B
:1024E000F0E01082808182608083EFE6F0E08081FE
:1024F00082608083789408958CB18095881F8827A6
:10250000881F0895482F50E04E30510510F080E0AC
:102510000895FA01E25DFF4F0C940C1523B130E0F1
:102520008950A90102C0559547958A95E2F7CA01DD
:102530008170089583B18695817008952CB130E043
:10254000A90102C0559547958A95E2F7CA018170A5
:10255000089522B330E08F5FA90102C055954795D9
:102560008A95E2F7CA01817008958CB186FB8827AD
:1025700080F9089523B1E3CF26B130E08250A9015C
:1025800002C0559547958A95E2F7CA018170089572
:1025900083B181700895962F482F50E04E30510539
:1025A00040F4FA01E45CFF4F0C940C15611164C017
:1025B0002198089544B1895021E030E0B90102C06A
:1025C000660F771F8A95E2F79923F1F1CB01842BEF
:1025D00084B908954DB121E030E0B90102C0660F21
:1025E000771F8A95E2F7992309F43FC0CB01842B2A
:1025F0008DB9089543B38F5F21E030E0B90102C087
:10260000660F771F8A95E2F7992329F1CB01842B76
:1026100083BB08956623E9F06E9A089547B182500E
:1026200021E030E0B90102C0660F771F8A95E2F71A
:102630009923B1F0CB01842B87B9089544B1BCCF65
:102640006623C1F0209A0895CB018095842384B934
:1026500008956E980895CB018095842383BB0895D7
:10266000CB018095842387B90895CB01809584237D
:102670008DB9089520980895219A0895962F482F8E
:1026800050E04E30510540F4FA01E65BFF4F0C94E8
:102690000C15611164C02998089545B1895021E055
:1026A00030E0B90102C0660F771F8A95E2F79923DF
:1026B000F1F1CB01842B85B908954EB121E030E0D2
:1026C000B90102C0660F771F8A95E2F7992309F4D2
:1026D0003FC0CB01842B8EB9089544B38F5F21E0B6
:1026E00030E0B90102C0660F771F8A95E2F799239F
:1026F00029F1CB01842B84BB08956623E9F0769AF7
:10270000089548B1825021E030E0B90102C0660F5F
:10271000771F8A95E2F79923B1F0CB01842B88B912
:10272000089545B1BCCF6623C1F0289A0895CB0126
:102730008095842385B9089576980895CB01809576
:10274000842384BB0895CB018095842388B90895A0
:10275000CB01809584238EB9089528980895299AED
:102760000895811104C0613031F0A098089561305E
:1027700021F0A1980895A09A0895A19A0895882318
:1027800011F0A19A0895A09A0895882311F0A198B4
:102790000895A0980895529A83B3836083BB779A73
:1027A0000E94730D0E94E60F0E944D120E94A61116
:1027B00041E06AE28CE10E94490F2FEF81EE94E044
:1027C000215080409040E1F700C000000C94B30D10
:1027D000CF93DF93CDB7DEB760970FB6F894DEBF27
:1027E0000FBECDBF412C512C00E010E0023011058E
:1027F000A9F10330110508F44FC00430110509F4A4
:102800007BC008F463C00530110581F780E00E94A9
:102810007E0D982E81E00E947E0D682F892D0E94EA
:102820006E0A29833A834B835C836D837E838F8317
:1028300098870E94C10C0E947C128130B9F682E315
:1028400090E0EFE9FFE03197F1F700C00000019759
:10285000C1F703E010E00230110559F62FEF89E6C9
:1028600098E1215080409040E1F700C0000080E0F6
:102870000E948B006FE780E00E9435120E942404C2
:10288000EFEFF9E628E1E150F0402040E1F700C029
:10289000000003E010E0AACF0115110549F0013056
:1028A000110509F0A3CF0E94A90402E010E09ECF19
:1028B0000E94CB130E94DB0280E00E948B006FE736
:1028C00080E00E94351201E010E090CF80E00E948D
:1028D0008B006FE780E00E9435120E94C1052C0139
:1028E0008FEF9AE6E3E081509040E040E1F700C0CE
:1028F000000004E010E07ACF0E94651160E080E003
:102900000E94C50F80E391E00E94B61014141504D4
:102910000CF055C0612C712C6091CA018091C901E5
:102920000E94940129873A874B875C876D877E8751
:102930008F87988B6091CA018091C9010E946E0AAD
:1029400029833A834B835C836D837E838F8398874F
:102950008090C901912C8091CA011F928F93A98008
:10296000BA80CB80DC80ED80FE800F8118852985C0
:102970003A854B855C856D857E858F8598890E941B
:1029800048060F900F908AE090E0EFE9FFE0319762
:10299000F1F700C000000197C1F761E080E00E94FC
:1029A000C50FC3010E94DB108CE291E00E94B610BB
:1029B000FFEF6F1A7F0A4614570409F0ADCF0E944B
:1029C000651105E010E012CFAA1BBB1B51E107C047
:1029D000AA1FBB1FA617B70710F0A61BB70B881FAF
:1029E000991F5A95A9F780959095BC01CD0108953E
:1029F00097FB072E16F4009407D077FD09D00E94AC
:102A0000E41407FC05D03EF4909581959F4F0895FE
:102A1000709561957F4F0895EE0FFF1F0590F4911B
:102A2000E02D0994A29FB001B39FC001A39F700D38
:102A3000811D1124911DB29F700D811D1124911DC6
:102A400008955058BB27AA270E9439150C941417D3
:102A50000E94061738F00E940D1720F039F49F3FAE
:102A600019F426F40C94DC160EF4E095E7FB0C94B4
:102A7000D616E92F0E94251758F3BA176207730775
:102A80008407950720F079F4A6F50C9447170EF407
:102A9000E0950B2EBA2FA02D0B01B90190010C016E
:102AA000CA01A0011124FF27591B99F0593F50F486
:102AB000503E68F11A16F040A22F232F342F4427DE
:102AC000585FF3CF469537952795A795F0405395D6
:102AD000C9F77EF41F16BA0B620B730B840BBAF0A6
:102AE0009150A1F0FF0FBB1F661F771F881FC2F711
:102AF0000EC0BA0F621F731F841F48F48795779525
:102B00006795B795F7959E3F08F0B0CF9395880FDE
:102B100008F09927EE0F9795879508950E94B216B1
:102B200008F481E008950E94A7150C9414170E94E0
:102B30000D1758F00E94061740F029F45F3F29F066
:102B40000C94D61651110C9448170C94DC160E9464
:102B5000251768F39923B1F3552391F3951B550B72
:102B6000BB27AA2762177307840738F09F5F5F4F60
:102B7000220F331F441FAA1FA9F335D00E2E3AF09F
:102B8000E0E832D091505040E695001CCAF72BD0B7
:102B9000FE2F29D0660F771F881FBB1F2617370708
:102BA0004807AB07B0E809F0BB0B802DBF01FF273A
:102BB00093585F4F3AF09E3F510578F00C94D6162B
:102BC0000C9448175F3FE4F3983ED4F386957795CD
:102BD0006795B795F7959F5FC9F7880F911D9695F3
:102BE000879597F90895E1E0660F771F881FBB1F4F
:102BF000621773078407BA0720F0621B730B840BFC
:102C0000BA0BEE1F88F7E095089529F416F00C949E
:102C1000D6160C9447170C94DC160E942D17A8F3B7
:102C20009638A0F707F80F92E8942BE33AEA48EBBE
:102C30005FE70E94DF170F920F920F924DB75EB7BA
:102C40000F920E949517E0EBF0E00E94DF164F9183
:102C50005F91EF91FF91E595EE1FFF1F49F0FE5741
:102C6000E0684427EE0F441FFA95E1F74195550BB4
:102C70000E945F170F9007FE0C94531708950E944F
:102C800046166894B1110C94481708950E942D17A8
:102C900088F09F5798F0B92F9927B751B0F0E1F01D
:102CA000660F771F881F991F1AF0BA95C9F714C0CD
:102CB000B13091F00E944717B1E008950C94471786
:102CC000672F782F8827B85F39F0B93FCCF3869506
:102CD00077956795B395D9F73EF490958095709563
:102CE00061957F4F8F4F9F4F0895E89409C097FBE0
:102CF0003EF490958095709561957F4F8F4F9F4FD3
:102D00009923A9F0F92F96E9BB279395F695879516
:102D100077956795B795F111F8CFFAF4BB0F11F4D9
:102D200060FF1BC06F5F7F4F8F4F9F4F16C0882380
:102D300011F096E911C0772321F09EE8872F762FB6
:102D400005C0662371F096E8862F70E060E02AF0F7
:102D50009A95660F771F881FDAF7880F96958795E3
:102D600097F90895990F0008550FAA0BE0E8FEEFB8
:102D700016161706E807F907C0F012161306E4073F
:102D8000F50798F0621B730B840B950B39F40A2638
:102D900061F0232B242B252B21F408950A2609F416
:102DA000A140A6958FEF811D811D089597F99F671A
:102DB00080E870E060E008959FEF80EC0895DF9375
:102DC000CF931F930F93FF92EF92DF927B018C01C1
:102DD000689406C0DA2EEF010E94DC17FE01E89429
:102DE000A5912591359145915591A6F3EF010E944A
:102DF0003915FE019701A801DA9469F7DF90EF9089
:102E0000FF900F911F91CF91DF91089500240A94B4
:102E10001616170618060906089500240A941216B5
:102E20001306140605060895092E0394000C11F4E8
:102E3000882352F0BB0F40F4BF2B11F460FF04C095
:102E40006F5F7F4F8F4F9F4F089557FD9058440FEE
:102E5000551F59F05F3F71F04795880F97FB991FF9
:102E600061F09F3F79F087950895121613061406B6
:102E7000551FF2CF4695F1DF08C016161706180643
:102E8000991FF1CF86957105610508940895E8941E
:102E9000BB2766277727CB0197F908950E94B216C2
:102EA00008F48FEF08959B01AC0160E070E080E8CA
:102EB0009FE30C9493150C94D6160C9436180E942C
:102EC0002D17D8F39923C9F3940F511DA3F39150F3
:102ED000504094F059F0882332F0660F771F881F16
:102EE00091505040C1F79E3F51052CF7880F911D1E
:102EF0009695879597F908955F3FACF0983E9CF0C2
:102F0000BB27869577956795B79508F4B16093953B
:102F1000C1F7BB0F58F711F460FFE8CF6F5F7F4F29
:102F20008F4F9F4FE3CF0C944817FA01DC01AA0F93
:102F3000BB1F9B01AC01BF5728F42227332744272E
:102F4000507820C0B75190F4AB2F002446953795A8
:102F50002795011CA395D2F3002071F0220F331F97
:102F6000441FB395DAF30ED00C942115613071052E
:102F7000A0E88A07B94630F49B01AC0166277727A1
:102F800088279078309621F02083318342835383C1
:102F900008950E94DC170C9414170E94061738F04D
:102FA0000E940D1720F0952311F00C94D6160C9466
:102FB000DC1611240C9448170E94251770F3959F76
:102FC000C1F3950F50E0551F629FF001729FBB2720
:102FD000F00DB11D639FAA27F00DB11DAA1F649FBC
:102FE0006627B00DA11D661F829F2227B00DA11D6F
:102FF000621F739FB00DA11D621F839FA00D611DF5
:10300000221F749F3327A00D611D231F849F600D15
:10301000211D822F762F6A2F11249F5750409AF03E
:10302000F1F088234AF0EE0FFF1FBB1F661F771FCA
:10303000881F91505040A9F79E3F510580F00C9495
:10304000D6160C9448175F3FE4F3983ED4F3869568
:1030500077956795B795F795E7959F5FC1F7FE2B35
:10306000880F911D9695879597F908959F3F31F0A8
:10307000915020F4879577956795B795880F911DA6
:103080009695879597F908958F929F92AF92BF92E8
:10309000CF92DF92EF92FF92CF93DF93EC016881A2
:1030A00079818A819B81611571058105910521F4E2
:1030B00064E279ED8BE597E02DE133EF41E050E0FC
:1030C0000E94A01849015A019B01AC01A7EAB1E492
:1030D0000E94BF186B017C01ACEEB4EFA501940116
:1030E0000E94CD18DC01CB018C0D9D1DAE1DBF1DB6
:1030F000B7FF03C00197A109B04888839983AA83C9
:10310000BB839F77DF91CF91FF90EF90DF90CF90BF
:10311000BF90AF909F908F9008950E94441808959B
:1031200080E091E00E9444180895A0E0B0E0809310
:10313000000190930101A0930201B093030108954F
:10314000052E97FB1EF400940E94B71857FD07D078
:103150000E94D21807FC03D04EF40C94B718509577
:103160004095309521953F4F4F4F5F4F0895909573
:103170008095709561957F4F8F4F9F4F08950E9466
:103180001215A59F900DB49F900DA49F800D911DC9
:1031900011240895B7FF0C94BF180E94BF18821B1A
:1031A000930B0895A1E21A2EAA1BBB1BFD010DC0B3
:1031B000AA1FBB1FEE1FFF1FA217B307E407F507E7
:1031C00020F0A21BB30BE40BF50B661F771F881FC3
:1031D000991F1A9469F760957095809590959B0159
:0C31E000AC01BD01CF010895F894FFCFB1
:1031EC0001000000446174613A004C0052007669A1
:1031FC0063746F727921004C3A2000523A20003CE3
:10320C003D2D20202B3D3E00202020202020200082
:10321C00547261696E696E673A2000616464724E23
:10322C0041434B0077725F4E41434B0072656164C2
:06323C004E41434B00006F
:00000001FF
