:100000000C9458000C9475000C9475000C947500B9
:100010000C9475000C9475000C9475000C942F06CC
:100020000C9475000C9475000C9475000C9475007C
:100030000C9475000C9475000C9475000C9475006C
:100040000C9475000C9475000C9475000C9475005C
:100050000C9475000C9475000C947500FC06FC065D
:10006000070707071307180718071A071A071A07B9
:100070002607EC06EC06F806480748075807580715
:1000800068077C077C076C076C076C077E073807DE
:1000900038073407BB07BB07CB07CB07DB07EF07E6
:1000A000EF07DF07DF07DF07F107AB07AB07A7079E
:1000B00011241FBECFEFD0E1DEBFCDBF11E0A0E025
:1000C000B1E0E6E4F5E102C005900D92A833B10776
:1000D000D9F721E0A8E3B1E001C01D92A735B2072E
:1000E000E1F70E9446080C94A10A0C940000082E27
:1000F000000C990B9C01220F331F820F931F6AE0A3
:1001000070E00E946808615881E00C94930688238F
:1001100061F02DEF6202C00111246AE070E00E94DC
:100120006808615880E00C949306862F0C94770041
:100130000E94DA06811101C0089580E00E947700D4
:100140006FE780E00E9493060E94C30580E091E083
:100150000E941405FFCFFB01389632912291338320
:100160002283E617F707C9F7918380830895FC017E
:100170009C01265F3F4F60E070E081919191680F94
:10018000791F2E173F07C9F7072E000C880B990B14
:100190000E94A80920E030E040EA50E40E94FE08F6
:1001A00008954F925F926F927F928F929F92AF923B
:1001B000BF92CF92DF92EF92FF920F931F93CF9354
:1001C000DF93C82FD0E0C61BD109EAE3F1E0068136
:1001D000178111870087E480F580F782E6828281AB
:1001E0009381958384832081318133832283D183DA
:1001F000C0832C0F3D1F820F931FE80EF91EBE0116
:100200000D2E000C880B990B0E94A8092DEC3CECDC
:100210004CE45EE30E94340A2B013C0160913801FA
:10022000709139016C0F7D1F072E000C880B990B04
:100230000E94A8092DEC3CEC4CE45DE30E94340ADA
:100240004B015C01B701600F711F072E000C880B7A
:10025000990B0E94A80920E030E040EA50E40E9497
:10026000FE082DEC3CEC4CEC5DE30E94340A6B0183
:100270007C0120E030E044E352E4C301B2010E947B
:100280009208A50194010E949208A70196010E947C
:1002900092080E947009062FA301920160E070E0AD
:1002A00084E392E40E949108A50194010E949108C0
:1002B000A70196010E9491080E947009162F802FB5
:1002C0000E9477002DEF1202C00111246AE070E055
:1002D0000E946808615880E00E949306D09339011B
:1002E000C0933801C801DF91CF911F910F91FF900A
:1002F000EF90DF90CF90BF90AF909F908F907F90C6
:100300006F905F904F9008950F931F93CF93DF935B
:10031000C2E3D0E080E00E94DC01182F81E00E945F
:10032000DC01682F812F0E94D1008C010E94C3053F
:1003300060E080E00E94230487E091E00E941405C1
:10034000802F90E00E9439058BE091E00E94140517
:1003500061E080E00E94230480E191E00E941405A6
:10036000812F90E00E9439058BE091E00E941405F6
:100370002FEF85EA9EE0215080409040E1F700C0D9
:100380000000219739F60E94C30560E080E00E94DA
:10039000230484E191E0DF91CF911F910F910C94A0
:1003A0001405EAE7F0E0808187688083ECE7F0E0FD
:1003B000808180668083089590917C00987F9093DF
:1003C0007C0090917C00892B80937C0080917A0046
:1003D000806480937A0080917A0086FDFCCF8091C2
:1003E000790008958DB18F7C8DB985E08A95F1F7FC
:1003F00000006D9A759885E08A95F1F700006C9A77
:10040000749885E08A95F1F7000008956C9885E06E
:100410008A95F1F700006D9885E08A95F1F7000064
:1004200008956D9885E08A95F1F7000065990DC0F3
:100430006C9885E08A95F1F700006C9A749885E0D5
:100440008A95F1F70000659BF3CF6C9808956C983E
:1004500085E08A95F1F700006C9A749885E08A959A
:10046000F1F7000008951F93CF93DF93D82FC62F85
:10047000142F0E9411020E94F20187E013C06D98B0
:1004800095E09A95F1F700006C9895E09A95F1F750
:1004900000006C9A749895E09A95F1F70000DD0FD2
:1004A000815029F0D6FDEBCF6D9A7598E9CF6D9A02
:1004B000759885E08A95F1F700006C9895E09A951B
:1004C000F1F700006C9A749885E08A95F1F70000C6
:1004D0006D9895E09A95F1F700006C98659B05C0C2
:1004E0008DE191E00E941405FFCF85E08A95F1F738
:1004F00000006C9A749895E09A95F1F7000088E0F6
:1005000014C06D9A759895E09A95F1F700006C9873
:1005100095E09A95F1F700006C9A749895E09A9599
:10052000F1F70000CC0F815021F0C7FFEACF6D98A2
:10053000EACF6D9885E08A95F1F700006C98659B8D
:1005400005C089E291E00E941405FFCF95E09A95DD
:10055000F1F700006C9A749885E08A95F1F7000035
:10056000112351F06C9895E09A95F1F700006D9881
:1005700085E08A95F1F70000DF91CF911F910895F2
:10058000FC016623D1F14FEF460F50E04F5F5F4F04
:10059000480F591F908128E016C06D9A759885E024
:1005A0008A95F1F700006C9885E08A95F1F70000D4
:1005B0006C9A749885E08A95F1F700009081990F04
:1005C0009083215021F097FFE8CF6D98E8CF3196C6
:1005D0006D9885E08A95F1F700006C98659918C0D0
:1005E00085E08A95F1F700006C9A749885E08A9509
:1005F000F1F70000E417F50769F66C9885E08A9535
:10060000F1F700006D9885E08A95F1F700000895F4
:1006100086E291E00E941405FFCF0F931F93CF93C2
:10062000DF93082FEB01142F0E94F20187E013C023
:100630006D9895E09A95F1F700006C9895E09A9581
:10064000F1F700006C9A749895E09A95F1F7000024
:10065000000F815029F006FDEBCF6D9A7598E9CF18
:100660006D9885E08A95F1F700006C9895E09A9571
:10067000F1F700006C9A749885E08A95F1F7000014
:100680006D9895E09A95F1F700006C98659B05C010
:100690008EE291E00E941405FFCF85E08A95F1F784
:1006A00000006C9A749895E09A95F1F700006D98A7
:1006B00085E08A95F1F700001123B1F12FEF210FAA
:1006C00030E02F5F3F4F2C0F3D1F98E08881880F4F
:1006D00088836C9885E08A95F1F70000659B03C0DC
:1006E00088818160888385E08A95F1F700006C9AA3
:1006F000749885E08A95F1F70000915039F76D9A6A
:10070000759895E09A95F1F700006C9885E08A95C8
:10071000F1F700006C9A749895E09A95F1F7000053
:1007200021962C173D0789F695E09A95F1F7000080
:100730006C9885E08A95F1F700006D9895E09A95A0
:10074000F1F70000DF91CF911F910F910895CF93A2
:10075000DF931F92CDB7DEB7498340E00E9433029A
:1007600061E0CE0101960E94C0020F90DF91CF910F
:1007700008951F93CF93DF931F92CDB7DEB7182F45
:1007800041E00E94330241E0BE016F5F7F4F812F45
:100790000E940D0389810F90DF91CF911F910895E1
:1007A00061E08CE10C94B90363E08CE10C94B90333
:1007B00065E08CE10C94B9038AE08A95F1F700C0FA
:1007C000449A8AE08A95F1F700C044988AE08A95B5
:1007D000F1F700C00895F89482B98AE08A95F1F79C
:1007E00000C0449A8AE08A95F1F700C044988AE0F4
:1007F0008A95F1F700C0789408958F98F89482B99B
:100800008AE08A95F1F700C0449A8AE08A95F1F768
:1008100000C044988AE08A95F1F700C07894089562
:100820008F9AF89482B98AE08A95F1F700C0449AC9
:100830008AE08A95F1F700C044988AE08A95F1F73A
:1008400000C078940895803110F4623008F0089563
:1008500090E4699F800D112480588F98F89482B994
:100860008AE08A95F1F700C0449A9AE09A95F1F7E8
:1008700000C044988AE08A95F1F700C0789495EC1E
:100880009A95F1F7000008953C9A879A8FEF81B905
:100890008FE19EE40197F1F700C000008F98F89473
:1008A00088E382B99AE09A95F1F700C0449AEAE0A9
:1008B000EA95F1F700C04498FAE0FA95F1F700C024
:1008C0007894EFE7F2E03197F1F700C000008F98DD
:1008D000F89482B9FAE0FA95F1F700C0449A9AE0E8
:1008E0009A95F1F700C04498EAE0EA95F1F700C064
:1008F0007894EFE7F2E03197F1F700C000008F98AD
:10090000F89482B9FAE0FA95F1F700C0449A9AE0B7
:100910009A95F1F700C04498EAE0EA95F1F700C033
:100920007894EFE7F2E03197F1F700C000008F987C
:10093000F89498E092B9FAE0FA95F1F700C0449A79
:100940009AE09A95F1F700C04498EAE0EA95F1F749
:1009500000C07894EFE7F2E03197F1F700C00000B3
:100960008F98F89491E092B9FAE0FA95F1F700C007
:10097000449A9AE09A95F1F700C04498EAE0EA9523
:10098000F1F700C07894EFE7FEE33197F1F700C08C
:1009900000008F98F89496E092B9FAE0FA95F1F792
:1009A00000C0449A9AE09A95F1F700C04498EAE0B2
:1009B000EA95F1F700C07894EFE7F2E03197F1F7AC
:1009C00000C000008F98F89482B9FAE0FA95F1F728
:1009D00000C0449A8AE08A95F1F700C044989AE0F2
:1009E0009A95F1F700C07894EFE8F1E03197F1F7CC
:1009F00000C000008F98F8948CE082B9FAE0FA9574
:100A0000F1F700C0449A8AE08A95F1F700C0449853
:100A10009AE09A95F1F700C07894EFE8F1E0319709
:100A2000F1F700C000000895DC019C91992301F1C9
:100A300020E08F9AF89492B98AE08A95F1F700C085
:100A4000449A9AE09A95F1F700C044988AE08A9512
:100A5000F1F700C078948FE792E00197F1F700C0BA
:100A600000002F5FFD01E20FF11D90819111E1CF98
:100A700008951F93CF93DF93FC01892B09F466C07F
:100A800045E011E02FE037E2E9012196CF01BE01F8
:100A90000E94540861111DC02E173F0708F052C074
:100AA0001123A9F111E0CF01BE010E945408FC01FD
:100AB000ADECBCEC0E9482089C01369527953695DA
:100AC0002795369527954150F9F6DF91CF911F91E3
:100AD00008952E173F07D8F0605D8F9AF89462B999
:100AE0009AE09A95F1F700C0449A8AE08A95F1F766
:100AF00000C044989AE09A95F1F700C078948FE787
:100B000092E00197F1F700C0000010E0D1CF605DE6
:100B10008F9AF89462B99AE09A95F1F700C0449AD6
:100B20008AE08A95F1F700C044989AE09A95F1F727
:100B300000C078948FE792E00197F1F700C00000C1
:100B400010E0B1CF112341F211E0B2CF8F9AF894A7
:100B500080E382B98AE08A95F1F700C0449A9AE06E
:100B60009A95F1F700C044988AE08A95F1F700C0A1
:100B700078948FE792E00197F1F700C00000DF91D1
:100B8000CF911F9108958F98F89481E082B98AE0FF
:100B90008A95F1F700C0449A9AE09A95F1F700C05F
:100BA00044988AE08A95F1F700C078948FE79EE335
:100BB0000197F1F700C0000008955D9A5C980895D0
:100BC000262F3FEF81110EC06303C001112464E69C
:100BD00070E00E9468086093B30012169CF45C9A5F
:100BE0005D9808956303C001112464E670E00E94DB
:100BF000680867BD12161CF45E9A5F9808955F9AA4
:100C00005E9808950C94DD05CF93DF93C3EBD0E09D
:100C100018820E94DD0517BC5F9A5E9884B18069D6
:100C200084B98AB1806F8AB9E0EBF0E08081886690
:100C3000808380818260808384B5886684BD84B52A
:100C4000826084BD8AE087BD8883DF91CF9108955B
:100C50005C9A5D982C9A5F9A5E982F9A08951F92DD
:100C60000F920FB60F9211242F933F934F935F93E0
:100C70006F937F938F939F93EF93FF9380914401A2
:100C8000409188005091890080FD30C08695E82F02
:100C9000F0E0EE0FFF1FE15BFE4F20813181240F5A
:100CA000351F309389002093880048B121E030E05F
:100CB000B90102C0660F771F8A95E2F7CB01842B3A
:100CC00088B9809144018F5F877080934401FF91C0
:100CD000EF919F918F917F916F915F914F913F9194
:100CE0002F910F900FBE0F901F9018958695E82FAB
:100CF000F0E0EE0FFF1FE95BFE4F20813181240FF2
:100D0000351F309389002093880048B121E030E0FE
:100D1000B90102C0660F771F8A95E2F7CB01809573
:100D2000842388B9CECF90E02AE0629FB0011124DD
:100D30006C53764F880F991FFC01E15BFE4F718366
:100D40006083FC01E95BFE4F24ED30E3261B370B8B
:100D5000318320830895AFE4B1E024EC39E01196AB
:100D60003C932E93E7E4F1E080E197E29183808366
:100D700013963C932E9312979383828315963C93FC
:100D80002E9314979583848317963C932E931697EE
:100D90009783868387B18F6087B9E1E8F0E010829E
:100DA000808182608083EFE6F0E0808182608083D2
:100DB000789408958CB18095881F8827881F08959E
:100DC000482F50E04E30510510F080E00895FA01B0
:100DD000E25DFF4F0C947C0823B130E08950A901FB
:100DE00002C0559547958A95E2F7CA01817008952A
:100DF00083B18695817008952CB130E0A90102C0BD
:100E0000559547958A95E2F7CA018170089522B3F6
:100E100030E08F5FA90102C0559547958A95E2F7AA
:100E2000CA01817008958CB186FB882780F90895E6
:100E300023B1E3CF26B130E08250A90102C055951D
:100E400047958A95E2F7CA018170089583B1817050
:100E50000895962F482F50E04E30510540F4FA0186
:100E6000E45CFF4F0C947C08611164C021980895E4
:100E700044B1895021E030E0B90102C0660F771F0C
:100E80008A95E2F79923F1F1CB01842B84B9089577
:100E90004DB121E030E0B90102C0660F771F8A959D
:100EA000E2F7992309F43FC0CB01842B8DB9089553
:100EB00043B38F5F21E030E0B90102C0660F771FB6
:100EC0008A95E2F7992329F1CB01842B83BB0895FE
:100ED0006623E9F06E9A089547B1825021E030E030
:100EE000B90102C0660F771F8A95E2F79923B1F026
:100EF000CB01842B87B9089544B1BCCF6623C1F0E0
:100F0000209A0895CB018095842384B908956E9822
:100F10000895CB018095842383BB0895CB018095F0
:100F2000842387B90895CB01809584238DB90895D2
:100F300020980895219A0895962F482F50E04E301A
:100F4000510540F4FA01E65BFF4F0C947C086111F7
:100F500064C02998089545B1895021E030E0B90175
:100F600002C0660F771F8A95E2F79923F1F1CB0152
:100F7000842B85B908954EB121E030E0B90102C05B
:100F8000660F771F8A95E2F7992309F43FC0CB01DA
:100F9000842B8EB9089544B38F5F21E030E0B9010E
:100FA00002C0660F771F8A95E2F7992329F1CB01DA
:100FB000842B84BB08956623E9F0769A089548B19E
:100FC000825021E030E0B90102C0660F771F8A9598
:100FD000E2F79923B1F0CB01842B88B9089545B18C
:100FE000BCCF6623C1F0289A0895CB018095842355
:100FF00085B9089576980895CB018095842384BBA4
:101000000895CB018095842388B90895CB018095FC
:1010100084238EB9089528980895299A08958111F6
:1010200004C0613031F0A0980895613021F0A1989A
:101030000895A09A0895A19A0895882311F0A19A7D
:101040000895A09A0895882311F0A1980895A09872
:101050000895529A83B3836083BB779A0E94D1012B
:101060000E9444040E94AB060E94040641E06AE22A
:101070008CE10E94A7032FEF81EE94E02150804085
:101080009040E1F700C000000C9411020E94290872
:1010900080E00E9477006FE780E00E9493060E9444
:1010A000840180E090E00895AA1BBB1B51E107C0BA
:1010B000AA1FBB1FA617B70710F0A61BB70B881FE8
:1010C000991F5A95A9F780959095BC01CD01089577
:1010D00097FB072E16F4009407D077FD09D00E94E5
:1010E000540807FC05D03EF4909581959F4F0895D4
:1010F000709561957F4F0895EE0FFF1F0590F49155
:10110000E02D0994A29FB001B39FC001A39F700D71
:10111000811D1124911DB29F700D811D1124911DFF
:1011200008955058BB27AA270E94A9080C94FA09D1
:101130000E94EC0938F00E94F30920F039F49F3F37
:1011400019F426F40C94E9090EF4E095E7FB0C94ED
:10115000E309E92F0E940B0A58F3BA1762077307D5
:101160008407950720F079F4A6F50C942D0A0EF467
:10117000E0950B2EBA2FA02D0B01B90190010C01A7
:10118000CA01A0011124FF27591B99F0593F50F4BF
:10119000503E68F11A16F040A22F232F342F442717
:1011A000585FF3CF469537952795A795F04053950F
:1011B000C9F77EF41F16BA0B620B730B840BBAF0DF
:1011C0009150A1F0FF0FBB1F661F771F881FC2F74A
:1011D0000EC0BA0F621F731F841F48F4879577955E
:1011E0006795B795F7959E3F08F0B0CF9395880F18
:1011F00008F09927EE0F9795879508950E94120998
:101200000C94FA090E94F30958F00E94EC0940F08E
:1012100029F45F3F29F00C94E30951110C942E0A34
:101220000C94E9090E940B0A68F39923B1F3552342
:1012300091F3951B550BBB27AA27621773078407E9
:1012400038F09F5F5F4F220F331F441FAA1FA9F37F
:1012500035D00E2E3AF0E0E832D091505040E6956D
:10126000001CCAF72BD0FE2F29D0660F771F881FCE
:10127000BB1F261737074807AB07B0E809F0BB0BC1
:10128000802DBF01FF2793585F4F3AF09E3F5105D5
:1012900078F00C94E3090C942E0A5F3FE4F3983E37
:1012A000D4F3869577956795B795F7959F5FC9F7BE
:1012B000880F911D9695879597F90895E1E0660F3F
:1012C000771F881FBB1F621773078407BA0720F0B8
:1012D000621B730B840BBA0BEE1F88F7E095089521
:1012E0000E9477096894B1110C942E0A08950E9407
:1012F000130A88F09F5798F0B92F9927B751B0F08B
:10130000E1F0660F771F881F991F1AF0BA95C9F789
:1013100014C0B13091F00E942D0AB1E008950C94F0
:101320002D0A672F782F8827B85F39F0B93FCCF3A3
:10133000869577956795B395D9F73EF49095809506
:10134000709561957F4F8F4F9F4F0895E89409C026
:1013500097FB3EF490958095709561957F4F8F4FE8
:101360009F4F9923A9F0F92F96E9BB279395F695FE
:10137000879577956795B795F111F8CFFAF4BB0F7C
:1013800011F460FF1BC06F5F7F4F8F4F9F4F16C0E0
:10139000882311F096E911C0772321F09EE8872F6A
:1013A000762F05C0662371F096E8862F70E060E026
:1013B0002AF09A95660F771F881FDAF7880F96959F
:1013C000879597F9089597F99F6780E870E060E046
:1013D00008959FEF80EC089500240A9416161706CE
:1013E00018060906089500240A9412161306140616
:1013F00005060895092E0394000C11F4882352F079
:10140000BB0F40F4BF2B11F460FF04C06F5F7F4F30
:101410008F4F9F4F089557FD9058440F551F59F017
:101420005F3F71F04795880F97FB991F61F09F3FD1
:1014300079F087950895121613061406551FF2CFFA
:101440004695F1DF08C0161617061806991FF1CF4A
:1014500086957105610508940895E894BB27662771
:101460007727CB0197F908950E94470A0C94FA094F
:101470000E94EC0938F00E94F30920F0952311F046
:101480000C94E3090C94E90911240C942E0A0E948F
:101490000B0A70F3959FC1F3950F50E0551F629FA3
:1014A000F001729FBB27F00DB11D639FAA27F00DBD
:1014B000B11DAA1F649F6627B00DA11D661F829FE4
:1014C0002227B00DA11D621F739FB00DA11D621FC9
:1014D000839FA00D611D221F749F3327A00D611DE6
:1014E000231F849F600D211D822F762F6A2F1124C8
:1014F0009F5750409AF0F1F088234AF0EE0FFF1FFB
:10150000BB1F661F771F881F91505040A9F79E3F51
:10151000510580F00C94E3090C942E0A5F3FE4F32C
:10152000983ED4F3869577956795B795F795E795A7
:101530009F5FC1F7FE2B880F911D9695879597F9B0
:061540000895F894FFCFAE
:10154600706175736564004C3A20002020202000ED
:10155600523A2000766963746F727921006164647F
:10156600724E41434B0077725F4E41434B007265AA
:0815760061644E41434B00008B
:00000001FF
