:100000000C946C000C9489000C9489000C94890069
:100010000C9489000C9489000C9489000C94E710CE
:100020000C9489000C9489000C9489000C9489002C
:100030000C9489000C9489000C9489000C9489001C
:100040000C9489000C9489000C9489000C9489000C
:100050000C9489000C9489000C948900B411B4119B
:10006000BF11BF11CB11D011D011D211D211D211A9
:10007000DE11A411A411B0110012001210121012FE
:100080002012341234122412241224123612F011C7
:10009000F011EC1173127312831283129312A712D0
:1000A000A712971297129712A912631263125F1286
:1000B00007634236B79BD8A71A39685618AEBAAB51
:1000C000558C1D3CB7CC5763BD6DEDFD753EF617E5
:1000D0007231BF000000803F11241FBECFEFD0E17E
:1000E000DEBFCDBF11E0A0E0B1E0EAE1F0E302C085
:1000F00005900D92A836B107D9F722E0A8E6B1E045
:1001000001C01D92A936B207E1F70E94FE120C94BD
:100110000B180C940000082E000C990B9C01220F68
:10012000331F820F931F6AE070E00E940F14615822
:1001300081E00C944B11882361F02DEF6202C00125
:1001400011246AE070E00E940F14615880E00C9462
:100150004B11862F0C948B00EF92FF920F931F93FD
:10016000CF93DF93009701F18C01E12CF12CC0E0DB
:10017000D0E00AC08FE99FE00197F1F700C00000CE
:1001800021960C171D0741F00E949211813091F7C2
:10019000EE24E394F12CEECFC701DF91CF911F91B4
:1001A0000F91FF90EF90089580E090E0F6CFFB0173
:1001B00038963291229133832283E617F707C9F7E5
:1001C000918380830895FC019C01265F3F4F60E08E
:1001D00070E081919191680F791F2E173F07C9F741
:1001E000072E000C880B990B0E948E1520E030E042
:1001F00040EA50E40E94AA1408950F931F93CF93EE
:10020000DF93682F70E080E090E00E948E1520E080
:1002100030E048EC52E40E94AA148B01D82FC92F79
:1002200020E030E0A9010E94A51487FD17C020E05E
:1002300030E040E85FE3B8018D2F9C2F0E946516E7
:10024000181624F400E010E0D0E8CFE3B8018D2FB9
:100250009C2FDF91CF911F910F91089500E010E046
:10026000D0E0C0E0B8018D2F9C2FDF91CF911F917E
:100270000F9108950F931F93CF93DF9320E030E009
:1002800048EC52E40E94E0168B01D82FC92F20E0E1
:1002900030E0A9010E94A51487FD1FC020E030E0D6
:1002A00048EC52E4B8018D2F9C2F0E946516181659
:1002B00044F0B8018D2F9C2FDF91CF911F910F91AA
:1002C000089500E010E0D8ECC2E4B8018D2F9C2F17
:1002D000DF91CF911F910F91089500E010E0D0E0E1
:1002E000C0E0B8018D2F9C2FDF91CF911F910F910E
:1002F00008954F925F926F927F928F929F92AF92EA
:10030000BF92CF92DF92EF92FF920F931F93CF9302
:10031000DF93CDB7DEB72C970FB6F894DEBF0FBED4
:10032000CDBF082F10E0061B1109E090D601F09018
:10033000D701F092D901E092D801C090D401D090B9
:10034000D501D092D701C092D6018091D20190916F
:10035000D3019093D5018093D4012091D0013091A5
:10036000D1013093D3012093D2011093D101009396
:10037000D001200F311F820F931FC80ED91EB80164
:10038000012E000C880B990B0E948E152DEC3CEC75
:100390004CE45EE30E94E0162B013C016091CE012B
:1003A0007091CF01600F711F072E000C880B990B05
:1003B0000E948E152DEC3CEC4CE45DE30E94E016AF
:1003C0004B015C01B6016E0D7F1D072E000C880BE2
:1003D000990B0E948E1520E030E040EA50E40E9424
:1003E000AA142FE632E143E85AE30E94E0166B01BB
:1003F0007C01A301920160E070E084E392E40E943A
:100400003814A50194010E943814A70196010E9496
:1004100038140E94561569877A878B879C8720E05D
:1004200030E044E352E4C301B2010E943914A50153
:1004300094010E943914A70196010E9439140E9468
:1004400056157727072E000C880B990B0E948E15E6
:1004500020E030E048EC52E40E94AA14E62EB72EC9
:100460006C0120E030E0A9010E94A51487FD6FC057
:1004700020E030E040E85FE36E2D7B2DC6010E9456
:100480006516181634F4E12CB12C80E8C82E9FE3D1
:10049000D92E69857A857727072E000C880B990B52
:1004A0000E948E1520E030E048EC52E40E94AA142D
:1004B000F62E872E982EA92E20E030E0A9010E946A
:1004C000A51487FD49C020E030E040E85FE36F2DD0
:1004D000782D892D9A2D0E9465161816A4F560E0D6
:1004E000812C80E89FE31093CF010093CE010E2D65
:1004F0001B2D960109831A832B833C83062F182D0D
:100500009C010D831E832F8338872E2D3A814B81CA
:100510005C817E818F8198852C960FB6F894DEBF22
:100520000FBECDBFDF91CF911F910F91FF90EF9044
:10053000DF90CF90BF90AF909F908F907F906F9003
:100540005F904F9008956F2D892D9A2DCCCFE12C7F
:10055000B12CC12CD12C9DCF60E0812C80E090E0AB
:10056000C2CFCF93DF930E94A717CCE7D1E0BC01A5
:10057000990F880B990B0E948E1520E03EEF4FEFEC
:1005800056E40E94AA14688379838A839B830E941D
:10059000A717BC01990F880B990B0E948E1520E0BC
:1005A0003EEF4FEF56E40E94AA146C837D838E8346
:1005B0009F830E94A717BC01990F880B990B0E947B
:1005C0008E1520E03EEF4FEF56E40E94AA146C8790
:1005D0007D878E879F870E94A717BC01990F880B84
:1005E000990B0E948E1520E03EEF4FEF56E40E94DB
:1005F000AA14688B798B8A8B9B8B0E94A717BC01EE
:10060000990F880B990B0E948E1520E03EEF4FEF5B
:1006100056E40E94AA146C8B7D8B8E8B9F8B0E945C
:10062000A717BC01990F880B990B0E948E1520E02B
:100630003EEF4FEF56E40E94AA146C8F7D8F8E8F91
:100640009F8F0E94A717BC01990F880B990B0E94DE
:100650008E1520E03EEF4FEF56E40E94AA1468A3E7
:1006600079A38AA39BA30E94A717BC01990F880BAB
:10067000990B0E948E1520E03EEF4FEF56E40E944A
:10068000AA146CA37DA38EA39FA30E94A717BC01ED
:10069000990F880B990B0E948E1520E03EEF4FEFCB
:1006A00056E40E94AA146CA77DA78EA79FA70E945C
:1006B000A717BC01990F880B990B0E948E1520E09B
:1006C0003EEF4FEF56E40E94AA1468AB79AB8AABB9
:1006D0009BAB0E94A717BC01990F880B990B0E9436
:1006E0008E1520E03EEF4FEF56E40E94AA146CAB4B
:1006F0007DAB8EAB9FAB0E94A717BC01990F880BF7
:10070000990B0E948E1520E03EEF4FEF56E40E94B9
:10071000AA1468AF79AF8AAF9BAF0E94A717BC013C
:10072000990F880B990B0E948E1520E03EEF4FEF3A
:1007300056E40E94AA146CAF7DAF8EAF9FAF0E94AB
:10074000A717BC01990F880B990B0E948E1520E00A
:100750003EEF4FEF56E40E94AA146093BC017093E1
:10076000BD018093BE019093BF010E94A717BC01F9
:10077000990F880B990B0E948E1520E03EEF4FEFEA
:1007800056E40E94AA146093C0017093C101809343
:10079000C2019093C3010E94A717BC01990F880B57
:1007A000990B0E948E1520E03EEF4FEF56E40E9419
:1007B000AA146093C4017093C5018093C6019093FD
:1007C000C7010E94A717BC01990F880B990B0E94C3
:1007D0008E1520E03EEF4FEF56E40E94AA1460937E
:1007E000C8017093C9018093CA019093CB01DF9136
:1007F000CF9108950F931F93CF93DF931092CD0164
:100800001092CC0180E00E94940CD82F81E00E94CD
:10081000940CC82FE091CC01F091CD01EE0FFF1F99
:10082000E552FE4FD083C1830E947B1060E080E0E0
:100830000E94DB0E84E091E00E94CC0F8091CC01FD
:100840009091CD010E94F10F8BE291E00E94CC0FBC
:1008500061E080E00E94DB0E8AE091E00E94CC0F14
:100860008D2F90E00E94F10F61E084E00E94DB0E8A
:100870008CE091E00E94CC0F8C2F90E00E94F10F51
:10088000C1E0D0E000E010E00E949211813079F0E8
:100890008FE99FE00197F1F700C00000CC3291E0B2
:1008A000D90799F021960E949211813089F78FE93A
:1008B0009FE00197F1F700C00000CC3291E0D9072A
:1008C000E1F001E010E02196EECF012BB1F4809130
:1008D000CC019091CD0101969093CD018093CC01F4
:1008E000C2970CF48FCF0E947B1060E080E00E94E2
:1008F000DB0E8EE091E00E94CC0F8091CC019091B4
:10090000CD01DF91CF911F910F9108952F923F92CA
:100910004F925F926F927F928F929F92AF92BF920F
:10092000CF92DF92EF92FF920F931F93CF93DF93BB
:10093000CDB7DEB72C970FB6F894DEBF0FBECDBF94
:10094000FE0131968AE0DF011D928A95E9F7C12CFC
:10095000D12C8AE0282E312CB3C00E94940C082F91
:1009600081E00E94940C10E0081B1109AF80B8844C
:10097000BA86A986ED80FE80F886EF828B819C8105
:100980009E838D8329813A813C832B831A8309833B
:10099000200F311F820F931F4C018E0C9F1CB8013A
:1009A000012E000C880B990B0E948E152DEC3CEC4F
:1009B0004CE45EE30E94E0162B013C01B601600F9F
:1009C000711F072E000C880B990B0E948E152DECC1
:1009D0003CEC4CE45DE30E94E0166B017C01B50148
:1009E000680D791D072E000C880B990B0E948E153F
:1009F00020E030E040EA50E40E94AA142FE632E101
:100A000043E85AE30E94E0164B015C0120E030E02D
:100A100044E352E4C301B2010E943914A7019601D4
:100A20000E943914A50194010E9439140E945615A0
:100A30006B877C87A301920160E070E084E392E41D
:100A40000E943814A70196010E943814A501940150
:100A50000E9438140E945615D62EC72E8B850E94F0
:100A60008B00BD2D2DEFB202C0011124B1010E94F7
:100A70000F14615880E00E944B110E947B1060E0CF
:100A800080E00E94DB0E87E191E00E94CC0F8B8515
:100A90009C850E94F10F8BE291E00E94CC0F61E0F7
:100AA00080E00E94DB0E8BE191E00E94CC0F8D2D47
:100AB0009C2D0E94F10F8BE291E00E94CC0F680107
:100AC0000E949211882309F448CF2C960FB6F8940F
:100AD000DEBF0FBECDBFDF91CF911F910F91FF9071
:100AE000EF90DF90CF90BF90AF909F908F907F90CE
:100AF0006F905F904F903F902F900895009769F00E
:100B000020E030E0EFE9FFE03197F1F700C00000AE
:100B10002F5F3F4F82179307A9F70895EF92FF9237
:100B20000F931F93CF93DF930E947B1060E080E0D0
:100B30000E94DB0E8FE191E00E94CC0FE12CF12CA2
:100B40000E948C0E8F3108F067C00E948C0E893C89
:100B500008F059C00E94880E893C08F04BC00E94E2
:100B6000880E8531D8F5F7FC42C061E080E00E9434
:100B7000DB0EC7010E94F10F88E291E00E94CC0FCA
:100B8000C1E0D0E000E010E00E949211813071F0ED
:100B90008FE99FE00197F1F700C00000C233D10553
:100BA00091F021960E949211813091F78FE99FE098
:100BB0000197F1F700C00000C233D10539F001E020
:100BC00010E02196EFCF012B09F4BACFC701DF91D6
:100BD000CF911F910F91FF90EF9008950E94880E82
:100BE000863408F69AE0E90EF11CF7FEBECFE12C40
:100BF000F12CBBCF0E94880E863E08F0B0CF8AE071
:100C0000E81AF108ACCF0E948C0E8A3F08F0A2CF00
:100C10009FEFE91AF90A9ECF0E948C0E863408F0E5
:100C200094CF81E0E81AF10890CF2F923F924F9233
:100C30005F926F927F928F929F92AF92BF92CF926C
:100C4000DF92EF92FF920F931F93CF93DF93CDB775
:100C5000DEB7CC54D1090FB6F894DEBF0FBECDBFBE
:100C600029833A834B835C836D837E838F8398874C
:100C7000A986BA86CB86DC86ED86FE860F87188B22
:100C8000140149845A846B847C84CD84DE84EF848F
:100C9000F88829813A814B815C81C301B2010E94AD
:100CA00038144B015C01A301920160E070E080E820
:100CB0009FE30E943814A30192010E94E0169B0159
:100CC000AC01C501B4010E94E016698B7A8B8B8B55
:100CD0009C8B0CE711E0D801D0968D919D910D90E1
:100CE000BC91A02D8DA79EA7AFA7B8AB2D813E814B
:100CF0004F815885C701B6010E9438142B013C0171
:100D0000A701960160E070E080E89FE30E9438143C
:100D1000A70196010E94E0169B01AC01C301B2013C
:100D20000E94E0162B013C01ACEBB1E08D919D914E
:100D30000D90BC91A02D89AB9AABABABBCAB8091B5
:100D4000780190917901A0917A01B0917B01898F0E
:100D50009A8FAB8FBC8F2DA53EA54FA558A9698949
:100D60007A898B899C890E94E0166B017C0129A9F4
:100D70003AA94BA95CA9C301B2010E94E0169B01EC
:100D8000AC01C701B6010E9439146B017C01298DA9
:100D90003A8D4B8D5C8D60E070E080E89FE30E94AF
:100DA0003814298D3A8D4B8D5C8D0E94E0169B0185
:100DB000AC01C701B6010E94E01669A77AA78BA70C
:100DC0009CA7B101330C880B990B0E948E156D8F77
:100DD0007E8F8F8F98A3A3966EAD7FADA397072EBE
:100DE000000C880B990B0E948E156D8B7E8B8F8B60
:100DF000988F9B01AC0169A57AA58BA59CA50E9443
:100E0000E01620E53DE847E15DE30E94E0169B0126
:100E1000AC01D80114966D917D918D919C9117979D
:100E20000E9438146DAB7EAB8FAB98AF20E53DE8E8
:100E300047E15DE369A57AA58BA59CA50E94E01614
:100E4000F80124853585468557850E94391469AF98
:100E50007AAF8BAF9CAFC0907401D0907501E090D9
:100E60007601F0907701D801D4962D913D914D9166
:100E70005C91D79769897A898B899C890E94E01651
:100E80004B015C0180EC282E81E0382EF10120819D
:100E9000318142815381C301B2010E94E0169B015E
:100EA000AC01C501B4010E9439144B015C01A701DA
:100EB000960160E070E080E89FE30E943814A7018B
:100EC00096010E94E0169B01AC01C501B4010E948D
:100ED000E0166B017C019B01AC016D8D7E8D8F8DC9
:100EE00098A10E94E01620E53DE847E15DE30E94FD
:100EF000E0169B01AC01D80150966D917D918D91CA
:100F00009C9153970E94381421966CAF7DAF8EAFA1
:100F10009FAF2197A70196016D897E898F89988D52
:100F20000E94E01620E53DE847E15DE30E94E016FF
:100F30009B01AC01F80164897589868997890E94B3
:100F4000381425966CAF7DAF8EAF9FAF259720E507
:100F50003DE847E15DE3C701B6010E94E016D80114
:100F60005C962D913D914D915C915F970E94391453
:100F700029966CAF7DAF8EAF9FAF2997D801D896D9
:100F80008D919D910D90BC91A02D89A39AA3ABA3A7
:100F9000BCA38091C4019091C501A091C601B091FC
:100FA000C7018DA39EA3AFA3B8A7809070019090B6
:100FB0007101A0907201B090730129A13AA14BA1D7
:100FC0005CA169897A898B899C890E94E0166B01F2
:100FD0007C012DA13EA14FA158A5C301B2010E94E1
:100FE000E0169B01AC01C701B6010E9439146B01E8
:100FF0007C01A501940160E070E080E89FE30E941D
:101000003814A50194010E94E0169B01AC01C701B0
:10101000B6010E94E0166B017C019B01AC016D8D55
:101020007E8D8F8D98A10E94E01620E53DE847E176
:101030005DE30E94E0169B01AC01D80190966D9192
:101040007D918D919C9193970E9438142D966CAF51
:101050007DAF8EAF9FAF2D97A70196016D897E89D9
:101060008F89988D0E94E01620E53DE847E15DE319
:101070000E94E0169B01AC01F80164A175A186A154
:1010800097A10E9438146D8B7E8B8F8B988F20E5F3
:101090003DE847E15DE3C701B6010E94E016D801D3
:1010A0009C962D913D914D915C919F970E94391492
:1010B0006B017C012D8D3E8D4F8D58A169A57AA5C0
:1010C0008BA59CA50E94E01620E53DE847E15DE385
:1010D0000E94E0169B01AC01F80160817181828160
:1010E00093810E943814D8016D937D938D939C93C6
:1010F00013978DA99EA9AFA9B8ADF80184839583F4
:10110000A683B78389AD9AADABADBCAD8487958717
:10111000A687B78721968CAD9DADAEADBFAD2197AB
:10112000808B918BA28BB38B25968CAD9DADAEAD94
:10113000BFAD2597848B958BA68BB78B29968CADED
:101140009DADAEADBFAD2997848F958FA68FB78F1C
:101150002D968CAD9DADAEADBFAD2D9780A391A367
:10116000A2A3B3A38D899E89AF89B88D84A395A3CB
:10117000A6A3B7A3C4A6D5A6E6A6F7A6298D3A8D41
:101180004B8D5C8D69897A898B899C890E94E016D8
:1011900020E53DE847E15DE30E94E0169B01AC01DC
:1011A0006DA57EA58FA598A90E943814F80160ABA3
:1011B00071AB82AB93ABA501940169897A898B8964
:1011C0009C890E94E01620E53DE847E15DE30E942E
:1011D000E0169B01AC0169A17AA18BA19CA10E94A0
:1011E0003814D801D4966D937D938D939C93D797A3
:1011F00020E53DE847E15DE369897A898B899C892F
:101200000E94E01629A13AA14BA15CA10E943914C9
:10121000F80164AF75AF86AF97AF298D3A8D4B8DCE
:101220005C8DC301B2010E94E01620E53DE847E174
:101230005DE30E94E0169B01AC0169A97AA98BA924
:101240009CA90E943814ACEBB1E06D937D938D9313
:101250009C931397A5019401C301B2010E94E0166B
:1012600020E53DE847E15DE30E94E0169B01AC010B
:101270006DA17EA18FA198A50E943814F101608311
:1012800071838283938320E53DE847E15DE3C301F9
:10129000B2010E94E0162DA13EA14FA158A50E94C7
:1012A00039146093C8017093C9018093CA01909367
:1012B000CB01C45BDF4F0FB6F894DEBF0FBECDBFCE
:1012C000DF91CF911F910F91FF90EF90DF90CF9022
:1012D000BF90AF909F908F907F906F905F904F9056
:1012E0003F902F9008954F925F926F927F928F92CE
:1012F0009F92AF92BF92CF92DF92EF92FF920F93A5
:101300001F93CF93DF93CDB7DEB760970FB6F894F6
:10131000DEBF0FBECDBF162F682F70E080E090E0DB
:101320000E948E154B015C01612F70E080E090E01F
:101330000E948E156B017C010CE711E0F8012089F9
:10134000318942895389C501B4010E94E0162B01FD
:101350003C01F8012489358946895789C701B601BE
:101360000E94E0169B01AC01C301B2010E94391436
:10137000F801248D358D468D578D0E94381469876C
:101380007A878B879C87F80120A131A142A153A1C4
:10139000C501B4010E94E0162B013C01F80124A113
:1013A00035A146A157A1C701B6010E94E0169B01D5
:1013B000AC01C301B2010E943914F80124A535A57E
:1013C00046A557A50E9438146D877E878F87988B16
:1013D000F8012081318142815381C501B4010E940D
:1013E000E0164B015C01F80124813581468157816B
:1013F000C701B6010E94E0169B01AC01C501B40112
:101400000E943914F80124853585468557850E9448
:10141000381490580E94241520E030E040E85FE343
:101420000E9439149B01AC0160E070E080E89FE30A
:101430000E94AA142B013C016093780170937901FA
:1014400080937A0190937B0169857A858B859C8551
:1014500090580E94241520E030E040E85FE30E94AD
:1014600039149B01AC0160E070E080E89FE30E94CA
:10147000AA144B015C016093740170937501809311
:101480007601909377016D857E858F859889905838
:101490000E94241520E030E040E85FE30E94391408
:1014A0009B01AC0160E070E080E89FE30E94AA1419
:1014B0006B017C01609370017093710180937201E4
:1014C000909373012091BC013091BD014091BE0108
:1014D0005091BF01C301B2010E94E01669877A876B
:1014E0008B879C872091C0013091C1014091C2013E
:1014F0005091C301C501B4010E94E0169B01AC01EB
:1015000069857A858B859C850E94391469877A87DD
:101510008B879C872091C4013091C5014091C60101
:101520005091C701C701B6010E94E0169B01AC01B2
:1015300069857A858B859C850E9439142091C80124
:101540003091C9014091CA015091CB010E943814D9
:1015500069877A878B879C87F80120A931A942A9DE
:1015600053A9C301B2010E94E0162B013C01F8010E
:1015700024A935A946A957A9C501B4010E94E016BE
:101580009B01AC01C301B2010E9439144B015C0103
:10159000F80120AD31AD42AD53ADC701B6010E9497
:1015A000E0169B01AC01C501B4010E943914F80199
:1015B00024AD35AD46AD57AD0E94381490580E9409
:1015C000241520E030E040E85FE30E9439149B01DD
:1015D000AC0160E070E080E89FE30E94AA14162F3F
:1015E000A72EB82E092F862F9A2DAB2DB02F8093C2
:1015F0006C0190936D01A0936E01B0936F016985AA
:101600007A858B859C8590580E94241520E030E0D7
:1016100040E85FE30E9439149B01AC0160E070E098
:1016200080E89FE30E94AA146B017C01C0926801CC
:10163000D0926901E0926A01F0926B01C12EDA2C1E
:10164000EB2CF02EC982DA82EB82FC826B017C01EA
:10165000CD82DE82EF82F886212F3A814B815C8138
:101660007E818F81988560960FB6F894DEBF0FBE9D
:10167000CDBFDF91CF911F910F91FF90EF90DF9041
:10168000CF90BF90AF909F908F907F906F905F9022
:101690004F9008958F929F92AF92BF92CF92DF9218
:1016A000EF92FF920F931F93CF93DF93CDB7DEB7E7
:1016B00028970FB6F894DEBF0FBECDBF29833A83BB
:1016C0004B835C836D837E838F839887C980DA80A8
:1016D000EB80FC808D809E80AF80B88460E080E0ED
:1016E0000E94DB0E80E391E00E94CC0F20E030E00E
:1016F00048EC52E4C701B6010E94E0166B017C0180
:1017000020E030E0A9010E94A51487FDADC020E0D3
:1017100030E048EC52E4C701B6010E946516181685
:101720000CF494C0C701B6010E945D15CB010E9464
:10173000F10F8AE291E00E94CC0F61E080E00E940C
:10174000DB0E86E391E00E94CC0F20E030E048EC15
:1017500052E4C501B4010E94E016B62FA72FF82F5E
:10176000E92F8D015F0120E030E0A9010E94A5145E
:1017700087FDAEC020E030E048EC52E4612F702FCE
:101780008B2D9A2D0E94651618160CF468C0612FD7
:10179000702F8B2D9A2D0E945D15CB010E94F10FA9
:1017A0008AE291E00E94CC0F20E030E0A901C7015D
:1017B000B6010E94A51487FD89C020E030E048EC06
:1017C00052E4C701B6010E94651618160CF041C01C
:1017D00084E60E948B0020E030E0A901612F702F89
:1017E0008B2D9A2D0E94A51487FD6EC020E030E05D
:1017F00048EC52E4612F702F8B2D9A2D0E946516B4
:10180000181684F1612F702F8B2D9A2D0E9456157A
:101810002DEF6202C00111246AE070E00E940F14F3
:10182000615880E028960FB6F894DEBF0FBECDBF9A
:10183000DF91CF911F910F91FF90EF90DF90CF90AC
:10184000BF90AF909F908F900C944B1184E690E0E6
:101850006ECFC701B6010E945615862FBACF84E617
:1018600090E09CCF61E6DDCF80E090E00E94F10F38
:101870008AE291E00E94CC0F61E080E00E94DB0EE2
:1018800086E391E00E94CC0F20E030E048EC52E487
:10189000C501B4010E94E016B62FA72FF82FE92F3B
:1018A0008D015F0120E030E0A9010E94A51487FFAF
:1018B00061CF80E090E00E94F10F8AE291E00E9407
:1018C000CC0F80E00E948B006FE7ABCF80E081CF30
:1018D00080E090E00E94F10F8AE291E00E94CC0F3C
:1018E00020E030E0A901C701B6010E94A51487FDE0
:1018F000E8CF20E030E048EC52E4C701B6010E9496
:10190000651618160CF0A5CF84E60E948B006FE7D1
:1019100088CFEAE7F0E0808187688083ECE7F0E039
:10192000808180668083089590917C00987F909359
:101930007C0090917C00892B80937C0080917A00C0
:10194000806480937A0080917A0086FDFCCF80913C
:10195000790008958DB18F7C8DB985E08A95F1F776
:1019600000006D9A759885E08A95F1F700006C9AF1
:10197000749885E08A95F1F7000008956C9885E0E9
:101980008A95F1F700006D9885E08A95F1F70000DF
:1019900008956D9885E08A95F1F7000065990DC06E
:1019A0006C9885E08A95F1F700006C9A749885E050
:1019B0008A95F1F70000659BF3CF6C9808956C98B9
:1019C00085E08A95F1F700006C9A749885E08A9515
:1019D000F1F7000008951F93CF93DF93D82FC62F00
:1019E000142F0E94C90C0E94AA0C87E013C06D98A6
:1019F00095E09A95F1F700006C9895E09A95F1F7CB
:101A000000006C9A749895E09A95F1F70000DD0F4C
:101A1000815029F0D6FDEBCF6D9A7598E9CF6D9A7C
:101A2000759885E08A95F1F700006C9895E09A9595
:101A3000F1F700006C9A749885E08A95F1F7000040
:101A40006D9895E09A95F1F700006C98659B05C03C
:101A50008DE491E00E94CC0FFFCF85E08A95F1F7ED
:101A600000006C9A749895E09A95F1F7000088E070
:101A700014C06D9A759895E09A95F1F700006C98EE
:101A800095E09A95F1F700006C9A749895E09A9514
:101A9000F1F70000CC0F815021F0C7FFEACF6D981D
:101AA000EACF6D9885E08A95F1F700006C98659B08
:101AB00005C089E591E00E94CC0FFFCF95E09A9593
:101AC000F1F700006C9A749885E08A95F1F70000B0
:101AD000112351F06C9895E09A95F1F700006D98FC
:101AE00085E08A95F1F70000DF91CF911F9108956D
:101AF000FC016623D1F14FEF460F50E04F5F5F4F7F
:101B0000480F591F908128E016C06D9A759885E09E
:101B10008A95F1F700006C9885E08A95F1F700004E
:101B20006C9A749885E08A95F1F700009081990F7E
:101B30009083215021F097FFE8CF6D98E8CF319640
:101B40006D9885E08A95F1F700006C98659918C04A
:101B500085E08A95F1F700006C9A749885E08A9583
:101B6000F1F70000E417F50769F66C9885E08A95AF
:101B7000F1F700006D9885E08A95F1F7000008956F
:101B800086E591E00E94CC0FFFCF0F931F93CF9378
:101B9000DF93082FEB01142F0E94AA0C87E013C0DB
:101BA0006D9895E09A95F1F700006C9895E09A95FC
:101BB000F1F700006C9A749895E09A95F1F700009F
:101BC000000F815029F006FDEBCF6D9A7598E9CF93
:101BD0006D9885E08A95F1F700006C9895E09A95EC
:101BE000F1F700006C9A749885E08A95F1F700008F
:101BF0006D9895E09A95F1F700006C98659B05C08B
:101C00008EE591E00E94CC0FFFCF85E08A95F1F739
:101C100000006C9A749895E09A95F1F700006D9821
:101C200085E08A95F1F700001123B1F12FEF210F24
:101C300030E02F5F3F4F2C0F3D1F98E08881880FC9
:101C400088836C9885E08A95F1F70000659B03C056
:101C500088818160888385E08A95F1F700006C9A1D
:101C6000749885E08A95F1F70000915039F76D9AE4
:101C7000759895E09A95F1F700006C9885E08A9543
:101C8000F1F700006C9A749895E09A95F1F70000CE
:101C900021962C173D0789F695E09A95F1F70000FB
:101CA0006C9885E08A95F1F700006D9895E09A951B
:101CB000F1F70000DF91CF911F910F910895CF931D
:101CC000DF931F92CDB7DEB7498340E00E94EB0C53
:101CD00061E0CE0101960E94780D0F90DF91CF91C7
:101CE00008951F93CF93DF931F92CDB7DEB7182FC0
:101CF00041E00E94EB0C41E0BE016F5F7F4F812FFE
:101D00000E94C50D89810F90DF91CF911F91089599
:101D100061E08CE10C94710E63E08CE10C94710E27
:101D200065E08CE10C94710E8AE08A95F1F700C0B1
:101D3000449A8AE08A95F1F700C044988AE08A952F
:101D4000F1F700C00895F89482B98AE08A95F1F716
:101D500000C0449A8AE08A95F1F700C044988AE06E
:101D60008A95F1F700C0789408958F98F89482B915
:101D70008AE08A95F1F700C0449A8AE08A95F1F7E3
:101D800000C044988AE08A95F1F700C078940895DD
:101D90008F9AF89482B98AE08A95F1F700C0449A44
:101DA0008AE08A95F1F700C044988AE08A95F1F7B5
:101DB00000C078940895803110F4623008F00895DE
:101DC00090E4699F800D112480588F98F89482B90F
:101DD0008AE08A95F1F700C0449A9AE09A95F1F763
:101DE00000C044988AE08A95F1F700C0789495EC99
:101DF0009A95F1F7000008953C9A879A8FEF81B980
:101E00008FE19EE40197F1F700C000008F98F894ED
:101E100088E382B99AE09A95F1F700C0449AEAE023
:101E2000EA95F1F700C04498FAE0FA95F1F700C09E
:101E30007894EFE7F2E03197F1F700C000008F9857
:101E4000F89482B9FAE0FA95F1F700C0449A9AE062
:101E50009A95F1F700C04498EAE0EA95F1F700C0DE
:101E60007894EFE7F2E03197F1F700C000008F9827
:101E7000F89482B9FAE0FA95F1F700C0449A9AE032
:101E80009A95F1F700C04498EAE0EA95F1F700C0AE
:101E90007894EFE7F2E03197F1F700C000008F98F7
:101EA000F89498E092B9FAE0FA95F1F700C0449AF4
:101EB0009AE09A95F1F700C04498EAE0EA95F1F7C4
:101EC00000C07894EFE7F2E03197F1F700C000002E
:101ED0008F98F89491E092B9FAE0FA95F1F700C082
:101EE000449A9AE09A95F1F700C04498EAE0EA959E
:101EF000F1F700C07894EFE7FEE33197F1F700C007
:101F000000008F98F89496E092B9FAE0FA95F1F70C
:101F100000C0449A9AE09A95F1F700C04498EAE02C
:101F2000EA95F1F700C07894EFE7F2E03197F1F726
:101F300000C000008F98F89482B9FAE0FA95F1F7A2
:101F400000C0449A8AE08A95F1F700C044989AE06C
:101F50009A95F1F700C07894EFE8F1E03197F1F746
:101F600000C000008F98F8948CE082B9FAE0FA95EE
:101F7000F1F700C0449A8AE08A95F1F700C04498CE
:101F80009AE09A95F1F700C07894EFE8F1E0319784
:101F9000F1F700C000000895DC019C91992301F144
:101FA00020E08F9AF89492B98AE08A95F1F700C000
:101FB000449A9AE09A95F1F700C044988AE08A958D
:101FC000F1F700C078948FE792E00197F1F700C035
:101FD00000002F5FFD01E20FF11D90819111E1CF13
:101FE00008951F93CF93DF93FC01892B09F466C0FA
:101FF00045E011E02FE037E2E9012196CF01BE0173
:102000000E94FB1361111DC02E173F0708F052C03C
:102010001123A9F111E0CF01BE010E94FB13FC01C5
:10202000ADECBCEC0E9429149C01369527953695A1
:102030002795369527954150F9F6DF91CF911F915D
:1020400008952E173F07D8F0605D8F9AF89462B913
:102050009AE09A95F1F700C0449A8AE08A95F1F7E0
:1020600000C044989AE09A95F1F700C078948FE701
:1020700092E00197F1F700C0000010E0D1CF605D61
:102080008F9AF89462B99AE09A95F1F700C0449A51
:102090008AE08A95F1F700C044989AE09A95F1F7A2
:1020A00000C078948FE792E00197F1F700C000003C
:1020B00010E0B1CF112341F211E0B2CF8F9AF89422
:1020C00080E382B98AE08A95F1F700C0449A9AE0E9
:1020D0009A95F1F700C044988AE08A95F1F700C01C
:1020E00078948FE792E00197F1F700C00000DF914C
:1020F000CF911F9108958F98F89481E082B98AE07A
:102100008A95F1F700C0449A9AE09A95F1F700C0D9
:1021100044988AE08A95F1F700C078948FE79EE3AF
:102120000197F1F700C0000008955D9A5C9808954A
:10213000262F3FEF81110EC06303C001112464E616
:1021400070E00E940F146093B30012169CF45C9A26
:102150005D9808956303C001112464E670E00E9455
:102160000F1467BD12161CF45E9A5F9808955F9A6B
:102170005E9808950C949510CF93DF93C3EBD0E055
:1021800018820E94951017BC5F9A5E9884B180698E
:1021900084B98AB1806F8AB9E0EBF0E0808188660B
:1021A000808380818260808384B5886684BD84B5A5
:1021B000826084BD8AE087BD8883DF91CF910895D6
:1021C0005C9A5D982C9A5F9A5E982F9A08951F9258
:1021D0000F920FB60F9211242F933F934F935F935B
:1021E0006F937F938F939F93EF93FF938091DA0187
:1021F000409188005091890080FD30C08695E82F7D
:10220000F0E0EE0FFF1FEF59FD4F20813181240FC9
:10221000351F309389002093880048B121E030E0D9
:10222000B90102C0660F771F8A95E2F7CB01842BB4
:1022300088B98091DA018F5F87708093DA01FF910E
:10224000EF919F918F917F916F915F914F913F910E
:102250002F910F900FBE0F901F9018958695E82F25
:10226000F0E0EE0FFF1FE75AFD4F20813181240F70
:10227000351F309389002093880048B121E030E079
:10228000B90102C0660F771F8A95E2F7CB018095EE
:10229000842388B9CECF90E02AE0629FB001112458
:1022A0006C53764F880F991FFC01EF59FD4F7183D6
:1022B0006083FC01E75AFD4F24ED30E3261B370B0A
:1022C000318320830895A1E6B2E024EC39E0119631
:1022D0003C932E93E9E5F2E080E197E291838083DD
:1022E00013963C932E9312979383828315963C9377
:1022F0002E9314979583848317963C932E93169769
:102300009783868387B18F6087B9E1E8F0E0108218
:10231000808182608083EFE6F0E08081826080834C
:10232000789408958CB18095881F8827881F089518
:10233000482F50E04E30510510F080E00895FA012A
:10234000E25DFF4F0C94231423B130E08950A901C2
:1023500002C0559547958A95E2F7CA0181700895A4
:1023600083B18695817008952CB130E0A90102C037
:10237000559547958A95E2F7CA018170089522B371
:1023800030E08F5FA90102C0559547958A95E2F725
:10239000CA01817008958CB186FB882780F9089561
:1023A00023B1E3CF26B130E08250A90102C0559598
:1023B00047958A95E2F7CA018170089583B18170CB
:1023C0000895962F482F50E04E30510540F4FA0101
:1023D000E45CFF4F0C942314611164C021980895AC
:1023E00044B1895021E030E0B90102C0660F771F87
:1023F0008A95E2F79923F1F1CB01842B84B90895F2
:102400004DB121E030E0B90102C0660F771F8A9517
:10241000E2F7992309F43FC0CB01842B8DB90895CD
:1024200043B38F5F21E030E0B90102C0660F771F30
:102430008A95E2F7992329F1CB01842B83BB089578
:102440006623E9F06E9A089547B1825021E030E0AA
:10245000B90102C0660F771F8A95E2F79923B1F0A0
:10246000CB01842B87B9089544B1BCCF6623C1F05A
:10247000209A0895CB018095842384B908956E989D
:102480000895CB018095842383BB0895CB0180956B
:10249000842387B90895CB01809584238DB908954D
:1024A00020980895219A0895962F482F50E04E3095
:1024B000510540F4FA01E65BFF4F0C9423146111BF
:1024C00064C02998089545B1895021E030E0B901F0
:1024D00002C0660F771F8A95E2F79923F1F1CB01CD
:1024E000842B85B908954EB121E030E0B90102C0D6
:1024F000660F771F8A95E2F7992309F43FC0CB0155
:10250000842B8EB9089544B38F5F21E030E0B90188
:1025100002C0660F771F8A95E2F7992329F1CB0154
:10252000842B84BB08956623E9F0769A089548B118
:10253000825021E030E0B90102C0660F771F8A9512
:10254000E2F79923B1F0CB01842B88B9089545B106
:10255000BCCF6623C1F0289A0895CB0180958423CF
:1025600085B9089576980895CB018095842384BB1E
:102570000895CB018095842388B90895CB01809577
:1025800084238EB9089528980895299A0895811171
:1025900004C0613031F0A0980895613021F0A19815
:1025A0000895A09A0895A19A0895882311F0A19AF8
:1025B0000895A09A0895882311F0A1980895A098ED
:1025C0000895529A83B3836083BB779A0E94890CE3
:1025D0000E94FC0E0E9463110E94BC1041E06AE25E
:1025E0008CE10E945F0E2FEF81EE94E0215080403D
:1025F0009040E1F700C000000C94C90CCF93DF932A
:10260000CDB7DEB760970FB6F894DEBF0FBECDBF73
:10261000412C512C00E010E002301105C1F10330D3
:10262000110508F449C00430110509F47EC008F40E
:1026300066C00530110581F787E491E00E94CC0F58
:1026400081E00E94940C982E80E00E94940C692DE9
:102650000E94730929833A834B835C836D837E8355
:102660008F8398870E944A0B0E9492118130A1F6B5
:1026700082E390E0EFE9FFE03197F1F700C000005E
:102680000197C1F703E010E00230110541F680E048
:102690000E948B006FE780E00E944B110E94FA03BA
:1026A000EFEFFAE623E0E150F0402040E1F700C010
:1026B000000003E010E0B0CF0115110591F00130EA
:1026C000110509F0A9CF0E9486042FEF82E597E05B
:1026D000215080409040E1F700C0000002E010E08F
:1026E0009BCF0E94E1120E94B10280E00E948B0009
:1026F0006FE780E00E944B1101E010E08DCF80E099
:102700000E948B006FE780E00E944B110E948E05B3
:102710002C018FEF9AE6E3E081509040E040E1F732
:1027200000C0000004E010E077CF0E947B1060E062
:1027300080E00E94DB0E8CE391E00E94CC0F141429
:1027400015040CF055C0612C712C6091DC01809156
:10275000DB010E94790129873A874B875C876D8767
:102760007E878F87988B6091DC018091DB010E94CE
:10277000730929833A834B835C836D837E838F83C4
:1027800098878090DB01912C8091DC011F928F93C0
:10279000A980BA80CB80DC80ED80FE800F81188517
:1027A00029853A854B855C856D857E858F859889E1
:1027B0000E9415060F900F908AE090E0EFE9FFE08D
:1027C0003197F1F700C000000197C1F761E080E0A8
:1027D0000E94DB0EC3010E94F10F8CE291E00E9487
:1027E000CC0FFFEF6F1A7F0A6414750409F0ADCFA8
:1027F00005E010E011CFAA1BBB1B51E107C0AA1FC7
:10280000BB1FA617B70710F0A61BB70B881F991F91
:102810005A95A9F780959095BC01CD01089597FB35
:10282000072E16F4009407D077FD09D00E94FB1301
:1028300007FC05D03EF4909581959F4F08957095C3
:1028400061957F4F0895EE0FFF1F0590F491E02DE5
:102850000994A29FB001B39FC001A39F700D811D79
:102860001124911DB29F700D811D1124911D089599
:102870005058BB27AA270E9450140C942B160E9474
:102880001D1638F00E94241620F039F49F3F19F4E9
:1028900026F40C94F3150EF4E095E7FB0C94ED157B
:1028A000E92F0E943C1658F3BA1762077307840792
:1028B000950720F079F4A6F50C945E160EF4E095D9
:1028C0000B2EBA2FA02D0B01B90190010C01CA01EA
:1028D000A0011124FF27591B99F0593F50F4503E95
:1028E00068F11A16F040A22F232F342F4427585F87
:1028F000F3CF469537952795A795F0405395C9F79F
:102900007EF41F16BA0B620B730B840BBAF0915056
:10291000A1F0FF0FBB1F661F771F881FC2F70EC0F5
:10292000BA0F621F731F841F48F4879577956795C8
:10293000B795F7959E3F08F0B0CF9395880F08F0B4
:102940009927EE0F9795879508950E94C91508F469
:1029500081E008950E94BE140C942B160E94241648
:1029600058F00E941D1640F029F45F3F29F00C94A6
:10297000ED1551110C945F160C94F3150E943C1642
:1029800068F39923B1F3552391F3951B550BBB279E
:10299000AA2762177307840738F09F5F5F4F220FE3
:1029A000331F441FAA1FA9F335D00E2E3AF0E0E8DA
:1029B00032D091505040E695001CCAF72BD0FE2F24
:1029C00029D0660F771F881FBB1F261737074807B8
:1029D000AB07B0E809F0BB0B802DBF01FF27935870
:1029E0005F4F3AF09E3F510578F00C94ED150C9432
:1029F0005F165F3FE4F3983ED4F38695779567952D
:102A0000B795F7959F5FC9F7880F911D96958795A4
:102A100097F90895E1E0660F771F881FBB1F6217C3
:102A200073078407BA0720F0621B730B840BBA0B81
:102A3000EE1F88F7E095089529F416F00C94ED1533
:102A40000C945E160C94F3150E944416A8F3963865
:102A5000A0F707F80F92E8942BE33AEA48EB5FE718
:102A60000E94F6160F920F920F924DB75EB70F921B
:102A70000E94AC16E0EBF0E00E94F6154F915F91DA
:102A8000EF91FF91E595EE1FFF1F49F0FE57E068BB
:102A90004427EE0F441FFA95E1F74195550B0E942C
:102AA00076160F9007FE0C946A1608950E945D1525
:102AB0006894B1110C945F1608950E94441688F032
:102AC0009F5798F0B92F9927B751B0F0E1F0660FF2
:102AD000771F881F991F1AF0BA95C9F714C0B13033
:102AE00091F00E945E16B1E008950C945E16672F77
:102AF000782F8827B85F39F0B93FCCF38695779562
:102B00006795B395D9F73EF490958095709561954A
:102B10007F4F8F4F9F4F0895E89409C097FB3EF475
:102B200090958095709561957F4F8F4F9F4F99231A
:102B3000A9F0F92F96E9BB279395F6958795779598
:102B40006795B795F111F8CFFAF4BB0F11F460FF58
:102B50001BC06F5F7F4F8F4F9F4F16C0882311F0B0
:102B600096E911C0772321F09EE8872F762F05C0C4
:102B7000662371F096E8862F70E060E02AF09A955F
:102B8000660F771F881FDAF7880F9695879597F954
:102B90000895990F0008550FAA0BE0E8FEEF1616EE
:102BA0001706E807F907C0F012161306E407F50741
:102BB00098F0621B730B840B950B39F40A2661F0B5
:102BC000232B242B252B21F408950A2609F4A14058
:102BD000A6958FEF811D811D089597F99F6780E865
:102BE00070E060E008959FEF80EC0895DF93CF934D
:102BF0001F930F93FF92EF92DF927B018C016894F9
:102C000006C0DA2EEF010E94F316FE01E894A591AA
:102C10002591359145915591A6F3EF010E945014ED
:102C2000FE019701A801DA9469F7DF90EF90FF9019
:102C30000F911F91CF91DF91089500240A941616E9
:102C4000170618060906089500240A94121613069A
:102C5000140605060895092E0394000C11F4882328
:102C600052F0BB0F40F4BF2B11F460FF04C06F5F44
:102C70007F4F8F4F9F4F089557FD9058440F551F1A
:102C800059F05F3F71F04795880F97FB991F61F0EE
:102C90009F3F79F087950895121613061406551F65
:102CA000F2CF4695F1DF08C0161617061806991FD1
:102CB000F1CF86957105610508940895E894BB27C6
:102CC00066277727CB0197F908950E94C91508F464
:102CD0008FEF08959B01AC0160E070E080E89FE316
:102CE0000C94AA140C94ED150C944D170E944416E4
:102CF000D8F39923C9F3940F511DA3F39150504079
:102D000094F059F0882332F0660F771F881F915096
:102D10005040C1F79E3F51052CF7880F911D9695A5
:102D2000879597F908955F3FACF0983E9CF0BB27DC
:102D3000869577956795B79508F4B1609395C1F737
:102D4000BB0F58F711F460FFE8CF6F5F7F4F8F4FD5
:102D50009F4FE3CF0C945F16FA01DC01AA0FBB1F53
:102D60009B01AC01BF5728F4222733274427507812
:102D700020C0B75190F4AB2F002446953795279586
:102D8000011CA395D2F3002071F0220F331F441FC2
:102D9000B395DAF30ED00C94381461307105A0E8C5
:102DA0008A07B94630F49B01AC016627772788274C
:102DB0009078309621F020833183428353830895A5
:102DC0000E94F3160C942B160E941D1638F00E94D8
:102DD000241620F0952311F00C94ED150C94F315A6
:102DE00011240C945F160E943C1670F3959FC1F35A
:102DF000950F50E0551F629FF001729FBB27F00DA9
:102E0000B11D639FAA27F00DB11DAA1F649F6627FD
:102E1000B00DA11D661F829F2227B00DA11D621F4C
:102E2000739FB00DA11D621F839FA00D611D221F06
:102E3000749F3327A00D611D231F849F600D211DEA
:102E4000822F762F6A2F11249F5750409AF0F1F06D
:102E500088234AF0EE0FFF1FBB1F661F771F881FD6
:102E600091505040A9F79E3F510580F00C94ED150C
:102E70000C945F165F3FE4F3983ED4F38695779504
:102E80006795B795F795E7959F5FC1F7FE2B880F7C
:102E9000911D9695879597F908959F3F31F0915030
:102EA00020F4879577956795B795880F911D96952E
:102EB000879597F908958F929F92AF92BF92CF9284
:102EC000DF92EF92FF92CF93DF93EC0168817981DB
:102ED0008A819B81611571058105910521F464E268
:102EE00079ED8BE597E02DE133EF41E050E00E9472
:102EF000B71749015A019B01AC01A7EAB1E40E944E
:102F0000D6176B017C01ACEEB4EFA50194010E94D1
:102F1000E417DC01CB018C0D9D1DAE1DBF1DB7FF5D
:102F200003C00197A109B04888839983AA83BB8312
:102F30009F77DF91CF91FF90EF90DF90CF90BF9080
:102F4000AF909F908F9008950E945B17089580E046
:102F500091E00E945B170895A0E0B0E0809300012B
:102F600090930101A0930201B09303010895052EEF
:102F700097FB1EF400940E94CE1757FD07D00E94C5
:102F8000E91707FC03D04EF40C94CE1750954095EA
:102F9000309521953F4F4F4F5F4F08959095809505
:102FA000709561957F4F8F4F9F4F08950E94291410
:102FB000A59F900DB49F900DA49F800D911D11248D
:102FC0000895B7FF0C94D6170E94D617821B930B57
:102FD0000895A1E21A2EAA1BBB1BFD010DC0AA1F5A
:102FE000BB1FEE1FFF1FA217B307E407F50720F072
:102FF000A21BB30BE40BF50B661F771F881F991FED
:103000001A9469F760957095809590959B01AC0135
:0A301000BD01CF010895F894FFCF31
:10301A0001000000446174613A004C005200766974
:10302A0063746F727921004C3A2000523A20003CB6
:10303A003D2D20202B3D3E00202020202020200056
:10304A004C20697320005220697320005472616910
:10305A006E696E673A200068656C6C6F0061646423
:10306A00724E41434B0077725F4E41434B0072658B
:08307A0061644E41434B00006C
:00000001FF
